:020000040800F2
:1000000000800020C1000008FD000008FD0000087D
:10001000FD000008FD000008FD00000800000000D1
:10002000000000000000000000000000FD000008CB
:10003000FD00000800000000FD000008211B000872
:10004000FD000008FD000008FD00000800000000A1
:1000500000000000FD0000080D29000835290008F7
:10006000FD000008000000002D1E0008FD00000833
:10007000FD00000800000000AD190008D5190008B7
:10008000FD190008FD00000800000000FD00000848
:10009000FD0000080000000000000000000000005B
:1000A000000000000000000000000000FD0000084B
:1000B000FD000008FD000008FD000008FD0000082C
:1000C00009490A4A0A4B9A42BEBF51F8040B42F84A
:1000D000040BF8E70749084A00209142BCBF41F8E9
:1000E000040BFAE700F062FAA061000800000020AB
:1000F0005004002050040020A0050020FEE700BFAF
:100100001C4B1B681BB11B4A1368013B13601A4B45
:100110001B681BB1184A1368013B1360174B1A6820
:1001200001321A6016490A6801320A601B68B3F589
:100130007A7F1ED113490A68134B1A60134A10685C
:10014000134B186000230B6013600C4A1360114AB4
:1001500013680133136013F0010F05D00E4A1368C2
:1001600043F40063136070470B4A136823F4006381
:100170001360704798040020F00400209C040020C5
:100180002C050020E0040020E4040020DC04002012
:10019000E80400209004002000000C4000B585B069
:1001A00010226946012002F069FB05B05DF804FBEE
:1001B00000B583B08DF8071029B101220DF10701B8
:1001C000104602F07DFB03B05DF804FB30B583B050
:1001D0000B490C4800F0AEFA4FF07E544FF08045CA
:1001E0000094234622462946074800F0C3FF0094A6
:1001F000234622462946054800F0BCFF03B030BD27
:10020000605A0008A0040020500400207004002060
:10021000524B1B68002B40F0A0802DE9F04383B0C7
:100220000446037913F0010F75D000F0D3F90028CC
:100230006CD14B4A10684B4B196812681A604A4BD4
:100240001F68401A04F084FD0646E369DFF8348134
:10025000B8F80000181A00B204F07EFD394604F028
:1002600083FE314604F0CCFD404904F0C9FD404D09
:10027000296804F0BDFC8146236AB8F80200181A08
:1002800000B204F069FD394604F06EFE314604F018
:10029000B7FD364904F0B4FD696804F0A9FC0746CF
:1002A0002946204600F084FA3249286804F0A8FD67
:1002B00004463149484604F0A3FD0146204604F0B7
:1002C00097FC064628602B49686804F099FD0446AF
:1002D0002949384604F094FD0146204604F088FC84
:1002E00004466860304604F01FF906460F46204673
:1002F00004F01AF9CDE9000132463B461F4803F0ED
:1003000091FC1F4A13680133136020E0237923F026
:10031000010323711BE000F027FAA0B9204600F08A
:100320009BF980B9204600F055F960B91049204684
:1003300000F03EFA237943F001032371084B1A6859
:10034000084B1A6003E0237923F001032371142280
:10035000024B1A6003B0BDE8F0837047F004002040
:100360002C050020EC040020140000206F12833ABA
:1003700094050020D0CC4C3D3333733F58590008CE
:10038000DC0400200000002030B5ADF54B7D444B6F
:100390001B68DB4313F4F84303D10022414B1A607E
:1003A0007AE0404A1268934203D13F4A1268002A19
:1003B00072D1C8213C4A11603A4A1360B3F5805F9C
:1003C00037D006D8B3F5806F0AD0B3F5006F2CD0C4
:1003D00062E0B3F5005F30D0B3F5804F3BD05BE017
:1003E00001F0CEF80446012002F038F8054600205E
:1003F00001F068FC2D4B1B6801932D4B1B6800938B
:1004000003462A4621462B4803F00CFC2A4A13686F
:100410000133136013F0010F284A136814BF43F42B
:10042000805323F48053136036E0254803F0FAFB31
:1004300032E0244803F0F6FB2EE0002102A800F091
:10044000A3FB002166A800F019FD66AA02A91E48B8
:1004500003F0E8FB20E01D4803F0E4FB1C4C02A97C
:10046000204600F067FABDF90C30BDF90A20BDF94D
:100470000810184803F0D6FB174803F0D3FB66A911
:10048000204600F089FABDF99C31BDF99A21BDF9E9
:100490009811124803F0C6FB0DF54B7D30BD00BF2F
:1004A00000800B409404002098040020E404002005
:1004B000E804002068590008D804002000000C401F
:1004C000BC590008C0590008C8590008F459000870
:1004D000A00400200C5A0008205A0008385A0008CE
:1004E00008B50121274800F0F7FE00231A464FF413
:1004F000F841022001F0C2F8202300224FF4F84115
:10050000032001F0BBF8204801F08CFA1F4801F0ED
:10051000C1F90121002001F0ABF91D4B1A681B68DD
:100520009B1A312B05D81A4900BF0B689B1A312B37
:10053000FAD9002001F054F9164A174B1A601748EF
:1005400002F026F80121084602F008F8144801F0EC
:1005500033FB144801F07AFC0121002001F0B4FAC9
:100560000121002001F09EFB0121002001F0D8FCB8
:10057000FFF72CFE0C4A136843F4806313600020DD
:1005800008BD00BF00B4C4047C5A0008545A0008D7
:100590002C050020B1010008180000208C5A00082A
:1005A000445900084C5A000800000C4008B5FFF7F9
:1005B00097FF054D054CFFF7E7FE2846FFF728FE9D
:1005C000236801332360F6E7A0040020E004002044
:1005D0000020704710B586B00446036899780E2352
:1005E000009302AB3B22002000F0B4FA0E2831D178
:1005F0009DF808209DF8093043EA0223E3609DF846
:100600000A209DF80B3043EA022323619DF80C2059
:100610009DF80D3043EA022363619DF80E209DF89A
:100620000F3043EA0223A3619DF810209DF811309A
:1006300043EA0223E3619DF812209DF8133043EA58
:10064000022323629DF814209DF8153043EA02230B
:100650006362002006B010BD10B586B003689C78B8
:1006600001228DF80F2003218DF814108DF815103C
:100670005B780B402949C95C8DF81610284951F860
:100680002310284B196003685B78C3F38103264964
:10069000C95C8DF81710254951F82310244B1960B7
:1006A00000920DF10F036B222146002000F034FA76
:1006B000012830D10423009305AB192221460020E4
:1006C00000F02AFA042826D1012300930DF10E032D
:1006D0006B222146002000F03DFA01281BD10423A3
:1006E000009304AB19222146002000F033FA0428BD
:1006F00011D19DF80E209DF80F309A4209D10422A5
:1007000005A904A804F0FCFE002818BF6FF0020041
:1007100001E06FF0020006B010BD00BFDC5A000817
:10072000B45A000814000020A05A0008A45A000877
:100730000800002038B504460D463822002104F098
:1007400087FF2560044BA362044BE362044B2363E1
:10075000044B636338BD00BF59060008D10500088B
:10076000D5050008E108000800B585B00368997850
:1007700004AB802203F8012D012200926B2200209D
:1007800000F0CAF901280DD1084B1A6864321B68C1
:100790009A4206D9054900BF0B689A42FBD800204F
:1007A00000E0002005B05DF804FB00BF2C05002030
:1007B0002DE9F04781460F46454B1E68C368DFF8B8
:1007C0001C81B8F80000181A00B204F0C5FA3146CE
:1007D00004F0CAFB0546D9F81030B8F80200181A20
:1007E00000B204F0B9FA314604F0BEFB0446D9F871
:1007F0001430B8F80400181A00B204F0ADFA31460B
:1008000004F0B2FB8246014604F0FAFA0646294695
:10081000284604F0F5FA80463146404604F0E8F9EF
:1008200003F082FE03F0D6FB80468946204603F0A3
:100830007BFE42464B4603F0F5FF03F029FA20A366
:10084000D3E9002303F0C4FE04F07CF980460021C4
:10085000504604F073FC10B9C7F800800FE0002187
:10086000204604F06BFC28B141461A4804F0BEF95A
:10087000386004E04146184804F0B8F93860214671
:10088000204604F0BDFA314604F0B2F903F04CFE04
:1008900003F0A0FB80468946284603F045FE424609
:1008A0004B4603F0BFFF03F0F3F907A3D3E900239E
:1008B00003F08EFE04F046F97860BDE8F08700BFD3
:1008C00000000020DCA54C4000000020DCA54CC04E
:1008D00008000020000034C3000034430C00002056
:1008E000D0B584B00C46C368B3F1FF3F07D100F028
:1008F000EFF802460D49204603F07AF912E002A90A
:10090000FFF756FF029803F00FFE06460F460398C6
:1009100003F00AFECDE9000132463B460449204679
:1009200003F066F9204604B0D0BD00BFC45A0008E9
:10093000C85A00082DE9F843054688466424002675
:10094000B14637462846FFF745FE40B9B5F91C3099
:100950001E44B5F920309944B5F924301F44013CB8
:10096000F0D10C4A82FB0613F617C6EB6313A8F806
:10097000003082FB09134FEAE979C9EB6313A8F849
:10098000023082FB0723FF17C7EB6313A8F804307C
:10099000BDE8F8831F85EB512DE9F04F87B0054680
:1009A000059142F21074474B0493039347F6FF7B83
:1009B000CDF808B0CDF804B00093DFF810914FF0F7
:1009C00080484FF0404A2846FFF704FE002863D1D4
:1009D000D9F80060EB693C4A1088181A00B204F09C
:1009E000BBF9314604F0C0FA0746414604F0A6FBC5
:1009F000002851D05146384604F0BEFB00284BD0A9
:100A00002B6A314A5088181A00B204F0A5F9314611
:100A100004F0AAFA0746414604F090FB00283BD0B8
:100A20005146384604F0A8FB002835D06B6A264AA8
:100A30009088181A00B204F08FF9314604F094FA45
:100A40000646414604F07AFB30B35146304604F086
:100A500093FB08B3B5F90C10009B8B42B8BF0B4653
:100A60000093B5F91020039B9342B8BF134603933C
:100A7000B5F9143004989842B8BF184604908B45D5
:100A8000A8BF8B4602999142A8BF11460291019AD4
:100A90009A42A8BF1A460192013C94D1009B5B4444
:100AA0005B1005990B80029B039A13445B100A4666
:100AB0004B80019B04990B445B10938007B0BDE809
:100AC000F08F00BF0080FFFF000000201400002016
:100AD000B0F908300333032B10D8DFE803F00D1111
:100AE000020408487047C068074A064BB0F1FF3F50
:100AF0000CBF1846104670470448704704487047BA
:100B000004487047345B0008E05A00083C5B00086A
:100B1000405B0008385B000870B5A0B00646249C16
:100B20007E2CA8BF7E2449008DF800108DF801208E
:100B3000224619460DF1020004F014FDA51C2A46B8
:100B40006946304601F0DEF8854208BF204620B0F5
:100B500070BD00BF30B583B005461C46490041F06A
:100B6000010323708DF804108DF80520022201A9DD
:100B700001F0C8F8022804D1069A2146284601F05F
:100B800007F903B030BD00BF2DE9F04FADB00E90B6
:100B90000F46002303700325784C0E2210A9002075
:100BA00001F080FA0646002800F03C8164232360AF
:100BB00000BF23681BB100BF2368002BFBD1013DA0
:100BC000EBD13BE16E4B6F49002F08BF0B466E49DE
:100BD0000E9803F00DF8304641E12C46731E422B6F
:100BE00000F28780DFE803F088228525282B852EF8
:100BF0003134373A85853D408543854685858585F1
:100C00008549854C4F85525558855B5E8561646783
:100C10006A85856D708585738585858585857685ED
:100C200085798585858585857C7F8200574B0D93E9
:100C300064E0574B0D9361E0564B0D935EE0564BCD
:100C40000D935BE0554B0D9358E0554B0D9355E0DC
:100C5000544B0D9352E0544B0D934FE0534B0D9377
:100C60004CE0534B0D9349E0524B0D9346E0524BF1
:100C70000D9343E0514B0D9340E0514B0D933DE0FC
:100C8000504B0D933AE0504B0D9337E04F4B0D9383
:100C900034E04F4B0D9331E04E4B0D932EE04E4B15
:100CA0000D932BE04D4B0D9328E04D4B0D9325E01C
:100CB0004C4B0D9322E04C4B0D931FE04B4B0D938F
:100CC0001CE04B4B0D9319E04A4B0D9316E04A4B39
:100CD0000D9313E0494B0D9310E0494B0D930DE03C
:100CE000484B0D930AE0484B0D9307E0474B0D939B
:100CF00004E0474B0D9301E0464B0D930E9F3846A1
:100D000004F052FD3B4603440A930B9661780C9124
:100D1000A678E77894F8048094F8059094F806A0F3
:100D200094F807B00821204602F09CFF3A4A3B4B5A
:100D300000280CBF184610460F9A089207900D9A8B
:100D40000692CDF814B0CDF810A0CDF80C90CDF8E7
:100D50000880019700960C9B0B9A31490A9802F083
:100D600047FF267A36B108352CABAB427FF435AF5E
:100D7000002074E0002072E0002070E0F004002009
:100D8000985B0008B85900081C5D0008A85B0008C3
:100D9000B05B0008C05B0008C85B0008D05B0008BF
:100DA000D85B0008E85B0008F05B0008005C000806
:100DB000085C0008185C0008205C0008305C000833
:100DC000405C0008485C0008545C00085C5C00085B
:100DD000645C00086C5C0008745C0008845C0008BB
:100DE000945C00089C5C0008F45A0008A45C0008AD
:100DF000AC5C0008B45C0008C45C0008CC5C000873
:100E0000D45C0008DC5C0008F45C0008005D0008AD
:100E10000C5D0008A05B0008145D0008085A00087B
:100E2000245D00089DF84060002EA5D00D4B0E4AB1
:100E3000002F18BF1A460F9210ADCEE616F1020F22
:100E400009D0B6F1FF3F08D0084A094B16F1030F4D
:100E500008BF1A46B6E6074AB4E6074AB2E62DB01E
:100E6000BDE8F08F985B0008B8590008885B00085F
:100E7000745B00085C5B0008485B00082DE9F04FDC
:100E800085B08146002505708B46A94BA94AA94229
:100E90000CBF92469A465FFA85F86B0043F0010357
:100EA0008DF80C300324012700263A4603A930466A
:100EB00000F06EFF012857D0013CF6D130E14846E2
:100EC00004F072FC9A4B9B4ABBF1000F18BF1A4604
:100ED0009949484402F08CFE6FF0010025E1974CDF
:100EE00022E0974C20E0974C1EE0974C1CE0A8F1C4
:100EF0004803DBB2072B10D9A8F12003DBB2072B84
:100F00000DD9A8F13803DBB2072B0AD88F4C904BD0
:100F1000B8F13E0F08BF1C4606E08E4C04E08E4C34
:100F200002E08E4C00E08E4C484604F03DFCCDF8CB
:100F300000A0234642468B49484402F059FE013541
:100F400015F0800FA7D099F800305BB9784B794A3B
:100F5000BBF1000F18BF1A468349484602F048FE0D
:100F60000020E2E00020E0E0A8F11003672BBED8EB
:100F700001A252F823F000BF1D110008EF0E000877
:100F8000EF0E0008EF0E0008EF0E0008EF0E00084D
:100F9000EF0E0008EF0E0008EF0E0008EF0E00083D
:100FA000EF0E0008EF0E0008EF0E0008EF0E00082D
:100FB00019110008EF0E0008EF0E0008EF0E0008F0
:100FC000EF0E0008270F0008EF0E0008EF0E0008D4
:100FD000EF0E0008EF0E0008EF0E0008EF0E0008FD
:100FE000EF0E0008EF0E0008EF0E0008EF0E0008ED
:100FF000EF0E0008EF0E0008EF0E0008EF0E0008DD
:10100000EF0E0008EF0E0008EF0E0008EF0E0008CC
:10101000EF0E0008EF0E0008EF0E0008EF0E0008BC
:10102000EF0E0008EF0E0008EF0E0008EF0E0008AC
:10103000EF0E0008EF0E0008EB0E0008EB0E0008A4
:10104000EF0E0008EF0E0008EB0E0008EB0E000894
:10105000EF0E0008EF0E0008EF0E0008EF0E00087C
:10106000EF0E0008EF0E0008EF0E0008EF0E00086C
:10107000EF0E0008EF0E0008EF0E0008EF0E00085C
:10108000EF0E0008EF0E0008EF0E0008EF0E00084C
:10109000EF0E0008EF0E0008EF0E0008EF0E00083C
:1010A000EF0E0008EF0E0008DF0E0008EF0E00083C
:1010B000EF0E0008EF0E0008EF0E0008EF0E00081C
:1010C000EF0E0008EF0E0008EF0E0008EF0E00080C
:1010D000EF0E0008EF0E0008E30E0008E30E000814
:1010E000EF0E0008EF0E0008EF0E0008EF0E0008EC
:1010F000EF0E0008EF0E0008EF0E0008EF0E0008DC
:10110000EF0E0008EF0E0008EF0E0008EF0E0008CB
:10111000E70E0008E70E0008144C05E7144C03E73F
:1011200010F1020F7FF40BAFC9E605B0BDE8F08FF8
:10113000985B0008B8590008A05D0008505D0008E1
:10114000605D0008EC5A0008045B0008945D00082C
:10115000805D0008705D0008685D00080C5D000897
:10116000E45A0008B85D0008C45D0008FC5A000895
:101170002C5B000810B4002404614461C4618461E4
:10118000016042608360019BC36010BC704700BF78
:10119000042834D8DFE800F0030F1B270300194BA5
:1011A000DB6B13F4800F1DBF164BD86BC0F3C05020
:1011B0000020C0B27047144B9B6813F0010F1DBF95
:1011C000114B1868C0F380000020C0B270470D4B6F
:1011D000DB6B13F0010F1DBF0A4BD86BC0F340301F
:1011E0000020C0B27047074BDB6B13F4004F1DBFEC
:1011F000044BD86BC0F340500020C0B270470020B1
:10120000704700BF00800D400000024011BB042861
:1012100058D8DFE800F0030A111803002B4AD36BFB
:1012200023F48003D36301207047294A936823F095
:101230000103936001207047244AD36B23F001031C
:10124000D36301207047214AD36B23F40043D36357
:1012500001207047042837D8DFE800F0030E1E296C
:1012600003001A4AD36B43F48003D363D36B13F4A4
:10127000000FFBD001207047154B9A6842F0010225
:101280009A609A6822F002029A601A46136813F074
:10129000040FFBD0012070470C4AD36B43F00103CD
:1012A000D363D36B13F4005FFBD001207047074A70
:1012B000D36B43F40043D363D36B13F4001FFBD011
:1012C00001207047002070470020704700800D40CB
:1012D00000000240000000002DE9F04F83B0A04B59
:1012E0001960042900F2DC80DFE811F00C000C002A
:1012F000E0000500E7004FF007080023019349F6DE
:10130000404AE0E0974F874228BF07463846964E4E
:101310004FF0000C4FF00708CDF804C0E246DFF8AC
:1013200058E2DFF858B289461CE0DA1DD1B226FA3D
:1013300003F272450AD8BA422CBFD41BBC1A8442AD
:1013400003D2884601959246204614B10133092BF9
:10135000EBD158B10CF1010C06F5F40606F59056E8
:101360005E4503D000235FFA8CF5DEE749467F4BEC
:101370009A4540F2A8801420D1E06BA3D3E9002362
:101380003046394603F096FB58BB69A3D3E90023E6
:101390003046394603F08EFB28BB67A3D3E9002310
:1013A0003046394603F086FBF8B965A3D3E900233C
:1013B0003046394603F07EFBC8B963A3D3E9002366
:1013C0003046394603F076FB98B961A3D3E9002390
:1013D0003046394603F06EFB002814BF062307236E
:1013E0000AE0012308E0022306E0032304E00423CB
:1013F00002E0052300E00023DB005D4A136002F5F4
:101400000042D36823F00303D36001212046FFF795
:10141000FDFE002846D0042C46D8DFE804F0031A6D
:101420000C130300042C19D1524AD36823F44073DF
:10143000D360002073E04F4AD36843F40073D36055
:1014400000206CE04B4AD36843F44073D360002023
:1014500065E0484AD36843F00203D360454B5A68BD
:1014600022F470625A605A68019942EA01225A6075
:101470005A6842F004025A601A46136813F0020FC9
:10148000FBD03C4BDA6822F0F002DA60DA6842EA1C
:101490000812DA60DA6842F48272DA6000203EE014
:1014A00014203CE014203AE0152038E04FF0070803
:1014B000002301934FF4004A05E04FF00708002392
:1014C0000193DFF8A4A00C462A4BDA6942F0080227
:1014D000DA61DA6942F01002DA61DA6942F0200278
:1014E000DA61DA6942F40062DA61DA6942F4805260
:1014F000DA61DA6942F40052DA61DA6942F00062D4
:10150000DA61504602F0EEFF06460F4612A3D3E919
:10151000002303F0CFFA00287FF46DAF2DE703B06E
:10152000BDE8F08FAFF300800000000084D7874152
:1015300000000000A3E191410000000084D7974122
:101540000000000065CD9D4100000000A3E1A14125
:101550000000008093DCA4410000000084D77741A4
:10156000F404002000F36F0600127A007F778E06E5
:10157000008001400000024080778E0600321B0888
:1015800038B53B4BDB68C3F30123022B0AD0032B96
:1015900011D0CBB90020FFF7FBFD0028354808BF6C
:1015A000002038BD0220FFF7F3FD002814BF4FF4E0
:1015B0000040002038BD0320FFF7EAFD002849F66F
:1015C000404008BF002038BD294BDB6803F003030F
:1015D000032B23D8DFE803F0020A121A0020FFF7DA
:1015E000D7FD0028234808BF002018E00020FFF79F
:1015F000CFFD0028204808BF002010E00120FFF7A1
:10160000C7FD00281B4808BF002008E00120FFF7A5
:10161000BFFD0028184808BF002000E00020144B40
:10162000DB6813F0040F0CD0114B5B6813F0040F50
:1016300006D00F4B5B68C3F3032303FB000000E0FD
:1016400000200B4BDC68C4F30314062C98BF07245E
:1016500003F07EFB0546073C0120A04003F07CFB25
:101660000146284603F080FC03F090FD38BD00BF22
:101670000000024000127A0000093D00052800F237
:1016800093802DE9F04F87B04A4C54F820C04A4E61
:10169000F4694A4D285C00F01F050120A840204352
:1016A000F061DCF800B0DCF804000190DCF80860C0
:1016B000DCF80C000290DCF810000390DCF8140059
:1016C0000490DCF81840DCF81C00059089B203F0A7
:1016D000030AC3F301198E4600254FF003081EF0DC
:1016E000010F0AD008FA05F0C04306400AFA05F7D0
:1016F0003E43204009FA05F404434FEA5E0E0235EA
:10170000202DECD103F00F00042802980CBF884371
:10171000084313F0F00F0CD1CF43019D3D4013F46B
:10172000005F02D0059F0F430DE0059A3A4017462F
:1017300009E0019D0D43059F27EA01078BEA02029C
:101740000A408BEA020B13F4807F039A14BF42EA2B
:10175000014E22EA014E13F4007F14BF4EEA010E3F
:101760002EEA010E13F4806F049A14BF42EA01427C
:1017700022EA014203F4C053B3F5006F0CBF1143DA
:1017800022EA0101CCF800B0CCF80450CCF8086093
:10179000CCF80C00CCF810E0CCF81410CCF81840C1
:1017A000CCF81C70002001E01620704707B0BDE89F
:1017B000F08F00BF405E000800000240585E000845
:1017C00006494B6D00F00300012202FA00F023F0FD
:1017D000070303439BB24B65704700BF00000F40F7
:1017E00008B5054AD36943F08043D3610120FFF770
:1017F000E7FF002008BD00BF00000240B0B3F8B50D
:101800000446FFF7BDFE0023A3602668B646012507
:101810004FF6FD77B0FBFEF35A1E023BBB4203D8E6
:10182000626000202073F8BD0122D1B205FA02F3F4
:1018300006FB03F3B0FBF3F303F1FF3C023BBB42B7
:1018400004D8C4F804C021730020F8BD0131C9B226
:101850000132082AE9D1A5600135B644B5F1011F6E
:10186000D8D1C4F804C021731420F8BD14207047E7
:1018700000F00300064B53F8203021B1DA6842F043
:101880000102DA607047DA6822F00102DA6070471C
:10189000605E000830B585B0002874D00278022A56
:1018A00073D80546436804A840F8103DFFF7A6FF2B
:1018B000044600286BD12B7803F00303364A52F814
:1018C000233028686968AA68186059609A603348AC
:1018D000C2692B7803F003033149CB5C03F01F018D
:1018E00001238B401343C36100212878FFF7C0FF19
:1018F0002B78032B2BD0AA6842B10E3303F01F03C1
:10190000012202FA03F3274A136008E00E3303F0C2
:101910001F03012202FA03F3224AC2F880301F4B50
:101920005A6A2978C800FF21814022EA01025A62DE
:101930005A6A9DF80C102878C00081400A435A6208
:101940005A6A28784FF0807181400A435A622B7896
:1019500003F00303144A52F823300022DA60BDF882
:1019600008205A60AA6822B19A6D42F001029A6575
:1019700003E09A6D22F001029A6500221A60BDF818
:1019800004209A6004E0172402E0172400E01424E5
:10199000204605B030BD00BF705E00080000024068
:1019A0006C5E000800E100E0605E000808B5074BCF
:1019B0005B6D13F0010F08D0044A536D23F001034F
:1019C0005365034B9B6803B1984708BD000007406F
:1019D000F804002008B5074B5B6D13F0010F08D029
:1019E000044A536D23F001035365034B9B6803B115
:1019F000984708BD008007400405002008B5074B44
:101A00005B6D13F0010F08D0044A536D23F00103FE
:101A10005365034B9B6803B1984708BD000008401D
:101A200010050020002848D070B50546244E3446E5
:101A300000686968AA68EB680FC411B94FF47A723C
:101A40007260204B1A6822F003021A6000229A602A
:101A5000AB68032B0BD101210320FFF7D7FB194AF9
:101A6000136823F00403136049F6404006E0154A6A
:101A7000136843F004031360FFF782FD104B5B68AB
:101A8000B0FBF3F0013805D06FF07F43984228BFD8
:101A9000184600E001200B4B5860EB6833B1094A4F
:101AA000136843F002031360002070BD054A1368F9
:101AB00023F002031360002070BD1720704700BFA1
:101AC0001C05002010E000E029B1064A136843F02D
:101AD000010313607047034A136823F00103136086
:101AE000704700BF10E000E00C4B1A6822F00102C2
:101AF0001A6000229A6021F07F4159601A6842F012
:101B000001021A601B6813F4803F05D1034A00BF2D
:101B1000136813F4803FFAD0704700BF10E000E074
:101B200008B5024BDB6803B1984708BD1C050020CF
:101B30000E4B1A68C8320E4B1B6913F0020F0DD002
:101B40000A4B1B689A4209D90949084800BF0B692A
:101B500013F0020F02D003689A42F7D8034B1868BB
:101B600082424FF0FF3088BF002070472C050020D4
:101B7000000005400E4B1A68C8320E4B1B6913F06B
:101B8000400F0DD00A4B1B689A4209D909490848F1
:101B900000BF0B6913F0400F02D003689A42F7D8D8
:101BA000034B186882424FF0FF3088BF0020704717
:101BB0002C0500200000054038B50446334D006870
:101BC0006168A268E3680FC520692860236913B1C2
:101BD000012B08D035E040F63213032211460220D3
:101BE000FFF74CFD2FE040F633134FF4404211460F
:101BF0000420FFF743FD26E04FF6FF70984228BF10
:101C0000184600E00120C2B2214B1A60C0F3072041
:101C1000586063681F4A93428CBF20230023E26808
:101C200032B143F040034FF480611B4A116004E07D
:101C30004FF48061184AC2F88010154A9360002062
:101C400038BD192038BD154AD36943F48063D36188
:101C50000F4B00229A619A60FFF792FC03F078F82C
:101C60000546606803F074F80D4903F0C9F84FF0B9
:101C70007E5102F0BBFF0146284603F075F903F0E0
:101C800085FA03460028BDD0B6E700BF3005002026
:101C900000000540801A060000E100E0000002405C
:101CA0000000A04029B1064A936843F08003936086
:101CB0007047034A936823F080039360704700BF26
:101CC0000000054070B5FFF75BFC0C4B5E681D68BB
:101CD00003F03EF8044645EA062003F039F80146D1
:101CE000204603F041F94FF07E5102F081FF044994
:101CF00003F03AF903F04AFA70BD00BF0000054056
:101D00000000A0402DE9F0410D461646FFF732FFD6
:101D1000002837D12B7803F0FE031C4A536190232F
:101D20009361FFF705FFD0B9184B1B6913F0800FC3
:101D300018D1012E19DD0127144C4FF0100815F8A9
:101D4000013F6361C4F81880FFF7F2FE78B9236998
:101D500013F0800F0ED10137BE42F0D10CE06FF0CE
:101D6000010609E04FF0FF3606E0012604E06FF0BF
:101D7000010601E04FF0FF364022044B9A613046E5
:101D8000BDE8F0816FF00100BDE8F0810000054082
:101D90002DE9F0410E461546FFF7ECFE002837D13D
:101DA000337843F00103204A536190239361FFF796
:101DB000BFFEE8B91C4B1B6913F0800F1BD1002D2F
:101DC0001CDD013E0024184F4FF020080134A542CD
:101DD00006D12822144B9A61FFF7AAFE00B30FE048
:101DE000C7F81880FFF7A4FEB0B16FF0010509E055
:101DF0006FF0010506E04FF0FF3503E0002501E03C
:101E00006FF001054022084B9A612846BDE8F08139
:101E10006FF00100BDE8F081FB6806F8013FD5E7EF
:101E2000014BDB687370EDE70000054008B5054A1B
:101E3000936943F001039361034BDB6803B1984757
:101E400008BD00BF0000054030050020002848D034
:101E5000F8B543881C0A052C45D8DBB20F2B44D8B3
:101E6000234E244A52F824203260234D012202FAE4
:101E700003F32B60FFF784FB204BA3FB00239B0C99
:101E8000D900CF1A1E4A17604FF4FA7202FB03F210
:101E90001C4802605A001C4802601A441B48026039
:101EA0005A01D0184000DFF874E0CEF80000D21AD2
:101EB0005200174802601944164A116003EBC70329
:101EC000154A13604FF41263002229682046FFF779
:101ED000D5FB32685368296823EA01035360002068
:101EE000F8BD172070471720F8BD1720F8BD00BFB8
:101EF000640500207C5E00086805002083DE1B432B
:101F0000580500204C0500206005002048050020F1
:101F10004405002050050020540500205C050020E9
:101F2000704700BF2DE9F84F354D2A685368354C8E
:101F3000216823EA01035360334B19680020FFF73F
:101F4000D3FD2B6859682068014359601A6822EA5A
:101F500000021A602D4B19680020FFF7C5FD2A68A2
:101F60005368216823EA01035360FA244FF0000903
:101F7000CB46CA464D46DFF89880214F214ED8F80F
:101F800000100020FFF7B0FD3B681A68336813406B
:101F9000012D0CD015B1022D11D020E0BBB10AF1FA
:101FA000020ABAF1080F94BF0025012517E08BB98A
:101FB0000BF1020BBBF1330F28BF02250FE063B119
:101FC00009F10209B9F1650F28BF032507E04FF0B9
:101FD000000A04E04FF0000B01E04FF00009013C63
:101FE000CDD1032D08D0BAF1000F0CBF6FF0010066
:101FF0004FF0FF30BDE8F88F0020BDE8F88F00BF3C
:102000006405002068050020580500204C050020CC
:10201000600500202DE9F0410D4608241B4F1C4EA1
:10202000DFF87C803B6859683068014359601A6862
:1020300022EA00021A6015F0010F10D0154B196842
:102040000020FFF751FD3A685368316823EA010325
:102050005360114B19680020FFF746FD0FE0D8F8D8
:1020600000100020FFF740FD3A685368316823EA0A
:1020700001035360094B19680020FFF735FD6D0817
:10208000013CCFD10120BDE8F08100BF64050020F4
:1020900068050020480500205C0500205805002048
:1020A000440500202DE9F04F8DB0084604911446F8
:1020B0000592D200002103F0CBFA00230893099384
:1020C00006930793002C00F3AA800023039309E1F1
:1020D00002F0070304FA03F3DFB2D010DB43DBB2F4
:1020E0000CA901EB000E1EF8181C19400EF8181C64
:1020F0001EF810EC17EA0E0F0DD002E07F23072028
:1021000080270CAA1044394300F8181C0EEA030378
:1021100000F8103C03E0013AB2F1FF3FD8D10020B3
:102120000A900B90FFF7FEFE0390002840F0DA8043
:10213000F021FFF76FFF0023019398461C46336898
:1021400059682868014359601A6822EA00021A6037
:10215000DFF8A8B1DBF800102046FFF7C5FC3268B5
:102160005368296823EA01035360DFF898A1DAF87D
:1021700000102046FFF7B8FC33681F682B681F402B
:10218000DFF88491D9F800102046FFF7ADFC3368E2
:1021900059682868014359601A6822EA00021A60E7
:1021A000DBF800102046FFF79FFC3268536829686F
:1021B00023EA01035360DAF800102046FFF794FC8D
:1021C0003368D3F800B0D5F800A0D9F80010204645
:1021D000FFF78AFC002F55D11BEA0A0F32D108F015
:1021E000070201239340DBB24FEAE8020CA9114435
:1021F00011F8181C0B4245D101990131019108A831
:10220000815C0B4383541DE008F10108B8F1400FD5
:1022100095D159E0059B029A934204D162E00023D4
:102220000293324E324D9DF81F1001F07F018DF860
:102230001F109DF827E01EF0800F7FF45FAF3E2255
:10224000012445E70AA94FEAE8028B5C5B088B543E
:10225000336859682868014359601A6822EA000205
:102260001A60244B19682046FFF73EFC3268536819
:10227000296823EA010353601F4B19682046FFF7C2
:1022800033FCC1E70AA94FEAE8028B5C5B0863F004
:102290007F038B54336859682868014359601A6872
:1022A00022EA00021A60154B19682046FFF71CFC51
:1022B00032685368296823EA01035360104B196898
:1022C0002046FFF711FC9FE7049F029C07EBC40226
:1022D0000AAB03CB47F834005160631C0293019BA7
:1022E000002B97D103980DB0BDE8F08F6405002056
:1022F00068050020440500205805002048050020FE
:102300005C0500205005002054050020002955D010
:10231000F8B50D4610B1012806D051E02A4A936A5B
:1023200023F08073936204E0274A936A23F00073DA
:102330009362044600F00102244B53F82260A8681F
:1023400002F024FF7062AF68384602F01FFF02F00F
:10235000FFFC0146384602F049FC4FF0854102F08F
:102360004FFD4FF07C5102F043FC02F00FFFB062D2
:10237000F36ADBB2F36214B1012C0FD022E0124BEE
:102380009A6A22F0FF029A62996A6A680A439A621C
:102390009A6A42F080729A620020F8BD0A4B9A6AEB
:1023A00022F47F429A629A6A696842EA01229A623A
:1023B0009A6A42F000729A620020F8BD18207047B5
:1023C0001620F8BD0020F8BD00000240945E000811
:1023D00000283DD02DE9F84F8146FFF7D1F880461F
:1023E000082401271B4E4FF07E5ADFF86CB0013CE9
:1023F000404602F0ADFC054607FA04F002F0ACFCE2
:102400000146284602F0B0FD0546314602F0AAFE1C
:10241000C8B1D9F80000000102F09AFC0146284634
:1024200002F0A2FD0546514602F09CFE58B1594605
:10243000284602F08DFE30B1C9F80440C9F80850B2
:102440000020BDE8F88F002CD1D11420BDE8F88F12
:10245000142070470024744900FF7F472DE9F0479E
:10246000034610B101280AD05AE0324A926A12F0AB
:10247000807F58D02F4A946A04F0070408E02D4A60
:10248000926A12F0007F51D02A4A946AC4F302245F
:1024900003F00103284A52F82350FFF771F8D5F8EA
:1024A00024A0AD6A02F054FC02F03EF806460F4646
:1024B00005F03F0002F04CFC02F036F800221F4B02
:1024C00001F0D2FE00221E4B02F082F880468946BF
:1024D0001FFA8AF002F03CFC02F026F802460B4696
:1024E0004046494601F0C2FE804689460120A04090
:1024F00002F032FC4FF0834102F082FC02F014F84B
:1025000002460B464046494602F062F802460B4638
:102510003046394602F086F902F0F4FABDE8F08759
:102520000020BDE8F0870020BDE8F0870020BDE86E
:10253000F08700BF00000240945E00080000E03F0A
:102540000000903F00F00100034B53F820209369F6
:1025500013F0080FFBD17047945E000810B500F02F
:1025600001020A4B53F8224031B1236B43F440730C
:1025700043F00103236310BDFFF7E4FF236B23F453
:10258000407323F00103236310BD00BF945E000875
:10259000002800F042812DE9F04184B00446037820
:1025A00023B1012B40F03C81AE4E00E0AE4E3546EB
:1025B00020686168A268E3680FC5206928607268B6
:1025C000AA4B9A4288BF7360736804A840F80C3D18
:1025D000FFF7FEFE002840F02581337813B1012B70
:1025E00044D068E0338A012B1AD14FF49173002252
:1025F0004FF440611046FFF741F84FF48173002219
:102600004FF470411046FFF739F8738A013B042BF1
:1026100051D8DFE813F03D000B01100015001B003E
:10262000738A013B042B46D8DFE813F0270005012D
:1026300005000A0010004FF480788021032703E191
:102640004FF400584FF480510427FDE040F203138B
:10265000002280210320FFF711F840F233130022FB
:102660004FF400510420FFF709F8EFE0738A012BC3
:1026700008D0022B00F0E4801DE04FF0200840213C
:10268000012703E04FF0020801210327022504E09F
:102690004FF0200840210127022545F480730022D5
:1026A0003846FEF7EBFF45F4987300224146384662
:1026B000FEF7E4FFCAE01923D0E06D4AD36943F086
:1026C0004003D36104E06A4AD36943F08003D361D5
:1026D000307800F00102674B53F822500021FFF7D9
:1026E0003DFF01A93078FFF711FE0346002840F0B6
:1026F0009B80EA6A296BA06810F4007F12BF02F089
:10270000EF02D2B242F0100210F4806F14BF42F018
:10271000010222F0010222F060027078062804D043
:10272000072805D0052806D107E042F0200204E082
:1027300042F0400201E042F0600222F08602B068FE
:1027400000F00704013C032C0ED8DFE804F002057A
:10275000080B42F0060207E042F0020204E042F0F9
:10276000820201E042F0860200F01804082C0CBF3F
:1027700042F0080222F0080221F002018904890CCB
:1027800000F0E004402C06D0602C07D0202C07D1AC
:1027900041F4804104E041F4004101E041F4404152
:1027A00010F4807F14BF41F0800121F08001D2B28B
:1027B000EA628AB22A636A6B22F03F026A636A6B3A
:1027C00042F010026A636A6B42F002026A63F268C6
:1027D00082B1AA6B42F05002AA63327812B1012A88
:1027E00004D03BE04021244A116037E08021224A96
:1027F000116033E0AA6B22F05002AA63327812B162
:10280000012A05D02AE040211B4AC2F8801025E0A9
:102810008021194AC2F8801020E01723184670471B
:1028200016231BE0182319E0182317E04FF0800847
:102830004021002708E04FF080084021002703E0F6
:102840004FF0020801210527032526E73378002BE6
:102850003FF433AF012B3FF436AF39E7184604B0ED
:10286000BDE8F081800500206C05002040420F008B
:1028700000000240945E000800E100E000F001006A
:102880000E4B53F82030986910F0100F10D1002A29
:1028900010DD10B40139002001301C6801F8014F2F
:1028A0009C6914F0100F07D18242F5D1104603E065
:1028B000002070470020704710BC7047945E0008ED
:1028C00070B400F00100104B53F8204000200FE0DE
:1028D000A36913F0800FFBD010E0013013F8015B07
:1028E0002560824202DDB042F7D100E00646304664
:1028F000904207DAA36913F0800FE9D00B1800F1BA
:102900001006EAE770BC7047945E000808B5074BF4
:102910001B6C13F0500F08D0044A536C43F0500363
:102920005364034BDB6803B1984708BD00000340C4
:102930006C05002008B5074B1B6C13F0500F08D036
:10294000044A536C43F050035364034BDB6803B1F8
:10295000984708BD00800340800500202DE9F8431A
:10296000D1E90045471E00264FF00A084FF0000944
:10297000013642464B462046294602F027FC3032BB
:1029800007F8012F42464B462046294602F01EFC1E
:1029900004460D4654EA050301D0402EE8D13046E6
:1029A000BDE8F88303685A1C02601970704700BFC5
:1029B000704700BF000000002DE9F04FC7B081460E
:1029C000019108930792002A40F0D18700210198D5
:1029D000C84701F009B9252904D00198C847C34662
:1029E00000F0C8BF4FF0000E8DF814E18DF8D4E070
:1029F0008DF894E0C3463F2306937646CDF810E069
:102A0000012300931D465FE00BF1010B07F1440326
:102A100013F8014B14B1A242FAD161E007F1580159
:102A200011F8013B6BB19A42FAD125F0030545F04C
:102A30000405012E48DC46AB334403F8042C013670
:102A400042E015F0040F3FD12E2A04D125F00105F4
:102A500045F0020538E0A2F13003DBB2092B20D8A3
:102A600015F0010F07D0302A05D1069B3F2B08BF78
:102A70003023069328E025F0010315F0020F08D05B
:102A800046AD049C291901F8842C621C04921D4651
:102A90001AE046A9714401F8442C0EF1010E1D46BE
:102AA00012E015F0010F0FD02B2A06D02D2A07D0E7
:102AB000232A09D145F0200506E045F0100503E082
:102AC00045F008052023069310F8012F002A00F096
:102AD0005B87252A01F02280202A95D101F025B8B4
:102AE0000095252C00F05C87202C1CD100F05EBFE7
:102AF00025210198C847079B9844013D4446019E03
:102B000014F8011B3046C847C4F101032B4418EBED
:102B1000030FF5D100F02EBF25210198C8470BF116
:102B2000010B00F027BF002346AA324402F8043C00
:102B300046AA96440EF8443C04990A4402F8843CA0
:102B40009DF8D43023B135A802F0D0FC099001E003
:102B500000230993069B3F2B08BF20230693702C6C
:102B600005D1009B43F020030093782491E0732C5F
:102B700003D0632C40F08D8030E0089A02F1040A03
:102B800013681946002B08BF39461291009B13F0B9
:102B9000020F00F012879DF89430002B00F00D8793
:102BA00025A802F0A3FC0646129B1B78002B00F020
:102BB0000B87411E10B900F00ABF9F49129B0026E7
:102BC000009D013613F8012F002A00F0FF86C6F1A0
:102BD0000102CA42F5D1009500F0F9BE089A02F14F
:102BE000040A13780493009B13F008080BD02023E9
:102BF0000693012632E0009B13F008081AD1002347
:102C000004931E4605E020230693012601E00023DD
:102C10000493099B9B1B5D1E002B06DD0699019802
:102C2000C847013DB5F1FF3FF8D1732C14D14FF0E7
:102C3000000800E00026BEB100963446129D15F84B
:102C4000011B0198C847013CF9D1129B009A13441B
:102C50001293CDF820A009E04FF0000804990198E4
:102C6000C847CDF820A001E0CDF820A0B8F1000FB2
:102C700000F08086099B9E1B741E002E40F37A860E
:102C800006990198C847013CB4F1FF3FF8D100F024
:102C900071BE07F16002009D12F8013BFBB1A34237
:102CA000FAD10095672C09D0472C14BF00230123CB
:102CB0000F9304F0DF03452B02D103E001230F93B0
:102CC0000F9B00E00123DBB21393692C00F03B87DC
:102CD0002046002100220023CDE90A2368E0009568
:102CE000692C05D0B4F1640C18BF4FF0010C01E061
:102CF0004FF0000C012E40F37E869DF814316C2BB2
:102D000014D19DF815316C2B40F0698700F065BE39
:102D10009DF814316C2B09D1089B1D1D1A681046B3
:102D2000D117CDE90A01012E33DC1DE0089B1D1DE2
:102D30001A681046D117CDE90A01012E14DD089555
:102D400000219DF814E1BEF1680F2AD19DF815E12C
:102D5000BEF1680F40F05486DDE90A2302F0FF025D
:102D60000023CDE90A231CE0002E15DD9DF8146137
:102D7000682E14D1089500211CF0FF0FBDF8280023
:102D8000024619BF82B2002312B2D317CDE90A233B
:102D900007E00895002104E00895002101E008956E
:102DA0000021692C00F0318600230F9313931846FD
:102DB000752C00F03A86642C2BD100F029BE0C9BB8
:102DC00043F040030C93DDE90A23524263EB4303D3
:102DD000CDE90A23099B013B099306E0009B13F010
:102DE000100F02D0099B013B099319B9DDE90A23B1
:102DF000002301E0DDE90A2346A961E9242335A87F
:102E0000FFF7ACFD06460A9000230E939A4600F0A9
:102E100068BC04F0DF06582E10D06F2C40F0928072
:102E2000002914BF16230B239E4607231E460321A9
:102E300007F11C0A12E000BFFFFF0700002914BFC2
:102E4000102308239E46782C4FF00F031E464FF0A8
:102E5000040114BF07F11C0A07F1080A009B23F0C4
:102E600050030C93DDE90A230DF1D30800207546C9
:102E70000A940446CDF83890B14600E03446661C0A
:102E800009EA02001AF8000008F8010FC1F1200C4D
:102E9000A1F1200022FA01FE03FA0CFC4EEA0C0E0E
:102EA00023FA00F023FA01FC4EEA0002634652EADC
:102EB000030001D0AE42E1DBA6460A9CDDF8389063
:102EC000009B13F0200F00F00884069B302B22D1CA
:102ED000099B9B1B6F2C06D1991E013B002B06DC26
:102EE0002023069321E0D91E023B002B16DD354638
:102EF00046AB9A19453A302002F8010FAB1A0B4441
:102F000035AE3344002BF7DC764602360029A8BFE5
:102F10007618202306936F2C02D106E02023069317
:102F200046AB334403F8444C0136731C1A460A93EB
:102F300046AB1E44302306F8443C164600230E934D
:102F40009A46CEE3002800F0158500220023CDE943
:102F50002023009B13F0020F17D09DF89430002B14
:102F600000F0FC8525A802F0C1FA82460F9B23B130
:102F7000002808BF4FF0010A12E0BAF1000F0FD18C
:102F8000009B23F0020300930AE0412E06D0009B31
:102F900043F0020300934FF0060A01E04FF00D0AE0
:102FA000089B073323F0070303F108020892D3E9D3
:102FB000002310461946002203F00043CDE90C23FC
:102FC000CDE90A01024621F000430020B1499942AF
:102FD00008BF9042C0F0A2818B4208BF824200F03D
:102FE000A281DDE90A01C1F30A53002B00F0CB8571
:102FF000A3F2FF3C4FF0FF32A74B104019400246AE
:103000000B46CDE90223412E40F0F180012200233E
:10301000CDE90A2305E000220023CDE90A23DFF8E9
:103020007CC2DDE90223134309D1009B03F00203B4
:10303000002B08BF4FF0000A4FF0000C0AE0BCF173
:10304000000F07DACCF100031A46DB17CDE9222383
:103050002D2604E06246D317CDE922232B26612CCE
:1030600040F0FE8400F0EBBC46AB1A4402F8441C6E
:10307000BAF10C0F5EDCCAF10D024FEA820CACF122
:103080000401C1F1200EACF12400DDE90223164653
:10309000CE40149603FA0EFE149E46EA0E061496CF
:1030A00023FA00F0149E0643149623FA01F11591B9
:1030B000DDE9140100F00F000021002908BF0828F5
:1030C00020D3BAF1000F16D00121ACF1200ECCF1C3
:1030D000200001FA0EF621FA00F00643179601FAD5
:1030E0000CF11691DDE91623DDE9020112184B41BE
:1030F000CDE9022306E0DDE90A23013243F10003B2
:10310000CDE90A23CCF1200EACF12001DDE9022348
:1031100022FA0CF003FA0EFE40EA0E0023FA01F147
:1031200023FA0CF6014302910396BAF1000F00F363
:10313000D78434E0AAF10E00BAF10D0F00F0D0846C
:1031400008F1FF3135AB1944024642441A444FF0AE
:10315000300E009D43460C9E01F801EF8A42FBD1E0
:1031600000950C96013303EB0008DEE7013102986D
:1031700000F00F00305C08F8010F02980009039A74
:1031800040EA02704FEA121E0290CDF80CE0614551
:1031900000F077848B42E9D10095984606E0BAF1B9
:1031A000000F03D1009B13F0200F06D046AA424423
:1031B0002E2102F8441C08F1010846AA42440A994B
:1031C000303102F8441C612C0CBF7821582146AAEA
:1031D000424402F8431C08F103061346302203F868
:1031E000422C0A96009B0C9301230E9379E2DDE9B1
:1031F0000256320342EA1552290302910392BCF1AE
:10320000000F08D101220023CDE9202307F1380661
:1032100001230E938BE0BCF1000F41DA0123002063
:103220000021CDE92001CCF10001C1F12006A1F17E
:103230002000029ACA401092039A02FA06F6109AE7
:1032400032431092DDE9025626FA00F0109A02434A
:1032500010923246CA401192DA076FEA0C03C3F1AA
:103260002000A3F1200102FA00F022FA01F1084344
:10327000189022FA03F31993DDE91823DDE9100110
:1032800002430B43CDE9022307F1380601230E93D5
:103290004DE000BF0000F07FFFFF0F0002FCFFFFCA
:1032A000DDE9020149084FEA3000024641F00043DF
:1032B0001946CDE92023DCF13F0216D4C2F1200EDD
:1032C000A2F12006CDE90401D040059B03FA0EFED1
:1032D00040EA0E0023FA06F63043D34020902193B3
:1032E00007F1380601220E9203E007F130060022B2
:1032F0000E92ACF12000CCF12002039901FA0CFEF1
:10330000029901FA00F04EEA000E21FA02F201FAE7
:103310000CF002904EEA0203039308E007F13C062A
:1033200000230E9303E007F1300600230E93DDE93E
:103330000C23134307D0009B43F040030093099BE9
:10334000013B099306E0009B13F0100F02D0099B8C
:10335000013B09930E9B002B00F0A881139B9BB1AE
:10336000DDE9200150EA010310D0D046009D00E0C5
:10337000B04608F1FF360A22002301F027FF50EA89
:103380000103F5D1009502E0D04600E0D046DDE92A
:103390000223134300F0BF80A94901F5A070002269
:1033A0000023CDF810B0009EA646DDE90245002CB2
:1033B00075F1000C07DAD1E900BC1BEB020B4CEBFA
:1033C000030C5A46634624196D4108318142EED1FF
:1033D000DDF810B0CDE90245009611461A46CDE958
:1033E0001A12744628AE04960A910C92009D0A2285
:1033F00000230A980C9901F0E9FE3032049B03F88F
:10340000012D04930A2200230A980C9901F0DEFE94
:103410000A900C9125AA049B9A42E8D10095139B2F
:10342000DBB1DDE92023134317D108F101029DF838
:103430009430302B0DD108F10D0325A9904608F1E9
:103440000108984507D011F8012F302AF7D00095D0
:1034500003E0904601E000959846B8F10B0F63D861
:1034600046AB434413F8843C342B5DD9C8F10B01BF
:10347000B8F10C0F1ED001220023CDF810B0009D32
:103480008E4612EB020B43EB030C634699005B463E
:1034900041EA9B7198001BEB00024CEB01030EF11B
:1034A000FF3EBEF1FF3FECD1DDF810B00095CDE955
:1034B0001C0101E001220023DDE91A0180185941B5
:1034C000CDE904015CA3D3E900238B4208BF82420B
:1034D0000AD2DDE92023501C43F10001CDE920018F
:1034E00000220023CDE90423009D0A220023DDE908
:1034F000040101F06BFE303206F8012D0A22002390
:10350000DDE9040101F062FECDE9040125ABB3421F
:10351000EBD1009508E025AB28A93022009D03F8E7
:10352000012B9942FBD1009520A935A8FFF716FA87
:103530000646B8F1000F2CDA6FEA080846AB4344A0
:1035400013F8443C342B24D901200021DDF800E09D
:10355000051841EB0106B30043EA9573AA00A818C9
:1035600046EB030108F1FF38B8F1FF3FF0D1CDF889
:1035700000E0CDE91E23DDE92023151843EB010609
:103580002A46334646A961E9262335A8FFF7E6F91E
:103590000646139B93B135AA731E1344934209D96F
:1035A000009D1178187802F8010B03F801199A426E
:1035B000F7D300950AF105030A9302E006EB0A032C
:1035C0000A93BAF1000F03D1009B13F0200F02D031
:1035D0000A9B01330A930F9B002B79D09DF89F30F3
:1035E000302B40F0ED820DF19F020B23009D591E00
:1035F00012F8010D302840F0E5820B460029F6D183
:10360000D0E2721E46AB134413F8443C302B1AD15F
:1036100046AB3344453B1646009D05E0721E13F849
:10362000011D30290ED11646002EF7D100954FF01E
:10363000FF3326E0AFF30080FF0FA5D4E8000000C1
:10364000085F00080095731E012E1AD19DF8D42042
:10365000302A16D10499002917DD9DF89430302BBB
:1036600016D125AA013911444FF0FF33009D013BCB
:103670008A4205D012F8010F3028F8D0009500E0FA
:10368000009513F1040F0CDB04E04FF0FF3301E071
:103690004FF0FF339A4504DD049BF31801330A937E
:1036A00018E0049BF31805330A9313E0314635A85C
:1036B00002F01CF8304602F077F80646009B23F033
:1036C000220300930A904FF0000ACDF810A001E009
:1036D0000C230493009B0C9303E00A9600230E93A3
:1036E0009A460C9A12F0400F40F0CF8112F0100F62
:1036F00040F0CE8108E041460198C8470C9B13F08A
:103700000803009322D160E20C9B13F0080300939E
:1037100000F05B821AE0099B0A9A9B1A5D1E002B3F
:1037200002DC08E04FF0000806990198C847013D07
:10373000B5F1FF3FF8D1B8F1000F05D00023009399
:1037400041460198C84701E0002300930E9B1BB936
:10375000002E40F0D380DCE0139B002BF8D006F164
:10376000FF38012E1ED19DF8D430302B1AD1049B86
:10377000002B40F3A2819DF89430302B40F09581CE
:1037800025AA00236FF00101CD1A01330498984255
:1037900000F0958112F8010F3028F5D088E101334F
:1037A0000E9304E09DF8D410454600230E930F9B22
:1037B0002BB315F1040F22DBAA4520DD002E0ADD14
:1037C0000DF1D30446AB9D19453D14F8011F019836
:1037D000C847A542F9D1049B002B00F374810C9BD0
:1037E00013F0200F40F07881B1E014F8011B01982C
:1037F000C847A64200F0AB80A542F6D1A7E00198E9
:10380000C847BAF1000F03DC0C9B13F0200F02D065
:103810002E210198C847B8F1000F13DD0AF1FF38D7
:10382000BAF1000F0DDD35AB1A460AF10103C6EB04
:10383000030A164616F8011F0198C847C24507D16A
:1038400000E0C2460AF1FF36BAF1000F06DC1AE0CA
:1038500008F1FF38B8F1FF3FECD114E04FF0300829
:10386000DDF838A0BAF10B0F06DC46AB534413F871
:10387000841C0AF1010A00E041460198C847013E54
:10388000B6F1FF3FEED104F0FD04652C0CBF6521BD
:103890004521002DBABF6D422D242B24019E3046B8
:1038A000C84721463046C847092D02DC302101981F
:1038B000C8470DF19300002200E00A46511CBC4BA2
:1038C00083FB0534EB17C3EBA40303EB8304A5EBE5
:1038D0004405303500F8015F1D46002BEDD100296D
:1038E00035D046AB1A44A2F1830425AD019E14F8ED
:1038F000011D3046C847AC42F9D128E035AB1E4423
:103900001D46DDF8048016F8011D4046C847AE424A
:10391000F9D104F0DF04462C19D10C9B13F0220FCF
:1039200015D02E210198C847BAF1000F0FD0544688
:10393000002530260B2D05DC46AB2B4413F8841CE8
:10394000013500E031460198C847013CF2D1009BA7
:1039500083B1099B0A9A9B1A5C1E002B0ADD06990B
:103960000198C847013CB4F1FF3FF8D102E04FF0A5
:10397000000B904F0BF10108079A02EB0B0012F8B5
:103980000B1000297FF427A800210198C8472BE1DC
:1039900025210198C847079B9844013DFFF7AEB821
:1039A000C8EB0B05002DF3DCFFF7B6B8C8EB0B0531
:1039B000002D3FF79DA8FFF7B2B8129B1B78002B94
:1039C0007FF4FBA8FFF717B9002600E00095009BE5
:1039D00013F008083FF41BA9AEE0089B073323F05F
:1039E000070303F108020892D3E90023CDE90A2373
:1039F0000121FFF7A6B9002E3FF78AA9FFF796B974
:103A0000002E3FF7B9A9FFF7CCB900230F9313930A
:103A1000009B23F020030C93DDE90A23002A73F1B5
:103A20000003BFF6DBA9FFF7CAB9009B23F0200310
:103A30000C93FFF7D3B94FF0010AFFF7B1BA22A9EF
:103A400035A8FEF78BFF421C46AB034403F8446CD9
:103A500000F1020807F108030C937021FFF704BB83
:103A600022A935A8FEF77AFF421C46AB034403F8AF
:103A7000446C00F1020807F11C030C935021FFF77E
:103A8000F3BA0095E046FFF791BB4FF02D0801E037
:103A90004FF02B08069B302B3FF42DAE0C9B13F000
:103AA000080300933FF437AE4AE600234FF0FF359A
:103AB00046AA1A4412F8841C71E6002300E0049B15
:103AC000302100256BE62E210198C84725AC049BC8
:103AD00023441E4628AD88E62E210198C84736E7C4
:103AE00008F1010146AA4244029800F00F000C9E22
:103AF000305C02F8440C029A1209039842EA007200
:103B0000000902920390C44635AA4244D0440CF105
:103B10000D0C009D43469046FFF73CBBC8EB0B05E0
:103B2000002D3EF7E5AFFEF7F7BFC8EB0B05002D04
:103B30007EF7F5AFFEF7DCBF002E7FF47DA8CDF851
:103B400020A0FFF797B8009B23F020030C930021DF
:103B500000220023CDE90A23FFF740B90F9B002B79
:103B60007FF469AF4FF0000AFFF707BADDE9020101
:103B70000B0343EA10530203029203930023DFF87E
:103B80003CC0FFF74CBB4FF0FF320B4BDDE90A01A5
:103B90001040194002460B46CDE90223412E3FF466
:103BA0003AAAE3E700950491002E3FF72AAD4AE5D3
:103BB000676666669C5E0008FFFF0F0002FCFFFF61
:103BC0000C2300E0009504933DE5099B0A9A9B1A9B
:103BD0005D1E002B3FF7A6AD00230093B6E5002E37
:103BE0003FF79AA8FFF7A2B8002047B0BDE8F08FD2
:103BF0000EB410B585B0079A019012B90270104644
:103C000009E0044608AB009301A90548FEF7D4FE7D
:103C1000019B181B013805B0BDE8104003B0704788
:103C2000A52900080FB400B583B0049A0C4B1B689B
:103C300073B122B900210846984700200AE005AB7D
:103C40000193002106480068FEF7B6FE002001E05F
:103C50004FF0FF3003B05DF804EB04B0704700BFD5
:103C6000180000200246014400200DE012F8013B3C
:103C70005840082310F0010F1ABF400880F08C0054
:103C8000C0F34700013BF5D18A42EFD1704700BF36
:103C90002DE9F84FC04B21F000469E420D468A4662
:103CA00004460FDDBD4B9E4200F3B28000F0AD80B4
:103CB000BB4BBC49BC4CBAF1000FC8BF19462046EB
:103CC000BDE8F88FB94B9E4200F3BC80A3F1DE73D0
:103CD0009E4240F3A7804FF0FF3B22462B462046F2
:103CE000294600F075FC02460B468046894600F0E6
:103CF0006FFC91A3D3E9002306460F4600F068FC51
:103D00008FA3D3E9002300F0B1FA32463B4600F01E
:103D10005FFC8DA3D3E9002300F0A8FA32463B46AE
:103D200000F056FC8AA3D3E9002300F09FFA324644
:103D30003B4600F04DFC88A3D3E9002300F096FA3F
:103D400032463B4600F044FC85A3D3E9002300F053
:103D50008DFA42464B4600F03BFC83A3D3E9002397
:103D6000804689463046394600F032FC80A3D3E9CC
:103D7000002300F079FA32463B4600F029FC7EA38E
:103D8000D3E9002300F070FA32463B4600F020FCF5
:103D90007BA3D3E9002300F067FA32463B4600F0EC
:103DA00017FC79A3D3E9002300F05EFA32463B46C4
:103DB00000F00EFCBBF1FF3F02460B4669D04046C7
:103DC000494600F053FA22462B4600F001FC784E9B
:103DD000784B4FEACB0B5E449B44DBE9002300F0B9
:103DE00043FA22462B4600F03FFA02460B46D6E93C
:103DF000000100F039FABAF1000F0446BFF65FAFD8
:103E000001F100412046BDE8F88F00283FF450AF93
:103E1000224620462B46294600F028FA0446204632
:103E2000BDE8F88F5AA3D3E9002300F01FFA00225F
:103E3000614B00F05DFE00283FF44DAF294620465F
:103E4000BDE8F88F00F0C2F85C4B04469E420D4678
:103E50002FDCA3F550239E4254DC02460B4600F0B3
:103E600005FA0022544B00F0FFF9002206460F46E7
:103E70004FF080432046294600F0F8F902460B46F1
:103E80003046394600F0CEFC4FF0000B04460D469C
:103E900023E74046494600F0E9F922462B4600F068
:103EA00097FB02460B462046294600F0DDF9044602
:103EB00005E7434B9E421ADC0022424B00F0D4F946
:103EC000002206460F463F4B2046294600F080FB65
:103ED0000022394B00F0CAF902460B4630463946FB
:103EE00000F0A0FC4FF0020B04460D46F5E602463A
:103EF0000B460020344900F095FC4FF0030B0446BC
:103F00000D46EAE600222C4B00F0AEF900220646F0
:103F10000F46294B2046294600F0A8F902460B46D9
:103F20003046394600F07EFC4FF0010B04460D464A
:103F3000D3E600BFAFF3008011DA22E33AAD903F41
:103F4000EB0D76244B7BA93F513DD0A0660DB13FD0
:103F50006E204CC5CD45B73FFF8300922449C23F38
:103F60000D5555555555D53F2F6C6A2C44B4A2BFFD
:103F70009AFDDE522DDEAD3F6D9A74AFF2B0B33FC5
:103F8000711623FEC671BC3FC4EB98999999C93F3D
:103F90009C7500883CE4377EFFFF0F440000F07FF3
:103FA000FB21F93FFB21F9BF182D4454FFFFDB3FF4
:103FB00068600008486000080000F03FFFFFF23F23
:103FC000FF7F03400000F83F0000F0BF21F00041F8
:103FD000704700BF2DE9F0478AB006460F4600F053
:103FE0004FF8DFF898A004469AF900300D460133E7
:103FF0000FD03046394600F007F950B14FF00008B5
:104000004FF000093046394642464B4600F052FD1B
:1040100020B9204629460AB0BDE8F08716499AF82B
:10402000004001220023CDE90467CDE90267019138
:104030000092089364B9CDE90689684600F00EF94C
:1040400080B1089B9BB9DDE906010AB0BDE8F087A5
:1040500042464B464046494600F0E4FB022CCDE97F
:104060000601EAD101F046FA21230360E9E701F0F5
:1040700041FA089B0360E6E7886000081C00002006
:104080002DE9F0415F4E0C46B6460E40764505469A
:1040900000F0988000290B46024674DD5FEA215E3D
:1040A0007FD0AEF2FF3EC3F313031EF0010F43F4C3
:1040B000801363D100273E4603EBD2710B444FEAD5
:1040C0006E0E520016204FF4001174189C424FEAF5
:1040D000D2754FEA420202DC1B1B66180F440138FE
:1040E00005EB43034FEA5101EFD1844620244FF002
:1040F000004109E020D003EBD275013C4FEA5101A9
:104100002B444FEA420220D09E4201EB0C05F1DA2B
:10411000002D05EB010C09DBB0469542A3EB06032D
:1041200000D9013B4646521B0844E4E7BCF1000FAE
:10413000F2DB06F10108F0E7954217D8002D05EBF8
:10414000010C49DB98460023ECE7134310D14008EB
:104150007B1003F17F5303F50013FA0703EB0E57AF
:10416000394648BF40F00040BDE8F0813346C2E721
:10417000411C35D000F001031844E8E75B0003EB75
:10418000D273520096E721F000460643ECD079BB8B
:104190008E46D30AAEF1150E5205002BF9D0DD0282
:1041A00021D4002100E001465B00DC0201F10100A6
:1041B000F9D5C0F1200422FA04F42343C1EB0E0E1A
:1041C00082406EE702460B4600F002FA2A4623467A
:1041D00000F04CF8BDE8F081BCF1000FB2DBA8E7BD
:1041E00001372046B4E720244FF0FF310020E2E7FA
:1041F00002460B4600F038F802460B4600F012FB70
:10420000B2E700BF0000F07F31F0004310B407D0E8
:10421000104AA1F58014944206D8042010BC7047BF
:1042200010B9022010BC704701F1FF41094A01F5A5
:10423000E0019142F1D9B3F5801F01D20320EDE7EF
:10424000054A934201D00020E8E7B0FA80F0400927
:10425000E4E700BFFFFFDF7F0000F07F0020704732
:1042600081F0004102E000BF83F0004330B54FEA27
:1042700041044FEA430594EA050F08BF90EA020F94
:104280001FBF54EA000C55EA020C7FEA645C7FEA27
:10429000655C00F0E2804FEA5454D4EB5555B8BF4A
:1042A0006D420CDD2C4480EA020281EA030382EABB
:1042B000000083EA010180EA020281EA0303362D4D
:1042C00088BF30BD11F0004F4FEA01314FF4801C20
:1042D0004CEA113102D0404261EB410113F0004F32
:1042E0004FEA03334CEA133302D0524263EB4303E9
:1042F00094EA050F00F0A780A4F10104D5F1200E87
:104300000DDB02FA0EFC22FA05F2801841F10001E1
:1043100003FA0EF2801843FA05F359410EE0A5F1B5
:1043200020050EF1200E012A03FA0EFC28BF4CF0E6
:10433000020C43FA05F3C01851EBE37101F000459C
:1043400007D54FF0000EDCF1000C7EEB00006EEBA9
:104350000101B1F5801F1BD3B1F5001F0CD3490833
:104360005FEA30004FEA3C0C04F101044FEA44528A
:1043700012F5800F80F09A80BCF1004F08BF5FEA11
:10438000500C50F1000041EB045141EA050130BDF1
:104390005FEA4C0C404141EB010111F4801FA4F194
:1043A0000104E9D191F0000F04BF01460020B1FAE9
:1043B00081F308BF2033A3F10B03B3F120020CDA21
:1043C0000C3208DD02F1140CC2F10C0201FA0CF0FF
:1043D00021FA02F10CE002F11402D8BFC2F1200C64
:1043E00001FA02F120FA0CFCDCBF41EA0C0190401A
:1043F000E41AA2BF01EB0451294330BD6FEA040463
:104400001F3C1CDA0C340EDC04F11404C4F120024D
:1044100020FA04F001FA02F340EA030021FA04F35F
:1044200045EA030130BDC4F10C04C4F1200220FAB6
:1044300002F001FA04F340EA0300294630BD21FAF4
:1044400004F0294630BD94F0000F83F4801306BFBA
:1044500081F480110134013D4EE77FEA645C18BFAE
:104460007FEA655C29D094EA050F08BF90EA020F45
:1044700005D054EA000C04BF1946104630BD91EA3D
:10448000030F1EBF0021002030BD5FEA545C05D140
:104490004000494128BF41F0004130BD14F580047F
:1044A0003CBF01F5801130BD01F0004545F0FE41F3
:1044B00041F470014FF0000030BD7FEA645C1ABF28
:1044C000194610467FEA655C1CBF0B46024650EA5F
:1044D000013406BF52EA033591EA030F41F400218B
:1044E00030BD00BF90F0000F04BF0021704730B511
:1044F0004FF4806404F132044FF000054FF00001E6
:1045000050E700BF90F0000F04BF0021704730B5A6
:104510004FF4806404F1320410F0004548BF40427B
:104520004FF000013EE700BF42004FEAE2014FEAD0
:1045300031014FEA02701FBF12F07F4393F07F4FAB
:1045400081F06051704792F0000F14BF93F07F4FDD
:10455000704730B54FF4607401F0004521F0004120
:1045600020E700BF50EA010208BF704730B54FF0A6
:1045700000050AE050EA010208BF704730B511F0AB
:10458000004502D5404261EB41014FF4806404F1E3
:1045900032045FEA915C3FF4DCAE4FF003025FEA65
:1045A000DC0C18BF03325FEADC0C18BF033202EBED
:1045B000DC02C2F1200300FA03FC20FA02F001FA47
:1045C00003FE40EA0E0021FA02F11444C1E600BFE6
:1045D00070B54FF0FF0C4CF4E06C1CEA11541DBF99
:1045E0001CEA135594EA0C0F95EA0C0F00F0DEF864
:1045F0002C4481EA030621EA4C5123EA4C5350EA49
:10460000013518BF52EA033541F4801143F4801399
:1046100038D0A0FB02CE4FF00005E1FB02E506F02A
:104620000042E0FB03E54FF00006E1FB03569CF07F
:10463000000F18BF4EF0010EA4F1FF04B6F5007F85
:1046400064F5407404D25FEA4E0E6D4146EB0606F7
:1046500042EAC62141EA55514FEAC52040EA5E5080
:104660004FEACE2EB4F1FD0C88BFBCF5E06F1ED82A
:10467000BEF1004F08BF5FEA500E50F1000041EB61
:10468000045170BD06F0004646EA010140EA02000E
:1046900081EA0301B4EB5C04C2BFD4EB0C0541EA30
:1046A000045170BD41F480114FF0000E013C00F345
:1046B000AB8014F1360FDEBF002001F0004170BD69
:1046C000C4F10004203C35DA0C341BDC04F1140482
:1046D000C4F1200500FA05F320FA04F001FA05F20E
:1046E00040EA020001F0004221F0004110EBD370DB
:1046F00021FA04F642EB06015EEA430E08BF20EA07
:10470000D37070BDC4F10C04C4F1200500FA04F3A9
:1047100020FA05F001FA04F240EA020001F000413B
:1047200010EBD37041F100015EEA430E08BF20EAAE
:10473000D37070BDC4F1200500FA05F24EEA020EF6
:1047400020FA04F301FA05F243EA020321FA04F025
:1047500001F0004121FA04F220EA020000EBD370DC
:104760005EEA430E08BF20EAD37070BD94F0000FDC
:104770000FD101F00046400041EB010111F4801F10
:1047800008BF013CF7D041EA060195F0000F18BFC1
:10479000704703F00046520043EB030313F4801FFD
:1047A00008BF013DF7D043EA0603704794EA0C0FB7
:1047B0000CEA135518BF95EA0C0F0CD050EA4106CD
:1047C00018BF52EA4306D1D181EA030101F000414A
:1047D0004FF0000070BD50EA410606BF1046194672
:1047E00052EA430619D094EA0C0F02D150EA01367E
:1047F00013D195EA0C0F05D152EA03361CBF1046BF
:1048000019460AD181EA030101F0004141F0FE415D
:1048100041F470014FF0000070BD41F0FE4141F4E1
:10482000780170BD70B54FF0FF0C4CF4E06C1CEAE1
:1048300011541DBF1CEA135594EA0C0F95EA0C0F96
:1048400000F0A7F8A4EB050481EA030E52EA033551
:104850004FEA013100F088804FEA03334FF0805572
:1048600045EA131343EA12634FEA022245EA11159F
:1048700045EA10654FEA00260EF000419D4208BF50
:10488000964244F1FD0404F5407402D25B084FEAFD
:104890003202B61A65EB03055B084FEA32024FF4A9
:1048A00080104FF4002CB6EB020E75EB030E22BF06
:1048B000B61A754640EA0C005B084FEA3202B6EBC6
:1048C000020E75EB030E22BFB61A754640EA5C0075
:1048D0005B084FEA3202B6EB020E75EB030E22BF05
:1048E000B61A754640EA9C005B084FEA3202B6EB06
:1048F000020E75EB030E22BFB61A754640EADC00C5
:1049000055EA060E18D04FEA051545EA16754FEA26
:1049100006164FEAC30343EA52734FEAC2025FEA44
:104920001C1CC0D111F4801F0BD141EA00014FF0D3
:1049300000004FF0004CB6E711F4801F04BF0143A4
:104940000020B4F1FD0C88BFBCF5E06F3FF6AFAEC0
:10495000B5EB030C04BFB6EB020C5FEA500C50F150
:10496000000041EB045170BD0EF0004E4EEA1131D3
:1049700014EB5C04C2BFD4EB0C0541EA045170BDDA
:1049800041F480114FF0000E013C90E645EA060E1E
:104990008DE60CEA135594EA0C0F08BF95EA0C0F4C
:1049A0003FF43BAF94EA0C0F0AD150EA01347FF494
:1049B00034AF95EA0C0F7FF425AF104619462CE76B
:1049C00095EA0C0F06D152EA03353FF4FDAE1046CE
:1049D000194622E750EA410618BF52EA43067FF41F
:1049E000C5AE50EA41047FF40DAF52EA43057FF4AF
:1049F000EBAE12E74FF0FF3C06E000BF4FF0010CBA
:104A000002E000BF4FF0010C4DF804CD4FEA410C1D
:104A10007FEA6C5C4FEA430C18BF7FEA6C5C1BD0EA
:104A200001B050EA410C0CBF52EA430C91EA030F6B
:104A300002BF90EA020F0020704710F1000F91EAC8
:104A4000030F58BF994208BF90422CBFD8176FEA96
:104A5000E37040F0010070474FEA410C7FEA6C5C64
:104A600002D150EA013C07D14FEA430C7FEA6C5C6B
:104A7000D6D152EA033CD3D05DF8040B704700BF97
:104A80008446104662468C461946634600E000BFE5
:104A900001B5FFF7B7FF002848BF10F1000F01BDB7
:104AA0004DF808EDFFF7F4FF0CBF012000205DF882
:104AB00008FB00BF4DF808EDFFF7EAFF34BF012007
:104AC00000205DF808FB00BF4DF808EDFFF7E0FFA0
:104AD00094BF012000205DF808FB00BF4DF808EDF1
:104AE000FFF7CEFF94BF012000205DF808FB00BF58
:104AF0004DF808EDFFF7C4FF34BF012000205DF83A
:104B000008FB00BF4A0011D212F5001211D20DD5D8
:104B10006FF47873B3EB62520ED44FEAC12343F0C3
:104B2000004343EA505323FA02F070474FF000006D
:104B3000704750EA013002D14FF0FF3070474FF01C
:104B4000000070474FEA4102B2F1E04324BFB3F5E1
:104B5000001CDCF1FE5C0DD901F0004C4FEAC002F4
:104B60004CEA5070B2F1004F40EB830008BF20F0D8
:104B70000100704711F0804F21D113F13872BCBF92
:104B800001F00040704741F480114FEA5252C2F1E7
:104B90001802C2F1200C10FA0CF320FA02F018BF30
:104BA00040F001004FEAC1234FEAD32303FA0CFC83
:104BB00040EA0C0023FA02F34FEA4303CCE77FEA12
:104BC000625307D150EA01331EBF4FF0FE4040F45C
:104BD0004000704701F0004040F0FE4040F400000B
:104BE000704700BF80F0004002E000BF81F000414C
:104BF00042001FBF5FEA410392EA030F7FEA226C83
:104C00007FEA236C6AD04FEA1262D2EB1363C1BF12
:104C1000D218414048404140B8BF5B42192B88BF81
:104C2000704710F0004F40F4000020F07F4018BFA4
:104C3000404211F0004F41F4000121F07F4118BFC4
:104C4000494292EA030F3FD0A2F1010241FA03FC6C
:104C500010EB0C00C3F1200301FA03F100F0004354
:104C600002D5494260EB4000B0F5000F13D3B0F11C
:104C7000807F06D340084FEA310102F10102FE2A8B
:104C800051D2B1F1004F40EBC25008BF20F00100FB
:104C900040EA03007047490040EB000010F4000FA9
:104CA000A2F10102EDD1B0FA80FCACF1080CB2EB3C
:104CB0000C0200FA0CF0AABF00EBC250524218439B
:104CC000BCBFD0401843704792F0000F81F4000140
:104CD00006BF80F400000132013BB5E74FEA410313
:104CE0007FEA226C18BF7FEA236C21D092EA030F7F
:104CF00004D092F0000F08BF0846704790EA010FF9
:104D00001CBF0020704712F07F4F04D1400028BF25
:104D100040F00040704712F100723CBF00F5000007
:104D2000704700F0004343F0FE4040F4000070473D
:104D30007FEA226216BF08467FEA236301464202E9
:104D400006BF5FEA412390EA010F40F480007047FC
:104D50004FF0000304E000BF10F0004348BF4042A2
:104D60005FEA000C08BF704743F0964301464FF0DE
:104D700000001CE050EA010208BF70474FF000033A
:104D80000AE000BF50EA010208BF704711F000437B
:104D900002D5404261EB41015FEA010C02BF84464B
:104DA0000146002043F0B64308BFA3F18053A3F5AA
:104DB0000003BCFA8CF2083AA3EBC25310DB01FAF1
:104DC00002FC634400FA02FCC2F12002BCF1004F75
:104DD00020FA02F243EB020008BF20F00100704706
:104DE00002F1200201FA02FCC2F1200250EA4C005A
:104DF00021FA02F243EB020008BF20EADC707047A0
:104E00004FF0FF0C1CEAD0521EBF1CEAD15392EAAD
:104E10000C0F93EA0C0F6FD01A4480EA010C400289
:104E200018BF5FEA41211ED04FF0006343EA5010E3
:104E300043EA5111A0FB01310CF00040B1F5000F25
:104E40003EBF490041EAD3715B0040EA010062F1D4
:104E50007F02FD2A1DD8B3F1004F40EBC25008BFBE
:104E600020F00100704790F0000F0CF0004C08BFDC
:104E700049024CEA502040EA51207F3AC2BFD2F1A9
:104E8000FF0340EAC250704740F400004FF00003B7
:104E9000013A5DDC12F1190FDCBF00F000407047F1
:104EA000C2F10002410021FA02F1C2F1200200FA2F
:104EB00002FC5FEA310040F1000053EA4C0308BFF6
:104EC00020EADC70704792F0000F00F0004C02BF47
:104ED000400010F4000F013AF9D040EA0C0093F0C2
:104EE000000F01F0004C02BF490011F4000F013B1C
:104EF000F9D041EA0C018FE70CEAD15392EA0C0F8A
:104F000018BF93EA0C0F0AD030F0004C18BF31F0F4
:104F1000004CD8D180EA010000F00040704790F0CA
:104F2000000F17BF90F0004F084691F0000F91F06E
:104F3000004F14D092EA0C0F01D142020FD193EA34
:104F40000C0F03D14B0218BF084608D180EA0100BC
:104F500000F0004040F0FE4040F40000704740F098
:104F6000FE4040F4400070474FF0FF0C1CEAD05266
:104F70001EBF1CEAD15392EA0C0F93EA0C0F69D0C2
:104F8000A2EB030280EA010C49024FEA402037D02D
:104F90004FF0805343EA111143EA10130CF0004024
:104FA0008B4238BF5B0042F17D024FF4000C8B4214
:104FB00024BF5B1A40EA0C00B3EB510F24BFA3EBF4
:104FC000510340EA5C00B3EB910F24BFA3EB9103C4
:104FD00040EA9C00B3EBD10F24BFA3EBD10340EA1E
:104FE000DC001B0118BF5FEA1C1CE0D1FD2A3FF664
:104FF00050AF8B4240EBC25008BF20F00100704719
:105000000CF0004C4CEA50207F32C2BFD2F1FF03BB
:1050100040EAC250704740F400004FF00003013AEC
:1050200037E792F0000F00F0004C02BF400010F490
:10503000000F013AF9D040EA0C0093F0000F01F0A4
:10504000004C02BF490011F4000F013BF9D041EAC6
:105050000C0195E70CEAD15392EA0C0F08D14202F9
:105060007FF47DAF93EA0C0F7FF470AF084676E7CC
:1050700093EA0C0F04D14B023FF44CAF08466EE7A5
:1050800030F0004C18BF31F0004CCAD130F0004273
:105090007FF45CAF31F000437FF43CAF5FE700BFCB
:1050A0004FF0FF3C06E000BF4FF0010C02E000BFF4
:1050B0004FF0010C4DF804CD4FEA40024FEA410396
:1050C0007FEA226C18BF7FEA236C11D001B052EA4C
:1050D000530C18BF90EA010F58BFB2EB030088BF12
:1050E000C81738BF6FEAE17018BF40F00100704781
:1050F0007FEA226C02D15FEA402C05D17FEA236C63
:10510000E4D15FEA412CE1D05DF8040B704700BFA9
:10511000844608466146FFE70FB5FFF7C9FF002840
:1051200048BF10F1000F0FBD4DF808EDFFF7F4FF79
:105130000CBF012000205DF808FB00BF4DF808ED12
:10514000FFF7EAFF34BF012000205DF808FB00BF35
:105150004DF808EDFFF7E0FF94BF012000205DF857
:1051600008FB00BF4DF808EDFFF7D2FF94BF012008
:1051700000205DF808FB00BF4DF808EDFFF7C8FF01
:1051800034BF012000205DF808FB00BF42000ED2B2
:10519000B2F1FE4F0BD34FF09E03B3EB126209D472
:1051A0004FEA002343F0004323FA02F070474FF028
:1051B0000000704712F1610F01D1420202D14FF09D
:1051C000FF3070474FF00000704700BF53B94AB935
:1051D000002908BF00281CBF4FF0FF314FF0FF30FF
:1051E00000F082B9ADF1080C6DE904CE00F006F8CC
:1051F000DDF804E0DDE9022304B070472DE9F04F4B
:105200008C460C460546099E002B4FD18A42174614
:105210006BD9B2FA82FEBEF1000F0BD0CEF12005A1
:1052200020FA05F501FA0EF345EA030C02FA0EF72F
:1052300000FA0EF5390CBCFBF1F0BAB201FB10C359
:1052400000FB02F84FEA154C4CEA0344A04509D98B
:10525000E41900F1FF3380F02881A04540F2258158
:1052600002383C44C8EB0404B4FBF1F301FB134CDB
:1052700003FB02F2ACB244EA0C418A4209D9C919D3
:1052800003F1FF3480F00F818A4240F20C81023B2F
:1052900039448A1A43EA00400021002E63D022FAE2
:1052A0000EF2002386E80C00BDE8F08F8B4207D990
:1052B000002E56D0002186E811000846BDE8F08F88
:1052C000B3FA83F1002940F09380A34202D38242D3
:1052D00000F2FE80851A64EB03039C460120002E39
:1052E00041D086E82010BDE8F08F12B90127B7FB46
:1052F000F2F7B7FA87FEBEF1000F36D1E41B4FEA92
:1053000017481FFA87F90121B4FBF8F308FB13448F
:1053100009FB03F24FEA154C4CEA0444A24207D9B8
:10532000E41903F1FF3002D2A24200F2D380034617
:10533000A41AB4FBF8F008FB104809FB00F9ACB262
:1053400044EA0842914507D9D21900F1FF3402D24C
:10535000914500F2BA802046C9EB020240EA0340C0
:105360009BE731463046BDE8F08F07FA0EF7CEF1E5
:10537000200C24FA0CF34FEA1748B3FBF8FA1FFA93
:1053800087F908FB1A3520FA0CFC04FA0EF40AFB24
:1053900009FB4CEA040C4FEA1C4242EA05439B45D8
:1053A00000FA0EF50AD9DB190AF1FF3280F08B8082
:1053B0009B4540F28880AAF1020A3B44CBEB0303F1
:1053C000B3FBF8F008FB103300FB09F41FFA8CFC68
:1053D0004CEA03439C4207D9DB1900F1FF326ED23D
:1053E0009C426CD902383B441C1B40EA0A418BE7C3
:1053F000C1F1200E8B4022FA0EFC4CEA030C24FA79
:105400000EF74FEA1C49B7FBF9FA1FFA8CF309FBB8
:105410001A7720FA0EF88C400AFB03F548EA0404D8
:105420004FEA144848EA0747BD4202FA01F200FA7F
:1054300001FB09D917EB0C070AF1FF3041D2BD423D
:105440003FD9AAF1020A67447F1BB7FBF9F509FBB4
:10545000157705FB03F3A4B244EA0747BB4208D91A
:1054600017EB0C0705F1FF3027D2BB4225D9023DCF
:10547000674445EA0A40A0FB0289FF1A4F454546AA
:105480004C4614D329D066B3BBEB050367EB040786
:1054900007FA0EFECB40CF404EEA030386E88800B1
:1054A0000021BDE8F08F2346F3E61846DAE6B8EBB4
:1054B000020569EB0C040138E5E70546D9E710461B
:1054C00092E78246C0E7924678E702383A4443E7DB
:1054D000084604E7023B3C442AE7C345E7D33C4681
:1054E000D1E73146BDE8F08F704700BF0A220021A6
:1054F00000F01CBA014B1868704700BF4804002038
:10550000032A70B426D940EA01039B0711D004781E
:105510000D78AC4222D10244431C05E013F8014B44
:1055200011F8015FAC4219D19342F7D1002070BC51
:1055300070470C4603461E6825681846AE42214651
:1055400003F1040304F10404E1D1043A032A1846E8
:105550002146F0D8002ADAD11046E8E7601B70BC7B
:10556000704700BF844641EA000313F0030349D1AA
:10557000403A23D30B6803604B6843608B688360B9
:10558000CB68C3600B6903614B6943618B698361BD
:10559000CB69C3610B6A03624B6A43628B6A8362A5
:1055A000CB6AC3620B6B03634B6B43638B6B83638D
:1055B000CB6BC36340304031403ADBD230320BD347
:1055C0000B6803604B6843608B688360CB68C36083
:1055D00010301031103AF3D20C3205D351F8043B9D
:1055E00040F8043B043AF9D2043208D0D2071CBF79
:1055F00011F8013B00F8013B01D30B8803806046A2
:10560000704700BF082A13D38B07B1D010F00303F3
:10561000AED0C3F10403D21ADB071CBF11F8013B63
:1056200000F8013BA4D331F8023B20F8023B9FE78E
:10563000043AD9D3013A11F8013B00F8013BF9D201
:105640000B7803704B7843708B788370604670479B
:1056500070B4840746D0541E002A41D0CDB2034610
:1056600002E0621EE4B3144603F8015B9A07F8D126
:10567000032C2ED9CDB245EA05250F2C45EA054568
:1056800019D9264603F11002103E0F2E42F8105C85
:1056900042F80C5C42F8085C42F8045C02F110022B
:1056A000F2D8A4F1100222F00F0204F00F0410321D
:1056B000032C13440DD91E462246043A032A46F809
:1056C000045BFAD8221F22F003020432134404F0D0
:1056D00003042CB1C9B21C4403F8011BA342FBD143
:1056E00070BC704714460346C2E700BF80EA01025F
:1056F000844612F0030F4FD111F0030F32D14DF851
:10570000044D11F0040F51F8043B0BD0A3F101320A
:105710009A4312F0803F04BF4CF8043B51F8043B1D
:1057200016D100BF51F8044BA3F101329A4312F095
:10573000803FA4F101320BD14CF8043BA24312F09C
:10574000803F04BF51F8043B4CF8044BEAD0234699
:105750000CF8013B13F0FF0F4FEA3323F8D15DF84B
:10576000044B704711F0010F06D011F8012B0CF813
:10577000012B002A08BF704711F0020FBFD031F88B
:10578000022B12F0FF0F16BF2CF8022B8CF8002012
:1057900012F47F4FB3D1704711F8012B0CF8012B95
:1057A000002AF9D1704700BF20F0030110F0030078
:1057B000C0F1000051F8043B00F1040C4FEACC0C9E
:1057C0006FF000021CBF22FA0CF213434FF0010CE1
:1057D0004CEA0C2C4CEA0C4CA3EB0C0222EA030220
:1057E00012EACC1204BF51F8043B0430F4D0C2F1E9
:1057F000000102EA0102B2FA82F2C2F11F0200EBDA
:10580000D20070472DE9F04F474C83460E46D4F83E
:1058100000E000E02646344614F8015B0EEB05007C
:10582000407800F0080000F0FF080028F2D12D2D8C
:105830005CD02B2D04BF7578B41C002B3ED0102BF0
:1058400060D09A46B8F1000F0CBF6FF000404FF0E7
:105850000040B0FBFAF90027BC460AFB19000CE037
:10586000303DAB4219DD7E1C05D0CC4523D820D07D
:105870000AFB0C5C012714F8015B0EEB0506767839
:1058800016F0040FECD116F0030606D0012E14BF5B
:1058900057263726AD1BAB42E5DC7B1C16D0B8F192
:1058A000000F10D16046002A39D0DFB91160BDE881
:1058B000F08F8542DCDD4FF0FF37DCE7302D1AD06A
:1058C0000A239A46BEE7CCF1000CEBE7B8F1000FD3
:1058D0004FF022030CBF6FF000404FF00040CBF8B8
:1058E0000030F2B1611E1160BDE8F08FB41C757814
:1058F0004FF00108A1E7237803F0DF03582B08D00D
:1059000008239EE7302D9CD1207800F0DF00582836
:1059100097D14FF0100A65785346023492E7BDE8FC
:10592000F08FBDE8F08F00BF4C04002010B4044C91
:1059300013460A460146206810BCFFF763BF00BF4C
:105940004804002000000000A086010000000000C4
:105950000000000000000000502025362E31662097
:1059600025362E31660A0000446576696365206934
:105970006E666F3A0A435055203A20257520487AC2
:105980000A554152543A202575206270730A4932F3
:1059900043203A202575206270730A53656E733A6E
:1059A0002025752072642F730A4D61696E3A202597
:1059B00075206379632F730A0A00000055700A008E
:1059C000446F776E0A0000005363616E20312D57DB
:1059D0006972652F493243206275732E2E2E0A2577
:1059E0007325735363616E20636F6D706C657465AE
:1059F000640A0A00476574206779726F206F6666D3
:105A0000736574732E2E2E0A00000000474F464621
:105A10002025692C2025692C2025690A000000001A
:105A200047657420616363656C206F666673657497
:105A3000732E2E2E0A000000414F46462025692C69
:105A40002025692C2025690A0000000000000900BB
:105A50000000000000000000E80300000101000851
:105A6000080468000000000000004731000000004A
:105A70000000000000000000000000000000000026
:105A8000102700000F0000000000000001080000C7
:105A900000C20100000000009D010008000002009B
:105AA00000081018000080460000004600008045F5
:105AB000000000456F1203436F1283426F120342CE
:105AC0006F1283412573000058723D25362E3166D2
:105AD0002C2059723D25362E316600000008101822
