:1000000000800020C100000019010000190100005B
:1000100000000000000000000000000000000000E0
:1000200000000000000000000000000019010000B6
:1000300000000000000000001901000095310000E0
:100040001901000019010000190100001901000048
:10005000190100001901000085490000B1490000A4
:100060001901000019010000190100008932000087
:10007000190100006D300000F52F00001D30000058
:1000800045300000190100001901000019010000AD
:1000900019010000190100001901000019010000F8
:1000A00019010000000000000000000039350000C8
:1000B00019010000190100001901000019010000D8
:1000C0000D490E4A0E4B00F00FF80E490E4A0F4B29
:1000D00000F00AF80E490F4A0020521A02DD043AD5
:1000E0008850FCDC00F022FA9B1A03DD043BC85860
:1000F000D050FBDC704700007CC1000000000020F5
:10010000C804002044C60000000010200000102099
:10011000C8040020600E0020FEE7C0461B4B1B6891
:10012000002B03D0194A1368013B1360184B1B685E
:10013000002B03D0164A1368013B1360154A13685D
:100140000133136014490A6801320A60FA229200EE
:10015000934219D1114A124B1168196000231360A0
:100160000C4A13600F4A136801331360DB0706D58E
:100170000D4A1368802149000B43136004E00A4ACA
:1001800011680A4B0B4013607047C046C80400203A
:1001900080090020CC040020FC0C0020F804002082
:1001A000D0040020FC04002000000C40FFFEFFFFF4
:1001B000F0B5474680B488B0102204A9002004F0AE
:1001C0009DFB061E00DC8FE00024494F3B000133FD
:1001D000984604ABE55C642D0DD1454B1B78002B94
:1001E0001AD1434864330370002343700AF0B0FD12
:1001F000132822D874E02B00303B092B01D92E2D77
:100200000AD13B480AF0A4FD00280DDD384B1D54EF
:1002100018180023437007E03548002303700AF0E4
:1002200097FD13285AD85BE031480AF091FD132856
:1002300056D92F4B1B78642B50D12D4B5B792E2B2D
:100240004CD12B4B1B7A2E2B48D1294BDB7A2E2BF2
:1002500044D1274B9B7B2E2B40D1254B5B7C2E2BF7
:100260003CD140460AF0B4FC02ADE880204B981D1A
:100270000AF0AEFC68711E4809300AF0A9FC28712A
:100280001B480C300AF0A4FCE87019480F300AF043
:100290009FFCA870164812300AF09AFC80B22880A1
:1002A000EA88144B9A4219D902AB5B79013B0B2BBC
:1002B00014D802AB1B79013B1E2B0FD802ABDB78A5
:1002C000172B0BD802AB9B783B2B07D83B2805D8C4
:1002D00001A902A805F0DAFD03F01AF900233B702A
:1002E0000134A64200D074E708B004BC9046F0BDCB
:1002F000D8040020E207000010B5002002F0B4FF8F
:10030000002802D0054805F033FD002002F0B4FFBC
:10031000002802D0024805F02BFD10BD48AF0000B8
:1003200054AF0000F0B55F4656464D464446F0B423
:100330006D4CA5446D4B1A686D4B934303D100225D
:100340006C4B1A60C6E06B4A1268934204D16A4A49
:100350001268002A00D0BDE0C821674A1160654AD2
:10036000136080229200934215D006D8202B57D0DC
:10037000013AFF3A934234D0ACE08022120193421A
:1003800072D080221202934234D08022D200934253
:1003900000D09FE036E002F0B5FB0400002004F03E
:1003A000CBF80500002003F07FF90300534A1268E0
:1003B00000922A002100524805F0DAFC514A1368E5
:1003C00001331360DB0706D54F4A1368802189008B
:1003D0000B4313607EE04C4A11684C4B0B4013609A
:1003E00078E0022149424A4806F08EFE002001F0E2
:1003F00069FF6FE00221464806F086FE002001F00A
:1004000061FF67E000210CA801F0F0FB002170A85B
:1004100001F02AFD70AA0CA93E4805F0A9FC59E09C
:100420003D4805F0A5FC3D4B186800F0BFFC2022BC
:10043000002170A80AF03EFC0123009370AB3A2221
:100440006821002001F0B8FB010070AC63782278CD
:100450006079039020790290E0780190A078009074
:100460002F4805F085FC35E00E2170A801F0A2FDB3
:1004700004000B9001002B4805F07AFC002C29DDCC
:1004800070AC0025A3780993E1780A912679677901
:10049000A0798046E0798146207A8246607A834658
:1004A000207801F059FA21000A310690584605904B
:1004B00050460490484603904046029001970096AB
:1004C0000A9B099A184805F053FC01351C340B9B14
:1004D000AB42D7D1D5239B009D443CBC9046994666
:1004E000A246AB46F0BDC046ACFCFFFF00800C400E
:1004F000208F0000D4040020C8040020D004002075
:1005000060AF00000005002000000C40FFFDFFFF71
:100510006C0D0020A4AF0000D0AF00007C090020CB
:10052000D8AF000000B0000010B0000010B500F01F
:1005300019F8044CFFF7F6FE01F0FEFF23680133C3
:100540002360F7E7F804002000B583B06B46D9714B
:10055000002905D001226B46D91D002004F0EEF9D8
:1005600003B000BD10B588B00121434802F074F912
:10057000002300224149042002F042FB20230022F4
:10058000FF21C901032002F03BFB3D4802F082FD40
:100590003C4802F085FC0121002002F06DFC3A4B42
:1005A0001A681B689B1A312B05D83749C0460B685F
:1005B0009B1A312BFAD9002002F0FCFB334802F0E1
:1005C000D7FE02F09FFA05F061FD314A314B1A6007
:1005D000314804F045F80121002004F027F82F48A5
:1005E00003F008F82E4803F00DFC2E4802F0DCFD65
:1005F0000121002002F0A4FD0121002002F024FED0
:100600000121002003F04EF80121002003F062FCDC
:100610000121002002F06CFF012005F05DFDC020EB
:10062000C00505F0BDFDBE2189001F4801F0D6F9C7
:100630001E4C002306934422FF32059204931C4A69
:1006400003920422029210320192009300220421AC
:10065000200006F0DBFD174B6363FA239B00A363C6
:10066000012001F02FFE144A116880230B43136010
:10067000002008B010BDC04600B4C404208F0000A4
:100680003CB0000014B20000FC0C002004B20000DA
:100690004905000048000020E8B100004CB000000F
:1006A00020B20000FCB1000060B000006C0D002022
:1006B000FFFFFF000405002000000C4000B583B0E0
:1006C0008022426101A903689B785B000B70402384
:1006D0004B708A707D3A002002F0F2FF032800D1AF
:1006E000002003B000BDC04630B583B005004469AA
:1006F00001A903689B785B000B7040234B708C70E2
:100700000322002002F0DCFF032815D1FF22130092
:100710002340240A144006D0053B9BB27F2B07D808
:100720000024802304E00533FF2B01D90124FF239B
:1007300024021C436C61002003B030BD30B583B08F
:10074000150003689B785B00DBB201AC23700322C9
:1007500011404022114361704269A270012213438B
:100760006A46137003222100002002F0A9FF03282B
:100770000BD102226946002003F0F8F8022804D1C8
:100780006B465B782B70002001E000232B7003B0D8
:1007900030BDC04610B582B004006B46DA1D0021A2
:1007A000FFF7CCFF002827D16B469A1D01212000BE
:1007B000FFF7C4FF00281FD16B465A1D02212000FD
:1007C000FFF7BCFF002817D101AA03212000FFF783
:1007D000B5FF002810D16A46073212781202694626
:1007E000063109780A43E2606A460532127812023D
:1007F00001A909780A43226102B010BD70B5040056
:100800000D00382200210AF055FA2560044BA3623E
:10081000044BE362044B2363044B636370BDC04627
:10082000BD060000E9060000950700006908000009
:1008300010B5407B08F01AFA10BDC04610B5407CD8
:1008400008F014FA10BDC04610B5007CFF23181A3A
:100850009B3B5843001208F0C1F9024907F038FDEC
:1008600010BDC04600002041F0B58BB006000C0062
:10087000C5686B1C07D101F031F90200174920004F
:1008800005F05AFA27E0FFF7D3FF071C3000FFF707
:10089000D5FF07903000FFF7D7FF061C381C09F082
:1008A000AFFF08900991301C09F0AAFF0490059150
:1008B000079809F0A5FF02900391FF20284008F057
:1008C000D5F909F09DFF00900191089A099B044910
:1008D000200005F031FA20000BB0F0BD28B2000076
:1008E00040B200000020704700B583B001A9036842
:1008F0009B785B000B7010234B700222002002F0EB
:10090000DFFE022800D1002003B000BD10B582B088
:10091000040001A903689B785B00012213430B705C
:100920000222002003F022F802280CD101AA137839
:100930001B0252781343E360044A934201D0002023
:1009400001E00320404202B010BDC046FFFF00009E
:1009500010B50C00C3685A1C07D101F0BFF80200A3
:100960000A49200005F0E8F90DE0180008F07EF9CA
:10097000074907F0ADFC09F043FF02000B000549F1
:10098000200005F0D9F9200010BDC0467CB200005F
:100990009A99993F80B2000070B504000D0038228A
:1009A00000210AF087F92560044BA362044BE3623F
:1009B000044B2363044B636370BDC046E908000029
:1009C000E50800000D0900005109000000207047F3
:1009D00070B58CB00500026851780B1C052900D950
:1009E0000523DBB29B0024495C5896780AA9730062
:1009F0000B70F5234B7063788B70F423CB702378E6
:100A00000B710522002002F05BFE031E052B31D185
:100A1000033B009302ABF4223100002001F0CCF83C
:100A2000022827D102AB1A7823789A421DD102AB53
:100A30005A7863789A421BD11823009302AB88221C
:100A40003100002001F0B8F8182813D12B689B78EA
:100A5000DB0701D4094900E0094902AB0A0013CBC6
:100A600013C213CB13C2002004E00320404201E074
:100A7000032040420CB070BD94B200004009002039
:100A80005809002070B584B0040003689B785B00AF
:100A9000DBB203A90B700122134301AA1370F723E1
:100AA0004B700222002002F00BFE02282CD10622FD
:100AB00001A9002002F05AFF062825D101ADA8782F
:100AC0006979EA7812042B791B021A430A432B78BE
:100AD0001E046B781B02334303431B09E3601209B6
:100AE00022610143090707D1802109038B4206D007
:100AF0008A4207D0002007E00320404204E00320A0
:100B0000404201E00320404204B070BD70B50400D3
:100B10000D00382200210AF0CDF82560044BA362B5
:100B2000044BE362044B2363044B636370BDC04614
:100B3000D1090000CD090000850A0000490D000020
:100B400010B502880B119B1AC9105200891A022491
:100B5000025F5143C9125B431B130422825E53435D
:100B60009B13C81810BDC046F0B557464E464546C3
:100B7000E0B484B0804603921C00FFF7E1FF002C34
:100B800004D083001B1880331B1223600200C3179C
:100B9000514E01277F42B6185F4132003B003000C2
:100BA000390007F0E1F80090019143460820185EF3
:100BB000C11732003B0007F0D7F8030D0D031D43AA
:100BC000040343460A20185EC117009A019B07F0F0
:100BD000CBF80B069946020A484602430B12A418AA
:100BE0005D41002080210902001969414346DA88ED
:100BF000002307F0B9F84B109A46CB179946534695
:100C000049460B430020002B5FD043461020185E5E
:100C1000C117009A019B07F0A7F804000D00434696
:100C20000E20185EC11732003B0007F09DF8C60B7E
:100C30004B0433434204A4185D4180235B03039AB1
:100C40009B1ADE175A08F1071143D80743460C26B2
:100C50009E5F0022F300A4185D41001BA9411F4ABA
:100C6000002307F081F852464B4607F039F804009C
:100C70000D00CB04470B1F434E1343461620185E4E
:100C8000C1173A00330007F06FF83A00330007F05D
:100C90006BF8CB01460E1E434F1636196F41434683
:100CA0001420185EC11722002B0007F05DF84C03DA
:100CB000C20C2243CB14B6185F413B06300A1843DE
:100CC000434612229A5E1301181804B01CBC9046C9
:100CD0009946A246F0BDC046000CFEFF350C000050
:100CE00070B582B003000D0002689278D20701D47B
:100CF000124800E01248DA68196901ABFFF734FFC7
:100D00000400000A07F0B2FF061CFF20204007F095
:100D1000ADFFEE21890507F0A5FC311C07F062F953
:100D2000041C002D06D0019807F058FF054907F074
:100D3000CFFA2860201C02B070BDC04640090020D8
:100D4000580900200000C842F0B587B00C00C36805
:100D5000013307D100F0C2FE02001149200004F067
:100D6000EBFF1AE005A9FFF7BBFF051C09F048FDE2
:100D700006000F00059809F043FD02900391094910
:100D8000281C07F06FFC09F03BFD00900191320038
:100D90003B000549200004F0CFFF200007B0F0BD64
:100DA000B0B20000F3CAF53BC0B200000023024A13
:100DB0001360024A13607047700900207409002014
:100DC00030B583B0002802D0C368013306D10023B8
:100DD0001C4A13601C4A1360002030E001A9FFF791
:100DE0007FFF1A4907F03EFC07F0D6FE0500154BC1
:100DF0001C68200007F0F2FE002106F043FF0028E7
:100E000008D0104B1D60019807F0C6FE0E4B18600D
:100E1000002014E00C4B18680D4B58431221FF3191
:100E200006F0FAFD0A4B9C466044631B584329199F
:100E300006F0F2FD07F0D2FE064907F049FA03B0CA
:100E400030BDC0467009002074090020D89E193EAC
:100E50000071020000002041002070470020704710
:100E600070B584B004000523009302AB00225C211E
:100E7000002000F0A1FE052815D102AA16785578A9
:100E80009078D1787319C318CB181279DBB29A42D3
:100E900007D136023543E56000020143216100209D
:100EA00001E00320404204B070BDC04670B50400AC
:100EB0000D003822002109F0FDFE2560044BA362DD
:100EC000044BE362044B2363044B636370BDC04671
:100ED000590E00005D0E0000610E00003D0F000085
:100EE00070B5C468007B07F0C1FE064907F0BAFB85
:100EF000051C200A07F0BAFE011C281C07F072F836
:100F000070BDC046CDCCCC3D70B504697F2020407B
:100F100007F0ACFE084907F0A5FB051C200A07F006
:100F2000A5FE011C281C07F05DF8230603D58023CD
:100F30001B069C46604470BDCDCCCC3DF0B583B063
:100F400004000D00C368013307D100F0C7FD0200A3
:100F50000F49280004F0F0FE16E0FFF7D5FF061C4D
:100F60002000FFF7BDFF041C301C09F049FC0600FF
:100F70000F00201C09F044FC0090019132003B005E
:100F80000449280004F0D8FE280003B0F0BDC04694
:100F90007CB20000E4B2000070B50500002002F051
:100FA0009BFF041E0DD15521002003F015F8296880
:100FB00002310822002003F099F84421002003F0B8
:100FC0000BF8200070BDC04630B583B0050000208E
:100FD00002F082FF031E1AD101AC4E332370303B66
:100FE00063700F3BA3707033E3705521002002F053
:100FF000F3FF2B68991C0822002003F077F80422E5
:101000002100002003F072F82800FFF7C5FF03B0AD
:1010100030BDC04610B584B00400002002F05CFF73
:10102000002836D15521002002F0D6FF2368991CF4
:101030000822002003F05AF8BE21002002F0CCFF65
:10104000092201A9002003F063F8092101A804F096
:1010500071FF002812D101AB9B781E2B11D101AB7F
:10106000DB780F2B10D101AB1B797F2B0FD101AA9D
:1010700053781B0212781343E3600AE003204042D6
:1010800007E00320404204E00320404201E0032047
:10109000404204B010BDC04670B504000D003822B7
:1010A000002109F007FE2560044BA362044BE362B4
:1010B000044B2363044B636370BDC046C90F00003B
:1010C000990F0000151000002511000070B5C468CC
:1010D0000025230403D564422404240C0135600553
:1010E000400E07F0C3FD230703D5FC21890506F058
:1010F00079FF630703D5FA21890506F073FFA3077B
:1011000003D5F821890506F06DFFE30703D5F62125
:10111000890506F067FF002D03D080231B069C463F
:10112000604470BD10B50C00C368013307D100F0F6
:10113000FDFC02000849200004F0FEFD09E0FFF775
:10114000C5FF09F05DFB02000B000449200004F01C
:10115000F3FD200010BDC0467CB20000F4B20000D8
:1011600000207047002070470020704710B50C0029
:10117000C368013307D100F0B1FC0200064920002A
:1011800004F0DAFD05E0002200230449200004F009
:10119000D3FD200010BDC0467CB20000FCB20000B0
:1011A00070B504000D003822002109F083FD256090
:1011B000044BA362044BE362044B2363044B63635D
:1011C00070BDC0466111000065110000691100008A
:1011D0006D1100000020704730B585B00C00036829
:1011E0009D7803AB110A19705A70022200922200F6
:1011F0002900002000F0C4FC022819D1022300932A
:1012000002AB22002900002000F0D6FC02280FD1FA
:1012100003AB1A7802AB1B789A4207D103AB5A781A
:1012200002AB5B789A4203D0053801E003204042CC
:1012300005B030BD10B50400074A0021FFF7CCFF10
:10124000022808D1CC22520005212000FFF7C4FF5C
:10125000022800D1002010BD672E000030B589B0F3
:10126000050003689C780223009307AB012221004C
:10127000002000F0A1FC022849D1009006AB022218
:101280002100002000F098FC022840D1009005AB1E
:1012900003222100002000F08FFC022837D10090AB
:1012A00004AB04222100002000F086FC02282ED18D
:1012B000009003AB05222100002000F07DFC0228F5
:1012C00025D103AA13781B02527813431BB2CC22F8
:1012D0005200934219D107A90B781A024B78134395
:1012E000EB6006A90B781A024B7813432B6105A912
:1012F0000B781A024B7813436B6104A90B781A021E
:101300004B781343AB61002001E00320404209B059
:1013100030BDC04670B504000D003822002109F030
:10132000C9FC2560044BA362044BE362044B2363B6
:10133000044B636370BDC04635120000D511000038
:101340005D120000D513000010B5C06803040CD571
:1013500040420004000C07F089FC80231B069C46D9
:101360006044054907F07EF904E007F07FFC02497C
:1013700007F078F910BDC0460AD7233C10B50369C1
:10138000DA0703D50122524242618261D80807F090
:101390006DFC024907F066F910BDC0466F12833B31
:1013A00010B5806903040CD540420004000C07F01E
:1013B0005DFC80231B069C466044054907F052F9FA
:1013C00004E007F053FC024907F04CF910BDC04699
:1013D0006F12833AF0B595B004000D00C368013375
:1013E00007D100F07BFB02002149280004F0A4FC97
:1013F0003AE00369DB0703D51E4B0C93049317E017
:10140000FFF7CEFF09F0FCF902000B001A490CA807
:1014100004F092FC606907F029FC184907F022F9F2
:1014200009F0EEF902000B00154904A804F084FC51
:101430002000FFF7A3FF061C2000FFF785FF041C18
:10144000301C09F0DDF906000F0004AB03930CAB70
:101450000293201C09F0D4F90090019132003B0066
:101460000849280004F068FC280015B0F0BDC0460B
:1014700014B300002D2D2D0028B300000BD7A33C82
:1014800030B3000038B300000020704710B584B0BE
:1014900003689C780F236B4408221A7003AA1D214D
:1014A00011700021517002AA1B201070517001228E
:1014B00000922100002000F063FB031E012B13D1DA
:1014C0000133009303AB03222100002000F058FBFE
:1014D000022809D1009002AB02222100002000F076
:1014E0004FFB022800D1002004B010BD30B587B0FA
:1014F000050003689C780223009305AB00222100BD
:10150000002000F059FB02284AD1009004AB0322CE
:101510002100002000F050FB022841D1009003ABD5
:1015200002222100002000F047FB031E022B37D1CE
:10153000013B009316336B4401222100002000F090
:101540003BFB01282CD105AB5B78DA061DD104A842
:101550000278110242780A43E82149018A4217D1F0
:1015600003A80278110242780A43D82149018A422D
:1015700011D117226A441278082A0FD105AA1278CD
:1015800012021343EB6000200AE00320404207E010
:101590000320404204E00320404201E00320404297
:1015A00007B030BD70B504000D003822002109F0ED
:1015B00081FB2560044BA362044BE362044B23636D
:1015C000044B636370BDC0468D1400008914000095
:1015D000ED1400002516000070B5C4680025230432
:1015E00003D564422404240C01352004000E07F0C6
:1015F0003DFB230603D5FC21890506F0F3FC6306B9
:1016000003D5FA21890506F0EDFCA30603D5F821E0
:10161000890506F0E7FC002D03D080231B069C46BD
:10162000604470BD10B50C00C368013307D100F0F1
:1016300055FA02000849200004F07EFB09E0FFF79C
:10164000CBFF09F0DDF802000B000449200004F094
:1016500073FB200010BDC0467CB20000F4B2000055
:101660000020704710B586B00400036899780E23F7
:10167000009302AB3B22002000F09EFA0E2825D1F9
:1016800002AB1A78120259780A43E2609A78120281
:10169000D9780A4322611A79120259790A436261A0
:1016A0009A791202D9790A43A2611A7A1202597AF6
:1016B0000A43E2619A7A1202D97A0A432262197BBA
:1016C00009025A7B0B0013436362002006B010BD71
:1016D000F0B587B0026894780F236B4401261E7022
:1016E00005AD0321297069705178032739402B4AD1
:1016F000525CAA7089002A4A89582A4A11600268F5
:10170000527892083A402849895CE970920027494A
:101710005158274A116000966B222100002000F0EA
:101720002FFA031E012B36D10333009305AB192288
:101730002100002000F024FA031E042B2BD1033BD0
:1017400000930D336B446B222100002000F034FA2B
:10175000031E012B1FD10333009304AB1922210078
:10176000002000F029FA031E042B14D10A336B4425
:101770001A780F236B441B789A4207D1042205A9DB
:1017800004A809F031FA002805D002E00320404205
:1017900001E00320404207B0F0BDC04690B3000016
:1017A0006CB300003C00002058B300005CB30000A4
:1017B0003000002070B504000D003822002109F02F
:1017C00079FA2560044BA362044BE362044B236364
:1017D000044B636370BDC046D11600006116000063
:1017E0006516000009190000F0B585B004000D0071
:1017F0003F4B1E683F4F3888E368181A00B207F065
:10180000EDF9311C06F064FD009078882269101A09
:1018100000B207F0E3F9311C06F05AFD019063694C
:10182000B888181A00B207F0D9F9311C06F050FD3B
:10183000041C011C06F016FF061C009B191C181C3A
:1018400006F010FF071C311C381C06F0CBFB08F01B
:10185000D7FF05F0D5FE02900391019808F0D0FF64
:10186000029A039B07F06CFD05F028FD802292058B
:10187000214B08F089F909F017F8071C0021201CFA
:1018800006F006FA002801D12F6010E0002101982F
:1018900006F0FEF9002805D0391C184806F0F6FFBE
:1018A000286004E0391C164806F0F0FF2860019C0F
:1018B000211C201C06F0D6FE311C06F093FB08F01C
:1018C0009FFF05F09DFE06000F00009808F098FFAE
:1018D00032003B0007F034FD05F0F0FC8022920559
:1018E000084B08F051F908F0DFFF686005B0F0BD63
:1018F0003000002034000020DCA54C40000034C340
:1019000000003443DCA54CC0D0B584B00C00C368E3
:10191000013307D100F0E2F802000D49200004F085
:101920000BFA12E002A9FFF75FFF029808F068FFC8
:1019300006000F00039808F063FF00900191320049
:101940003B000449200004F0F7F9200004B0D0BDAA
:101950007CB200007CB300000B2817D880000D4B30
:101960001B589F460C4814E00C4812E00C4810E04D
:101970000C480EE00C480CE00C480AE00C4808E06B
:101980000C4806E00C4804E00C4802E00C4800E07B
:101990000C48704794B3000010B800007CBA0000F7
:1019A00018B8000020B8000028B8000030B80000C7
:1019B00038B8000040B8000048B8000050B8000037
:1019C00004B8000008B8000003000C3328300122DE
:1019D000524204C38342FCD17047C046F0B55F4613
:1019E00056464D464446F0B483B007000191354D4C
:1019F000C4239B009846A8442C00382200212000D4
:101A000009F058F93834A045F7D100232E4A136065
:101A10002E4A1360002F42D03C003E001C36A533F6
:101A2000FF339A46BA44274F294B9B46264B99468B
:101A300021002378092B2ED89B005A46D3589F4665
:101A40003800FEF7A9FF20E03800FFF75FF81F4BD2
:101A50001F601AE03800FFF729FA16E03800FFF798
:101A60001BFB12E03800FFF79BFB0EE03800FFF78E
:101A700051FC0AE03800FFF795FD06E03800FFF75B
:101A800099FE02E03800FEF7B9FE38374B461B6876
:101A900001334A4613601C341C36B245C8D12800B5
:101AA000FFF792FF38354545F9D10A4B019A1A6084
:101AB0000022094B1A6003B03CBC90469946A246EE
:101AC000AB46F0BD8C090020780900207C0900207D
:101AD000C4B30000400000209C0C00200822835E5C
:101AE0009A1C14D09A1C02DC03330CD00DE05A1C53
:101AF00002D0002B02D008E007480BE0C368013396
:101B000007D0064806E0064804E0064802E006481A
:101B100000E001487047C04658B8000004B8000013
:101B200060B8000064B800005CB800000822835E62
:101B30009A1C09D09A1C02DC03330CD00DE05A1C0D
:101B40000DD0002B02D008E007480BE0C36801333A
:101B500007D0064806E0064804E0064802E00648CA
:101B600000E006487047C0465CB8000004B80000BA
:101B700060B8000064B8000068B8000058B8000001
:101B800070B5A0B00500249C7E2C00DD7E244900A9
:101B900068460170427022001900023009F04CF8CA
:101BA000A61C32006946280001F08AFD864200D159
:101BB000200020B070BDC04630B583B004001D00C9
:101BC0004800012303432B7001AB18705A700222A6
:101BD0001900200001F074FD022804D1069A2900A2
:101BE000200001F0C3FE03B030BDC046F0B55F4633
:101BF00056464D464446F0B4ADB00E90884600239C
:101C000003700326694F3C000E2210A9002002F049
:101C100091FA002800D1A7E064233B60C0463B68EE
:101C2000002B03D0C0462368002BFBD1013E002EC1
:101C3000EAD1A6E05E4A00E05E4A4346002B01D0AE
:101C40005D4B00E05D4B5E490E9804F075F828008E
:101C5000A4E0432D45D8AB005A4AD3589F465A4E6C
:101C600042E05A4E40E05A4E3EE05A4E3CE05A4E58
:101C70003AE05A4E38E05A4E36E05A4E34E05A4E68
:101C800032E05A4E30E05A4E2EE05A4E2CE05A4E78
:101C90002AE05A4E28E05A4E26E05A4E24E05A4E88
:101CA00022E05A4E20E05A4E1EE05A4E1CE05A4E98
:101CB0001AE05A4E18E05A4E16E05A4E14E05A4EA8
:101CC00012E05A4E10E05A4E0EE05A4E0CE05A4EB8
:101CD0000AE05A4E08E05A4E06E05A4E04E05A4EC8
:101CE00002E05A4E00E05A4E0E9F380009F030F8DC
:101CF0000300BC4663440B930C9563780D93A57861
:101D0000E7782379984663799946A3799A46E379E7
:101D10009B460821200004F00DF9002801D04D4B0E
:101D200000E04D4B0F9A0892079306965B46059389
:101D3000534604934B460393434602930197009501
:101D40000D9B0C9A45490B9803F0F6FF0834257853
:101D5000002D05D02CAB9C4200D07AE700201DE07E
:101D600000201BE0002019E010AB1D78002DF9D0F9
:101D70004346002B01D1114B00E00F4B0F9310ACE9
:101D800067E70500831C05D0431C05D0C31C00D0A9
:101D900050E751E7324A50E7324A4EE72DB03CBC9B
:101DA00090469946A246AB46F0BDC0468009002049
:101DB000ACB8000098B80000BCB8000038B0000013
:101DC00040BA0000ECB30000CCB80000D4B800006A
:101DD000E4B80000ECB80000F4B80000FCB8000063
:101DE0000CB9000014B9000024B900002CB900009F
:101DF0003CB9000044B9000054B9000064B90000C7
:101E00006CB9000078B9000080B9000088B9000002
:101E100090B9000098B90000A8B90000B8B9000056
:101E2000C0B9000018B80000C8B90000D0B900005F
:101E3000D8B90000E8B90000F0B90000F8B9000016
:101E400000BA000018BA000024BA000030BA00003E
:101E5000C4B8000038BA000050AF000048BA000013
:101E600080B800006CB80000F0B5574680B486B06A
:101E700007008A4600230370002901D13B4B00E094
:101E80003B4B1E00002503956A000123134305AA5E
:101E900013700324012205A9002001F067FD012829
:101EA00050D0013C002CF5D159E0380008F050FF2B
:101EB00038185346002B01D02D4A00E02B4A2D49FB
:101EC00003F03AFF022040424CE02B4C1CE02B4C2C
:101ED0001AE02B4C18E02B4C16E02B00483B072B4C
:101EE00009D92833072B08D9183B072B07D83E2DD3
:101EF00007D0254C08E0254C06E0254C04E0254C95
:101F000002E0254C00E0254C380008F021FF38188D
:101F100000962300039A224903F00EFF6B1CDDB2EA
:101F20001B06B0D53B780020002B1BD15346002B5D
:101F300001D00F4A00E00D4A1A49380003F0FCFEB8
:101F400000200FE02B00103BDAB2672AC5D89300BF
:101F5000154AD3589F46154CD6E7154CD4E7831C39
:101F6000DCD1A2E706B004BC9246F0BD38B0000058
:101F7000BCB80000C4BA000074BA000084BA000003
:101F800010B8000028B80000B8BA000094BA0000E9
:101F90008CBA000030BA0000A4BA000008B80000F3
:101FA000DCBA0000E8BA0000FCB4000020B8000071
:101FB00050B80000F0B55F4656464D464446F0B472
:101FC000B7B082460C00002800D13FE10020002974
:101FD00000D15EE1CA00521A92000021504608F07A
:101FE00069FEA1460E2C01DD0E2399460325AC4E59
:101FF00034000E221AA9002002F09CF8002800D11B
:1020000028E164233360C0463368002B03D0C04608
:102010002368002BFBD1013D002DEAD101262FE0E2
:102020004B46002B00DC1DE11AAC012600250423E1
:1020300098460821200003F07DFF002819D123785D
:10204000102B01D0282B14D1EF007F1BBF00574469
:1020500043463B70731C9B4638000A30320091495E
:1020600003F06AFEB81C0822210008F0E5FD0135E6
:102070005E4608342378002B02D04D45D9DBF2E0D0
:102080002800A94500DC04E10024012300939846C0
:102090000293019303962E0025004C466A0001230B
:1020A000134319AA13700327012219A9002001F074
:1020B0005DFC012800D1D8E0013F002FF4D1E1E020
:1020C00005233B70784938000A3003F035FEDDE027
:1020D00001233B70009B5A1C93461A007349380039
:1020E0000A3003F029FE5B460093CFE0382200213E
:1020F0000BA808F0DFFD5C2304AA9370593B137012
:1021000011000BA8FEF7D2FE159B0BA898470028DC
:102110001ED1634BC8221A60C0461B68002B04D036
:102120005F4AC0461368002BFBD1179B0BA898474A
:1021300000280DD103233B70039B5A1C93461A00C1
:10214000584938000A3003F0F7FD5B4603939DE0E1
:1021500001233B70009B5A1C93461A0053493800D8
:102160000A3003F0E9FD5B4600938FE008233B70E3
:102170004F4938000A3003F0DFFD87E002233B704F
:10218000019B5A1C93461A004A4938000A3003F052
:10219000D3FD5B46019379E006233B70029B5A1CFA
:1021A00093461A00444938000A3003F0C5FD5B46E7
:1021B00002936BE02B00483B072B3ED838220021CE
:1021C0000BA808F077FD04AB9D70072304AA1370D9
:1021D00011000BA8FFF7E6F9159B0BA898470028FC
:1021E0001ED12F4BC8221A60C0461B68002B04D09A
:1021F0002B4BC0461A68002AFBD1179B0BA89847A7
:1022000000280DD107233B70039B5A1C93461A00EC
:10221000244938000A3003F08FFD5B46039335E014
:1022200009233B7043465A1C9346424623493800D3
:102230000A3003F081FDD84628E06B1CDDB21B0696
:1022400006D4B44200DD29E7300022E0002020E07F
:1022500030001EE01AAB1B7801260025002B00D1B0
:102260000EE7DDE60025280013E0F700BF1BBF00E6
:1022700057442B001E3BDAB2592A9BD89300104AD0
:10228000D3589F46831CD8D1300002E0BD70013680
:10229000D3E737B03CBC90469946A246AB46F0BD6A
:1022A00080090020FCBA000000BB000004BB000055
:1022B00008BB00000CBB000010BB000014BB0000FA
:1022C0009CB60000F0B55F4656464D464446F0B415
:1022D00095B00B90844B5B6B0693844B186804F0AD
:1022E00047FA834A1368013313603A220A92DB07E4
:1022F00001D420230A930023069A13707D4B1B6898
:10230000002B00D199E07C4F00239B46B8467B6BA5
:10231000002B78D0069C200008F01AFD0300A4468C
:10232000634408933C680A34200008F011FD061E3F
:1023300047DD00200021F823DB009A463F23994621
:102340000CAD0997635C5AB2002A01DB013131E020
:10235000621852781B02D3189AB2931057463B402A
:102360004F463A401A4305926B469B8A634FBB42E5
:102370001CD0634FBB421BD0624FBC469C44674697
:1023800002AAD782D78A1F2F03D8059B503BDBB206
:102390000FE05D4FBC4663449BB29C462E236746CC
:1023A0001F2F06D8059B503BDBB202E0A82300E0BC
:1023B000B82302310130421EAB548E42C2DC099F69
:1023C00000E000200CAB9C466044002303700A9B95
:1023D00062464E49089803F0AFFC069C200008F0C6
:1023E000B7FC21184046436B9847200008F0B0FC2A
:1023F000A44660444346DA88531E9A412032444939
:1024000003F09AFC0FE0069C200008F0A1FCA44613
:102410006044FB68FA88511E8A41203200925A4675
:102420003C4903F089FC5B4601331A009B46383770
:10243000304B1B68934200D968E7069D280008F0DE
:1024400087FC2C18344B1868FEF7BAFC08F0D8F952
:1024500002000B003149200003F06EFC01F062F82D
:1024600012AC210003F0A6FC280008F071FCAC4679
:10247000604422796379E188294C0C19FA25ED0032
:10248000A94201D9274C0C1912A98D7803950A9DF0
:102490000295C97801910094234903F04DFC069CF4
:1024A000200008F055FC214B1B68A4466044204ADC
:1024B000204903F041FC0B9B002B03D00A4804F099
:1024C00095FE02E0084804F057FE084C06492068D3
:1024D00004F02AFC206804F041F815B03CBC90469A
:1024E0009946A246AB46F0BD6C0D002000000020CE
:1024F00084090020780900208C09002001040000D4
:1025000051040000F0FBFFFFD0FBFFFF18BB0000F1
:1025100028BB000020BB00007C0900202CBB000071
:1025200094F8FFFF30F8FFFF38BB0000D004002014
:1025300054BB00005CBB000070B5684B1B68032BEC
:1025400000D191E0042B00D0A2E0654B1B68654AE6
:1025500012689B1A022B00D8BFE0634B1C68634BC8
:102560001B689C4275D2631C5F4A1360E5002D1BFB
:10257000ED005F4B5D192B79DB073ED52B6B002BF4
:1025800004D028009847002800D08CE0E3001B1BF3
:10259000DB00574AD318DB6A002B00D18AE0280001
:1025A0009847E3001B1BDB00514AD3181881002811
:1025B00013D02800FFF708FA4D48E3001A1BD20099
:1025C000821811790125A94311711400494B19682A
:1025D000494805F097F9E08041E0E3001B1BDB0070
:1025E000434AD318DA88002A39D0E3001C1BE400E0
:1025F0003F4B1C19013AE28031E0E3001B1BDB007A
:102600003B4AD3189B6A002B5CD0280098470600F1
:10261000E3001B1BDB00364AD31818812800FFF7A4
:10262000D3F9002E0BD0E3001C1BE400304B1C1927
:10263000304B1968304805F065F9E0800FE02C490F
:10264000E3001A1BD2008A18117901230B4313717E
:1026500005E00020FFF736FE0322204B1A60204BD6
:102660001A68204B1A6038E01D4B1B681D4A12681F
:102670009B1A204A126893422FD900221A4B1A60E3
:102680000432164B1A60164B1A68164B1A6024E077
:102690000022154B1A600332104B1A60104B1A6857
:1026A000104B1A6019E0E3001B1BDB00104AD31823
:1026B00018817EE7E3001B1BDB000D4AD3180022C4
:1026C0001A818AE7E3001B1BDB00094AD3180022AA
:1026D0001A812800FFF778F9B1E770BD9C0C002043
:1026E000FC0C002088090020A00C002078090020A4
:1026F0008C090020400000201027000004282FD85B
:102700008000184B1B589F46174BDB6B00205B0269
:1027100003D5154BD86B0002C00FC0B221E0134B9C
:102720009B680020DB0703D5104B18684007C00FDB
:10273000C0B216E00C4BDB6B0020DB0703D50A4B65
:10274000D86B8004C00FC0B20BE0074BDB6B0020DE
:102750001B0403D5044BD86B8002C00FC0B200E04D
:102760000020704764BB000000800D400000024064
:10277000002921D104285ED88000314B1B589F4688
:10278000304AD16B304B0B40D363012056E02F4AC7
:10279000936801218B43936001204FE0294AD36B5A
:1027A00001218B43D363012048E0264AD16B284B9B
:1027B0000B40D363012041E004283ED88000254B24
:1027C0001B589F461F4AD36B8021C9030B43D36319
:1027D000110080221204CB6B1342FCD001202DE0AB
:1027E0001A4B996801220A439A609A6802218A4327
:1027F0009A60190004220B681A42FCD001201DE0E7
:10280000104AD16B01230B43D36311008022920144
:10281000CB6B1342FCD0012010E00A4AD36B80211D
:1028200009020B43D363110080229203CB6B134246
:10283000FCD0012002E0002000E000207047C046EC
:1028400078BB000000800D40FFFFBFFF000002408A
:10285000FF7FFFFF8CBB0000F0B55F464E4645464C
:10286000E0B484B08846944B1960042900D9DCE0B8
:102870008B00924AD3589F46072302930023039369
:102880008F4B0193E3E0071E8E4B9F4200D91F0040
:10289000BB468D4C072302930023039301939C4670
:1028A0008A4824E05A1ED1B22200EA4082420CD863
:1028B000BE1ABA4200D3D61B5E4504D202916146CD
:1028C00003910192B346002E04D001350133DBB2EF
:1028D000112BE7D15B46002B0CD063460133DBB2F2
:1028E0009C46794B99464C446346102B02D00823F2
:1028F0000025D7E7764B019A9A4200D8A7E014202A
:10290000D4E00022734B3000390005F087F9012331
:1029100000282FD10022704B3000390005F07EF9DD
:102920000223002826D100226C4B3000390005F02C
:1029300075F9032300281DD10022694B30003900AE
:1029400005F06CF90423002814D10022654B3000F7
:10295000390005F063F9052300280BD18022120607
:10296000614B3000390005F059F90200501E8241D8
:1029700007239B1ADB005D4A13605D4AD36803217D
:102980008B43D36002394046FFF7F2FE0300142068
:10299000002B00D18AE04346042B48D89B00554ABF
:1029A000D3589F464346042B1BD1514AD168524B02
:1029B0000B40D360002079E04D4AD3688021890024
:1029C0000B43D360002071E0494AD368C0218900DD
:1029D0000B43D360002069E0454AD16802230B43D2
:1029E000D360434B5968454A0A405A605A68039974
:1029F0000C0214435C60596804220A435A601900AF
:102A000002220B681A42FCD0394BDA68F0218A4363
:102A1000DA60DA68029909010A43DA60DA68822129
:102A200049000A43DA60002040E014203EE015200F
:102A30003CE0072302930023039380231B020193AE
:102A400005E007230293002303931F4B0193284BB8
:102A5000D96908220A43DA61D96910220A43DA6186
:102A6000D96920220A43DA61DA69802109010A431F
:102A7000DA61DA69802149010A43DA61DA69802181
:102A800089010A43DA61DA69802109050A43DA61BA
:102A9000019807F07DFE06000F000022184B05F09C
:102AA000BDF80023002800D064E72AE704B01CBC6E
:102AB00090469946A346F0BDA40C0020A0BB0000A0
:102AC000409C00000044950800127A004086A4084B
:102AD0003F86A40884D78741A3E1914184D79741D9
:102AE00065CD9D41A3E1A14193DCA441008001405B
:102AF00000000240B4BB0000FFFCFFFFFFF0FFFF3F
:102B000084D7774170B53A4BDB689B059B0F022B4E
:102B100009D0032B0ED0002B12D10020FFF7EEFDC1
:102B2000002861D163E00220FFF7E8FD431E9841D1
:102B3000C0035CE00320FFF7E1FD002856D156E01A
:102B40002B4BDB6803221340012B0CD0002B04D04D
:102B5000022B0ED0032B12D017E00020FFF7CEFD82
:102B6000002814D11AE00020FFF7C8FD002810D17A
:102B700014E00120FFF7C2FD00280CD10EE0012077
:102B8000FFF7BCFD002808D108E0002006E0194846
:102B900004E0194802E0174800E01748144BDB68CE
:102BA0005B070BD5124B5B685B0706D5104B5B6868
:102BB0001B051B0F0133584300E000200C4BDC6861
:102BC0002406240F062C00D8072406F04FF8051C15
:102BD000073C0120A04006F001F8011C281C05F06C
:102BE00077FB05F0EDF802E0024800E0034870BD15
:102BF0000000024000127A0000093D00409C0000E5
:102C0000F0B55F4656464D464446F0B489B0019251
:102C100098461623052800D9ACE08200594BD358BA
:102C2000594DEC69594A125C1F2010400122824024
:102C30002243EA611A6802925A6803929D68DA6830
:102C400004921A6905925A6906929869DA6907929C
:102C500009040A0C94460322414611408B46414622
:102C600009090A4091466746002401210322924641
:102C70005E464A469946009239420AD05246A240E0
:102C8000D24315403300A3401D4302400098A040AA
:102C900010437F080234202CEED14B460F224146D0
:102CA0000A40042A03D1049C6246944302E0049C37
:102CB00062461443F02241460A420FD16246D7438E
:102CC000039E3E404246920404D5079F6246174346
:102CD000BB4610E0079A1740BB460CE0039E6246D5
:102CE0001643079F9743BB46019A02994A4067469D
:102CF0003A40514002914246D20504D56246120440
:102D000005990A4304E062461204059991430A00BA
:102D10004146890503D561460A43924602E0614671
:102D20008A43924641464A0504D562461104069AF2
:102D3000114304E062461104069A8A431100C02739
:102D40007F01B94647464A46174080221201974202
:102D500002D16246114301E062469143029A1A6031
:102D60005E609D60DC6052461A61596198615A4606
:102D7000DA610023180009B03CBC90469946A2468F
:102D8000AB46F0BDC8BB000000000240E0BB000045
:102D900010B5074C626D03231840023B83401900B5
:102DA00007239A4313000B439BB2636510BDC046D3
:102DB00000000F4010B5054AD3698021C9050B43B7
:102DC000D3610120FFF7E4FF002010BD00000240A6
:102DD000F0B55F464E464546E0B482B080461420CA
:102DE0004346002B3DD0FFF78DFE00900023424666
:102DF000936013689946019301271D4E1D4B9B4616
:102E00000199009804F07EFD431E0238B04205D8B7
:102E10004246536000231373002022E00125012461
:102E20003900A9404B465943009804F06BFD431EFE
:102E30000238B04204D8424653601473002010E0B8
:102E40000134E4B20135082CEAD1424697600137DB
:102E5000019A4A4401925F45D2D1424653601473AD
:102E6000142002B01CBC90469946A346F0BDC04653
:102E7000FDFF000001000100032318408000074B04
:102E8000C358002904D0D96801220A43DA6003E05C
:102E9000DA6801218A43DA607047C046E8BB000067
:102EA00070B584B0041E00D192E003781725032B7F
:102EB00000D990E0436800936846FFF789FF051E3C
:102EC00000D087E02378032633409B00434A98587C
:102ED0000C22210007F0B0FE4148C269237833403C
:102EE0004049CB5C1F21194001238B401343C36130
:102EF00020780021FFF7C0FF2378032B1DD1A368A2
:102F0000002B04D080229201374B1A6004E080210C
:102F100089018023344AD150314B996A334A0A409F
:102F20009A62996A6A46127B12040A439A629A6A02
:102F30008021C9040A439A622BE0A268002A08D0C3
:102F40000E331F2213401E3A9A401300264A136084
:102F500008E00E331F2213401E3A9A4013008022CD
:102F600021498B501E4B5A6A2078C000FF218140B6
:102F70008A435A62596A6A46127B2078C0008240AE
:102F80000A435A62596A20788022520482400A43D6
:102F90005A622378032213409B00154A9B58002253
:102FA000DA60029A1204120C5A60A268002A04D055
:102FB000996D01220A439A6503E09A6D01218A43C3
:102FC0009A6500221A60019A1204120C9A6002E0BB
:102FD000172500E01425280004B070BDFCBB0000DC
:102FE00000000240F8BB000000E100E0FFFF00FF2E
:102FF000E8BB000010B5074B5B6DDB0709D5054A40
:10300000536D01218B435365034B9B68002B00D00C
:10301000984710BD00000740A80C002010B5074BD2
:103020005B6DDB0709D5054A536D01218B43536561
:10303000034B9B68002B00D0984710BD00800740D1
:10304000B40C002010B5074B5B6DDB0709D5054AB2
:10305000536D01218B435365034B9B68002B00D0BC
:10306000984710BD00000840C00C002010B5074B69
:103070005B6DDB0709D5054A536D01218B43536511
:10308000034B9B68002B00D0984710BD008009407F
:10309000CC0C002070B504001720002C46D0244D25
:1030A00010222100280007F0C7FD6B68002B03D118
:1030B000FA2292001E4B5A601E4B1A6803218A4363
:1030C0001A6000229A60A368032B0AD102390320F8
:1030D000FFF74EFB174A136804218B431360164811
:1030E00006E0144A116804230B431360FFF70AFD3E
:1030F0000F4B596804F006FC01380123002804D066
:10310000031E0E4A934200D913000A4A5360E36833
:10311000002B05D0116802230B431360002005E04B
:10312000044A136802218B431360002070BDC0461F
:10313000D80C002010E000E0409C0000FFFFFF00E2
:10314000002905D0054A116801230B43136004E0F0
:10315000024A136801218B431360704710E000E0BE
:103160000B4B1868012290431860002098600902F8
:10317000090A596019680A431A601B68DB0306D400
:10318000034980225202C0460B681342FBD07047AD
:1031900010E000E010B5034BDB68002B00D098472F
:1031A00010BDC046D80C002030B5002841D0224BBD
:1031B00042681A60214AD369802109010B43D36117
:1031C00000221F4B1A60437801242340DC028378DD
:1031D000C5781421132B04D91A1C222B00D92222C2
:1031E000D1B21223112D04D92A1C1E2D00D91E2262
:1031F000D3B214398900FF22D2001140123B5B1078
:10320000FF22520013400B4323434268002A07D099
:10321000C02292001343802109010A4A116004E090
:1032200080200001802207498850054A1360002051
:1032300000E0172030BDC0465C0E002000000240B8
:103240000080054000E100E0002905D0054A116832
:1032500001230B43136004E0024A136801218B43EE
:103260001360704700800540024B18680006C00FCD
:103270007047C04600800540024B18684006C00FEA
:103280007047C0460080054010B50D4B1C68A02358
:103290009B001C4206D00B4B1B68002B00D09847AC
:1032A000094B1C40A0235B001C4206D0054B1B6849
:1032B000002B00D09847054B1C40014B1C6010BDF3
:1032C000008005405C0E00207FFDFFFFBFFEFFFF7A
:1032D000F0B583B0051E38D04368012B07D9032B06
:1032E00026D080200002012B23D8019001E01D4B45
:1032F00001930723AB602F683900019804F002FBAB
:10330000E8600138184B984223D827E0E31F3900C2
:103310009940019804F0F6FA431EB34201D8E860E0
:103320001CE00134AC60102CF0D1E860142016E0F1
:103330000E480723AB60296804F0E4FAE86001381E
:10334000094B984203D9142009E0142007E000201B
:1033500005E00823AB600824034ED7E7002003B044
:10336000F0BDC04600127A00FEFF0F00409C000036
:1033700070B584B005001724002800D1A9E0436887
:103380000093836801936846FFF7A2FF041E00D0F4
:103390009EE0514E10222900300007F04DFC4F4BAB
:1033A000DA69802109050A43DA614D4AD16B1020A0
:1033B0008143D163D16B04388143D1639969494A10
:1033C0000A409A61B368012B0DD0002B23D0032B48
:1033D0003AD101210938FFF7CBF9414AD36B0C21CF
:1033E0008B43D36339E03D4DAB690F229343AB610F
:1033F000AB69029A1343AB6101210120FFF7B8F9D1
:10340000AB69802252001343AB61354AD16B0C2368
:103410000B43D36321E0314DAB69F0229343AB61A1
:10342000AB69029A12011343AB6101210020FFF73F
:103430009FF9AB69802292001343AB61284AD16B9C
:1034400008230B43D36308E001210220FFF790F922
:10345000234AD16B04230B43D363214BD96B224AFC
:103460000A40DA63D96B1C4A927852010A43DA6344
:10347000190040220B6D1A42FCD1194B039A9A6431
:10348000190040220B6D1A42FCD1154A116D02231E
:103490000B431365110040220B6D1A42FCD10E4BF9
:1034A000DB68002B09D00E4A116D10230B43136506
:1034B000802212050D4B1A600BE0094A136D102192
:1034C0008B431365802109058023084AD15000E011
:1034D0001424200004B070BDE80C0020000002405D
:1034E00000800D40FFFCFFFF1FE0FFFF00E100E058
:1034F000002905D0054AD16B10230B43D36304E0A8
:10350000024AD36B10218B43D363704700800D4078
:10351000034940220B6D1A42FCD1014B18647047DD
:1035200000800D40034B1A6C186C824200D0186C5E
:103530007047C04600800D4010B50A4B1B6D9B07BD
:103540000ED5084940220B6D1A42FCD1054A116D77
:1035500002230B431365044BDB68002B00D0984714
:1035600010BDC04600800D40E80C0020F0B5474675
:1035700080B41B4B1D68C8351B6800249D4202D8CF
:1035800024E0002403E0174B9846174F174E43469C
:103590001B681A683B6831680B431A4093420CD190
:1035A0000134134B19680020FFF7DAFD0C4B1B6840
:1035B0009D420BD9042CEAD908E00D4B1968002074
:1035C000FFF7CEFD064B1B689D42DAD8044B1B6803
:1035D0000020AB424041404204BC9046F0BDC04692
:1035E000FC0C0020F80C0020000D0020040D002031
:1035F0004400002010B504001720002C43D0FFF732
:1036000081FA6368990004F07DF9002802D01E4B0E
:10361000186002E001221C4B1A602369012B02D0C2
:10362000022B19D02EE093231B010022C021490157
:103630000220FFF7E5FA154B154A136080210901B6
:10364000144A116080214901134A11605968134AD4
:103650000A405A60002016E093231B010022032138
:103660000320FFF7CDFA0E4B094A13600121094AE6
:1036700011600131084A11605A6801318A435A6069
:10368000002000E0192010BD4400002000800B4005
:10369000F80C0020000D0020040D0020FFE7FFFFC4
:1036A00000000C407047C04610B5FFF72BFA034BE3
:1036B0001968890004F026F910BDC04644000020B6
:1036C000F0B55F4656464D464446F0B485B003918A
:1036D00014000292A14B19684B68A14A1068A14AD4
:1036E0001268024393434B60FFF740FF002800D06D
:1036F0000BE1002C00DCCFE000230193039A019B37
:10370000D25C9046002B24D101339A439046934BD0
:103710001B685A68934909680A435A601A688A43C1
:103720001A60914B1B68009319000020FFF718FDE9
:103730008A4B1B685A688A4909680A435A601A68A2
:103740008A431A60884B1B68009319000020FFF71A
:1037500007FD08239946814B9B46824B9A46434678
:103760006A46137013785BB2002B07DA7B4B1A683A
:1037700053687C4909688B43536009E05B461B68CA
:103780005A68514609680A435A601A688A431A609F
:10379000754B19680020FFF7E3FC704B1B685A68F3
:1037A0006F4909688A435A601B680B4200D1C3E025
:1037B0000BE033681B682A681A4206D1396800207A
:1037C000FFF7CEFC013C002CF3D1674C2368590075
:1037D0000020FFF7C5FC614B1B685A686049096807
:1037E0000A435A601A688A431A6021680020FFF76A
:1037F000B7FC43465B00DBB2984601235B429C4624
:10380000E1444B46002BAAD1544C226853685549D9
:1038100009688B435360544B19680020FFF7A0FCE4
:1038200023685A684E4909688A435A601B680B42EC
:1038300078D00BE033681B682A681A4206D13968D1
:103840000020FFF78DFC013C002CF3D1464D296888
:103850000020FFF785FC414E33681B68414A14681D
:103860001C4029680020FFF77BFC33685A683C49FC
:1038700009680A435A601A688A431A602968002056
:10388000FFF76EFC002C0AD1019B01330193029AD1
:103890009A4200D032E705E00023029302E00123C0
:1038A0005B4202932D4C23685A682E4909680A43EB
:1038B0005A601A688A431A602B4B19680020FFF778
:1038C0004FFC23685A68264909688A435A601B6876
:1038D00019421DD00BE033681B682A681A4206D1D2
:1038E00039680020FFF73CFC013C002CF3D11E4B53
:1038F00019680020FFF734FC184B1A6853681949FF
:1039000009688B435360029820E0022040421DE08A
:10391000154B19680020FFF723FC27240F4E104D8C
:10392000114FD8E7104B19680020FFF719FC272426
:103930000A4E0B4D0C4F7DE70B4B19680020FFF72B
:103940000FFC2724054E064D074F32E705B03CBC5F
:1039500090469946A246AB46F0BDC046F80C002002
:10396000000D0020040D002044000020F0B55F464B
:1039700056464D464446F0B485B00C000191029283
:10398000C64B19684B68C64A1068C64A126802439B
:1039900093434B60FFF7EAFD002800D0E4E1227872
:1039A00001231A439046BD4D2B685A68BD490968EA
:1039B0000A435A601A688A431A60BB4C2168FFF7B1
:1039C000CFFB2B685A68B64909680A435A601A68DF
:1039D0008A431A6021680020FFF7C2FB082399463A
:1039E000AE4B9B46AF4B9A4643466A4613701378DC
:1039F0005BB2002B07DAA94B1A685368A94909681A
:103A00008B43536009E05B461B685A68514609685E
:103A10000A435A601A688A431A60A34B1968002047
:103A2000FFF79EFB9D4B1B685A689D4909688A43B6
:103A30005A601B680B4200D1CBE10BE033681B6876
:103A40002A681A4206D139680020FFF789FB013C39
:103A5000002CF3D1944C236859000020FFF780FB21
:103A60008E4B1B685A688E4909680A435A601A6867
:103A70008A431A6021680020FFF772FB43465B000F
:103A8000DBB2984601235B429C46E1444B46002B47
:103A9000AAD1824C22685368824909688B435360DB
:103AA000814B19680020FFF75BFB23685A687C494B
:103AB00009688A435A601B680B4200D17FE10BE022
:103AC00033681B682A681A4206D139680020FFF75C
:103AD00047FB013C002CF3D1734D29680020FFF710
:103AE0003FFB6E4E33681B686E4A14681C402968A1
:103AF0000020FFF735FB33685A68694909680A43B3
:103B00005A601A688A431A6029680020FFF728FB68
:103B1000002C09D1019B039300230193029B002BEE
:103B200037DC00230293ECE05C4C23685A685D4963
:103B300009680A435A601A688A431A605A4B19681E
:103B40000020FFF70DFB23685A68554909688A432E
:103B50005A601B68194200D109E10BE03B681B6801
:103B600032681A4206D129680020FFF7F9FA013CB1
:103B7000002CF3D14C4B19680020FFF7F1FA474BAA
:103B80001A685368474909688B43536001204042D3
:103B900029E1424B1A685368424909688B435360D4
:103BA00008239946002300933F4B98463B4B9B4686
:103BB0003B4B9A46009B5B00DBB20093434619687F
:103BC0000020FFF7CDFA5B461B685A68514609682A
:103BD0008A435A601B680B4200D1E6E00BE0336871
:103BE0001B682A681A4206D139680020FFF7B8FA24
:103BF000013C002CF3D12C4B19680020FFF7B0FAE0
:103C0000264B1B681B68274A12681A4203D00123FF
:103C1000009A1A430092244C21680020FFF7A0FA72
:103C20001E4B1B685A681E4909680A435A601A6885
:103C30008A431A6021680020FFF792FA01235B4251
:103C40009C46E1444B46002BB4D1019B01330193C8
:103C5000029A9A4207D1114B1A68536811490968B0
:103C60008B43536009E00D4B1B685A680D49096886
:103C70000A435A601A688A431A600B4B196800207D
:103C8000FFF76EFA054B1B685A68054909688A43B5
:103C90005A601B680B4200D17DE013E0F80C002055
:103CA000000D0020040D00204400002033681B6834
:103CB0002A681A4206D139680020FFF751FA013C00
:103CC000002CF3D14B4C236859000020FFF748FA31
:103CD000494B1B685A68494909680A435A601A687F
:103CE0008A431A6021680020FFF73AFA039B6A466C
:103CF00012781A7001330393029B019A934200D009
:103D000047E73D4C23685A683D4909680A435A60B1
:103D10001A688A431A60374B19680020FFF720FAA7
:103D200023685A68354909688A435A601B680B4200
:103D300027D00BE033681B682A681A4206D139681D
:103D40000020FFF70DFA013C002CF3D1294B196834
:103D50000020FFF705FA284B1A68536828490968BC
:103D60008B43536002983EE0022040423BE0214BEF
:103D700019680020FFF7F4F927241F4F1F4E1D4D2F
:103D8000ECE61C4B19680020FFF7EAF927241A4ECD
:103D90001A4D184FCEE7174B19680020FFF7E0F9CE
:103DA0002724154E154D134F80E7124B196800203C
:103DB000FFF7D6F92724104E104D0E4F0FE70D4B8D
:103DC00019680020FFF7CCF927240B4E0B4D094F43
:103DD00076E6084B19680020FFF7C2F92724064E43
:103DE000064D044F2AE605B03CBC90469946A246D3
:103DF000AB46F0BD44000020F80C0020000D002070
:103E0000040D0020F0B5474680B4002846D0438812
:103E10001C0A1720052C42D8FF2213400F2B3ED836
:103E2000204A9046A100204A8A5841460A601F4D08
:103E300001229A402A60FEF765FE1D4903F062FDEB
:103E4000C1000A1A1B4B1A60FA235B0043431A4F46
:103E50003B604300194F3B601B18194F3B60430107
:103E60001F187F00174E37601B1A5B00164F3B6010
:103E70000918164B1960D2001018154B18609223C0
:103E80001B01002229682000FEF7BAFE43461A688B
:103E9000536829688B435360002000E0172004BC5E
:103EA0009046F0BD280D00200CBC00002C0D002019
:103EB00040420F001C0D0020100D0020240D00209A
:103EC0000C0D0020200D0020080D0020140D0020F6
:103ED000180D00207047C046F8B55F4656464D465F
:103EE0004446F0B4374D2A685368374C21688B43F9
:103EF0005360364B19680020FFF732F92B685A6877
:103F000021680A435A601A688A431A60304B19685C
:103F10000020FFF725F92A68536821688B43536016
:103F2000FA2500239B469A4699460024294B984639
:103F3000244F254E434619680020FFF711F93B68CE
:103F40001B6832681340012C0ED0002C02D0022CCA
:103F500014D025E0002B1BD002239C46E14408240A
:103F60004C45A44164421BE0002B14D102339C4613
:103F7000E2445346322B13D9022411E0002B0DD01A
:103F800002239C46E3445B46642B09D9032407E0E3
:103F90000023994604E000239A4601E000239B4653
:103FA000013D002DC6D1032C04D048464342584160
:103FB000C04300E000203CBC90469946A246AB4678
:103FC000F8BDC046280D00202C0D00201C0D00203F
:103FD000100D0020240D0020F0B5474680B40D00E0
:103FE00008241C4F1C4E1D4B98463B685A6831688C
:103FF0000A435A601A688A431A60EB0711D5184BB6
:1040000019680020FFF7ACF8124B1A685368124980
:1040100009688B435360134B19680020FFF7A0F821
:1040200010E0434619680020FFF79AF8094B1A6818
:104030005368094909688B4353600B4B196800208A
:10404000FFF78EF86D08013C002CCED1012004BC96
:104050009046F0BD280D00202C0D0020080D0020FA
:104060000C0D0020200D00201C0D0020F0B547464F
:1040700080B408250024184F184E194B9846640840
:104080003B685A6831680A435A601A688A431A6062
:10409000434619680020FFF763F83A6853683168AF
:1040A0008B4353600F4B19680020FFF759F83B68AA
:1040B0001B6832681A4203D080235B421C43E4B27F
:1040C000094B19680020FFF74BF8013D002DD6D1B0
:1040D000200004BC9046F0BD280D00202C0D0020CF
:1040E0000C0D0020140D0020180D0020F8B506005E
:1040F000171E09DD0C008D1821783000FFF76CFFCA
:104100000134AC42F8D100E000273800F8BDC046C9
:10411000F8B50600171E09DD0C008D183000FFF7FA
:10412000A5FF20700134AC42F8D100E00027380030
:10413000F8BDC046F0B55F4656464D464446F0B41D
:104140008BB00800029114000392D200002106F007
:10415000B1FD0822002106A806F0ACFD08220021CE
:1041600004A806F0A7FD00230093002C00DDE9E081
:10417000002301931BE143461340614699400B0025
:10418000C8B2D110DB43DBB204AC655C1D406554A2
:1041900006AC645C04420BD002E07F230721802040
:1041A00002002A4304A84254234006AA535401E0C3
:1041B000013AE0D20822002108A806F07BFD002089
:1041C000FFF78AFE0190002800D0F0E0F0210020E7
:1041D000FFF702FF00239B469846794B9A465C46C0
:1041E0003B685A6831680A435A601A688A431A6001
:1041F000534619680020FEF7B3FF3A6853683168E8
:104200008B4353606F4B9B4619680020FEF7A8FF55
:104210003B681B6835681D406B4B99461968002048
:10422000FEF79EFF3B685A6831680A435A601A6875
:104230008A431A60534619680020FEF791FF3A68D6
:10424000536831688B4353605B4619680020FEF762
:1042500087FF3B681B68326813405A1E9341DBB2EC
:104260009B464B4619680020FEF77AFF002D25D1AA
:104270005B46002B22D10733234001229A40D2B261
:10428000E31004A9C95C114270D101218C46E044BD
:1042900006A9C918087802430A7008AA944663441C
:1042A0001A7852081A70494B1B685A6848490968BD
:1042B0000A435A601A688A431A6028E0E31008AA81
:1042C000944663441A7852081A70002D55D0802104
:1042D00049420A431A703D4B99461B685A683C4D47
:1042E00029680A435A601A688A431A60344B19686D
:1042F0000020FEF735FF4B461A68536829688B4348
:104300005360344B19680020FEF72AFF10E0324B4F
:1043100019680020FEF724FF2C4B1A6853682C49BB
:1043200009688B4353602D4B19680020FEF718FF76
:104330000134402C00D053E72AE0039B009A9342BB
:1043400002D134E0214F224E04ABDA797F251540AB
:10435000DD7106ABDC7923007F22934300D01CE79C
:10436000413A07339846063B9C4604E708AA944620
:1043700063441A7852081A70A9E7144B1B685A68EC
:10438000134909680A435A601A688A431A60BEE7EB
:10439000009CE000029B9C466044082208A906F0AD
:1043A0004BFC2300013300934346002BC5D10198F9
:1043B0000BB03CBC90469946A246AB46F0BDC04609
:1043C0000C0D0020140D0020180D0020280D0020D9
:1043D0002C0D0020200D0020080D00201C0D0020B9
:1043E000F8B504000D1E57D0002802D0012806D0D1
:1043F00054E02C4A916A2C4B0B40936204E0294A0A
:10440000916A2A4B0B409362012323409B00284A68
:104410009E58A86803F0D4FC7062AF68381C03F0A3
:10442000CFFC04F023FC011C381C04F02FFA85217A
:10443000C90504F017F9FC21890503F0D3FD03F049
:10444000BFFCB062F36AFF221340F362002C02D07B
:10445000012C10D024E0134B9A6AFF218A439A6200
:10446000996A6A680A439A629A6A802149040A43EF
:104470009A62002015E00B4B996A0E4A0A409A6234
:10448000996A6A6812020A439A629A6A80218904C8
:104490000A439A62002004E0182002E0162000E09F
:1044A0000020F8BD00000240FFFFFFFEFFFFFFFD00
:1044B00024BC0000FF00FFFFF0B583B0060014200D
:1044C000002E33D0FEF71EFB019008270125013F87
:1044D000019804F0CBFB041C2800B84004F07EFBDC
:1044E000011C201C03F0F4FE041C114903F0EEFB38
:1044F000002818D03368180104F0B8FB011C201CF8
:1045000003F0E6FE041CFE21890503F0DFFB002812
:1045100009D00849201C03F0C5FB002803D07760B0
:10452000B460002002E0002FD1D1142003B0F0BD10
:104530000024744900FF7F47F0B583B0002802D003
:1045400001280BD05AE02F4B9A6A0023D20156D58E
:104550002C4B9B6A07221A40160008E0294B9A6AE6
:10456000002392014BD5274B9B6A5B055E0F01230D
:1045700018408000244BC458FEF7C4FA676AA46A46
:1045800004F074FB06F03CF9009001913F202040BC
:1045900004F06CFB06F034F900221C4B05F06EFDB4
:1045A00000221B4B05F0F0FA04000D003804000C4B
:1045B00004F05CFB06F024F902000B002000290047
:1045C00004F092FB04000D000120B04004F006FB53
:1045D0008321C90504F046F806F012F902000B0029
:1045E0002000290005F0D0FA02000B000098019984
:1045F00004F0A6FE03F0FCFB030000E0002318001B
:1046000003B0F0BD0000024024BC00000000E03F09
:104610000000903F012318408000034BC15808223E
:104620008B691A42FCD1704724BC000010B50123ED
:1046300003409B00074A9C58002904D0236B064A7C
:104640001343236305E0FFF7E5FF226B034B1340A1
:10465000236310BD24BC000001030000FEFCFFFF2B
:10466000F0B587B0041E00D12CE10378002B05D0F3
:104670001620012B00D031E1994D00E0994D142214
:104680002100280006F0D8FA974B6A689A4200D9B0
:104690006B606B68039303A8FFF70EFF03001820FD
:1046A000002B00D01AE12B78002B02D0012B04D074
:1046B0004DE06B8A012B21D049E02B8A012B16D1CA
:1046C0002233FF330022A021C9000320FEF798FA0D
:1046D00081235B000022AC2109010320FEF790FA40
:1046E0006B8A022B17D0032B00D1EFE02FE06B8AEF
:1046F000022B08D0032B00D1E8E028E00823019327
:104700001021022605E080239B0101938021C9012D
:104710000326012706E080239B0101938021C90124
:104720000326012780235B003B4300223000FEF775
:1047300067FA98235B003B43002201993000FEF7A3
:104740005FFA2B78002B04D0012B08D00CE0192045
:10475000C4E0664AD16940230B43D36104E0634A55
:10476000D16980230B43D3612878012303409B0048
:104770005F4A9E580021FFF759FF287803A9FFF7E9
:104780002FFE002800D09FE0F26A376BA3689905DE
:1047900002D5EF210A4003E0FF210A40EF390A4326
:1047A0005B0502D501231A4301E001239A436023EC
:1047B0009A436B78062B04D0072B05D0052B06D126
:1047C00007E020231A4304E040231A4301E060235A
:1047D0001A4386239A43AC680721214002290BD053
:1047E00002D8012905D00FE0032908D0042909D0F7
:1047F0000AE006231A4307E002231A4304E0822357
:104800001A4301E086231A4318232340082B01D1C1
:104810001A4301E008239A43364B3B40E0212140F4
:10482000402907D0602909D020290AD18021C90157
:104830000B4306E0802109020B4302E0C02109027C
:104840000B43E10502D580210B4301E080218B431E
:10485000FF210A40F2621B041B0C3363736B3F227F
:1048600093437363726B102313437363726B02235E
:1048700013437363EB68002B11D0B26B50231343C7
:10488000B3632B78002B02D0012B04D026E040220A
:10489000194B1A6022E08022174B1A601EE0B36B9E
:1048A00050229343B3632B78002B02D0012B05D009
:1048B00014E040218023104AD1500FE080230E4A9B
:1048C000D3500BE0172009E0182007E080239B015C
:1048D00001938021C9010226032723E707B0F0BD19
:1048E000440D0020300D002040420F000000024027
:1048F00024BC0000FD3F000000E100E070B5012392
:10490000184080000C4BC458A369DB0610D4002A61
:1049100010DD8A180B000120411A1026C8182568DE
:104920001D70A5692E4206D101339342F6D102E0F3
:10493000002000E0002070BD24BC0000F0B5012381
:10494000184080000E4BC458002080250EE0A3695B
:104950001D42FCD00FE001301E782660824203DD4C
:104960000133B842F7D100E007003800904206DA80
:10497000A3691D42EBD00B1807001037EBE7F0BD21
:1049800024BC000010B5084B1B6C50221A4209D001
:10499000054A516C50230B435364044BDB68002BD6
:1049A00000D0984710BDC04600000340300D0020E5
:1049B00010B5084B1B6C50221A4209D0054A516CA5
:1049C00050230B435364044BDB68002B00D0984703
:1049D00010BDC04600800340440D0020F8B50D68AE
:1049E0004C680600002701370A2200232800210016
:1049F00003F09AF9303232700A2200232800210095
:104A000003F092F905000C00084302D00136402F54
:104A1000E9D13800F8BDC04603685A1C026019701D
:104A20007047C0467047C046F0B55F4656464D4693
:104A30004446F0B4C5B00700049192460E9300239B
:104A40009846002A01D001F020F800210498B847C8
:104A500001F066F9252904D00498B847089D01F0B3
:104A600017F8002343AA137033AA137023AA1370F4
:104A7000089D3F33059300239846994609930126E4
:104A80000420013301935EE001355B4644331C781A
:104A9000002C03D00133A242F9D162E0C74B583356
:104AA000197800290FD001338A42F9D103239E439C
:104AB00006434346012B46DC43AB41465A5401238F
:104AC0009C46E0443FE030423DD12E2A04D1019B78
:104AD0009E4302231E4336E01300303B092B1FD8B0
:104AE000019B334207D0302A05D1059B3F2B2AD1A9
:104AF0000F3B059327E0330001998B43022131429C
:104B000007D023A94C460A5501229446E1441E00D1
:104B100019E033A9099C0A55621C09921E0012E093
:104B2000019B33420FD02B2A06D02D2A07D0232AEF
:104B300009D120231E4306E010231E4303E008236F
:104B40001E431833059353465A5D002A01D100F0E5
:104B5000A7FF252A01D101F07FF8202A94D101F086
:104B600083F80194252C01D100F0A7FF202C1CD143
:104B700000F0A9FF25210498B847089B53449846A4
:104B8000013E002401364346A8461D00295D0498D5
:104B9000B8470134A642F9D1454600F079FF2521F6
:104BA0000498B847013500F073FF002343AA41463B
:104BB000535433AA0999535423A948460B541378E4
:104BC00000220992002B03D033A806F001F80990C7
:104BD000059B3F2B01D11F3B0593019B702B04D1FB
:104BE000503B1E4358330193A0E0019B732B03D02D
:104BF000632B00D09AE037E00E9B1A1D08921B68C9
:104C00001293002B01D16D4B1293B30701D400F026
:104C100062FF23AB1B78002B01D100F05CFF23A8BF
:104C200005F0D6FF8046129B1B78002B01D100F0C7
:104C30005AFF421E002802D100F05BFF604A0023A9
:104C40000121019884461400129A0133D05C002897
:104C500001D100F04BFFC81A00190028F5D1984681
:104C60006346019300F045FF0E9B1A1D08921B78C6
:104C70000E930823334099460BD0202305931F3B06
:104C8000984637E008233340994619D10E93984649
:104C900003E0202305931F3B9846099B42469B1A3D
:104CA0005E1E002B06DD019C05990498B847013E65
:104CB000FAD20194019B732B1AD10023994601E08B
:104CC000002398464346002B1AD0129E4346019378
:104CD000444631780498B8470136013C002CF8D19D
:104CE000129B019A944663441293089B0E9309E029
:104CF000002399460E990498B847089B0E9301E04B
:104D0000089B0E934B46002B01D100F0C1FE099B7E
:104D100042469B1A5C1E002B01DC00F0B9FE05998F
:104D20000498B847013CFAD200F0B2FE234B60333E
:104D3000019C1A78002A26D00133A242F9D10194AD
:104D4000231E672B0BD0473B59425941CBB21193DD
:104D5000202322009A431F3B452A02D104E001236D
:104D60001193119B5A1E9341DBB21593019B692B42
:104D700001D100F08AFF1A0000239C460020002188
:104D80000690079176E00194692C04D021006439E3
:104D90004B1E994100E000214346012B01DC00F04D
:104DA000C4FE43AB1B786C2B1DD143AB5B786C2BE3
:104DB00001D000F0AEFF00F0A7FEC0462CBC000002
:104DC000FFFF070043AB1B786C2B0CD10E9B1A1D09
:104DD0001B680693DB1707930E9200239C464346FD
:104DE000012B3EDC1CE00E9B1A1D1B680693DB1793
:104DF00007934346012B13DD0E9200239C4643AAE2
:104E00001278682A2DD143AA5278682A01D000F07E
:104E100093FE9732069B1A4006920023079320E0E8
:104E20004346002B16DD43AB1B78682B16D10E9240
:104E300000239C46002906D0069B1A04130C0693F7
:104E4000002307930DE06B4618229A5E0692D31753
:104E5000079306E00E9200239C4602E00E92002388
:104E60009C46019B692B01D100F06DFE002311933C
:104E700015930022019B752B01D100F072FE642B6B
:104E80002BD100F063FE40220A9B13430A93069B3A
:104E9000079C00225942A24106910792099B013BBF
:104EA000099304E0F606F60F099B9B1B09936346E2
:104EB000002B01D1069A03E00698079902000B0027
:104EC0002092219320A933A8FFF788FD80460C90FB
:104ED00000230F93089300F07CFC2021019803002D
:104EE0008B439846582B0ED0031E6F2B00D0AEE09C
:104EF000593B10936346002B01D000F038FE0B3372
:104F0000109300F034FE102310936346002B01D160
:104F100008331093019B782B07D00F2314930B3B7E
:104F20000F93D24B1C33139306E00F2314930B3BC8
:104F30000F93CE4B08331393502332009A430A92B7
:104F4000069A079B0C921900002308930F9A944627
:104F500020235B429846C44440339B1A1C931D9601
:104F6000019B984608006346AC461D0000E008928D
:104F7000089B5A1C33AB9C18631E0C99149E31403D
:104F8000139E715C1970002D02DB0100E94006E000
:104F90000C990F9BD94003001C9EB340194303009A
:104FA0000F98C3400C9118000B4302D0109B9A42FB
:104FB000DDDB65461D9E2000434601939046B30607
:104FC00001D400F002FC059B302B26D1099B9B1AD3
:104FD000019A6F2A07D19A1E9446013B002B07DCE9
:104FE0002023059327E0DA1E9446023B002B18DDB0
:104FF000002330266246511C019CC6540133CA1A54
:10500000002AFADC0194089B02336246D143C91797
:105010000A409046984420230593019B6F2B02D1B0
:1050200009E02023059333AB424669460979995438
:1050300001239C46E0444346591C0C91302233AB7B
:1050400040461A54884600230F930893C1E3002A70
:1050500001D100F01DFD002200231E921F93B30713
:1050600017D523AB1B78002B01D100F01AFE23A823
:1050700005F0AEFD0890119B002B04D0031E12D149
:10508000013308930FE0089B002B0CD102339E43A1
:1050900009E04346412B04D002231E430433089306
:1050A00001E00D2308930E9B07330722934301323F
:1050B00094469C4462460E9219680C005A68D30FBD
:1050C000DB070A9353005B086948834200D9AFE1CC
:1050D00002D1002900D0ABE1002903D164498B4201
:1050E00000D1ACE153005B0D01D100F0F0FD61494E
:1050F0008C46634402941203120B03924246412AE7
:1051000000D003E1012100220C910D9204E0002364
:1051100000240C930D94584B0299039A08001043F5
:1051200006D1B307DB17089A1A400892002308E05B
:10513000002B06DA5B422093DB1721932D231C0002
:1051400004E02093DB1721932B231C00019B612B90
:1051500001D000F026FD00F013FD33A9CA54089BCE
:105160000C2B61DC0D21C91A8B009C46043B2422C8
:10517000524261468A1802D4039BD34009E02022A0
:10518000D21A029803990C0094400100D9400B00F8
:1051900023430F221340072B27D9089B002B1CD039
:1051A00020235B426246D31803D401229A4017920F
:1051B00006E0202362469B1A00220132DA40179251
:1051C0000123624693401693029A039B16981799FF
:1051D00012184B410292039307E0012200230C981E
:1051E0000D99801859410C900D9120235B42624625
:1051F000D31803D4039ADA4013000AE0202362464E
:105200009B1A029803990A009A4003006146CB401A
:105210001343039A6146CA4002930392089B002BF2
:1052200001DD00F0F8FC45E0089A13000E21494228
:10523000884643449C46131E0D2B01D100F0EBFC25
:1052400033AA0A98804642440D3B434433A988461A
:1052500043443021019C117001329342FBD10194EF
:105260000130030063440A93D8E7C0462CBC000019
:105270000000F07F01FCFFFF02FCFFFF01330F2263
:10528000029802400F98825C01990A700298039973
:105290000A07000903990909024302920391019A3E
:1052A0000132019298450BD09C45E7D162460194AA
:1052B0000A9208E0089B002B05D1B30609D502E04D
:1052C00043460A9301942E2233AB0A995A54013172
:1052D0000A910A990B0001339C460C9A303233AB89
:1052E0005A540231019B612B01D0582300E07823EE
:1052F00033AA604613540A9B033398463023535411
:1053000043460C930A9601230F9362E2029A110D11
:10531000039A120302980003029011430391002B99
:105320000AD1012200231E921F93BD4B37329046B3
:10533000984401230F9388E0002B34DA01220020E7
:1053400000211E901F9159422038081803D4039C55
:10535000C440200006E02020401A039C84400298AC
:10536000C8402043039CCC40A046D207DB431C002E
:10537000203CA44604D414006146CC40A44604E07A
:105380002021C91A14008C40A446DA406346034326
:10539000029343461A430392A14B38229046984405
:1053A00001230F9351E03F21C91A039AD2070298B3
:1053B00040081043039A5208804680242406224362
:1053C0001E901F92002919DB20204042081803D4A8
:1053D0001400C4401E9408E02020401A14008440A9
:1053E00020004446CC4020431E90CA401F928C4A65
:1053F00038218846904401220F9205E0884A3021E6
:105400008846904400220F92202252429A1803D4D8
:10541000029991400A0006E02022D21A0299D14056
:10542000039A9A400A4302999940029103920CE030
:105430007B4B3C229046984400230F9305E0784B29
:1054400030229046984400230F930A9B002B05D0EE
:1054500040231E43099B013B099304E0F306DB0F45
:10546000099AD31A09930F9B002B00D19DE1089A4A
:105470009146159B002B13D01E981F9903000B43D8
:105480000ED0019B984600E0A1464B465C1E0A22C6
:10549000002302F049FC03000B43F5D1434601937E
:1054A000029A039B1100194300D1BFE05D4B1A0023
:1054B0004132FF3200200021AC460A900B91019945
:1054C00088460399002907DA1C685D680A980B99D9
:1054D000001969410A900B910298039904000D008C
:1054E00024184D410294039508339342E9D165464F
:1054F0000A9A0B9B0C920D93444601920A930B233C
:1055000098460A22002301980A9902F00DFC3032D5
:1055100023AB4146CA540A22002301980A9902F09B
:1055200003FC01900A9143465A1E9046E9D2019429
:10553000159B002B1ED01E9B1F9A13431AD14B465E
:10554000591C23AB1B78302B10D11B3B1EAA944651
:1055500063444A460D320131914209D00133581E4D
:1055600000783028F7D08946019403E0894601E0AD
:10557000019491464B460B2B61D823AB4A469B5C6A
:10558000342B5CD90B21891A0C2A13D00122002359
:105590000A958C46940F99002143900012184B41B4
:1055A00092185B416446651EAC46F3D20A9D189082
:1055B000199101E0012200230C980D99801859419E
:1055C0000A900B91E82903D80ED1174B98420BD9BA
:1055D000012200231E981F9912184B411E921F93FF
:1055E000002300240A930B940B239846019C0A2263
:1055F00000230A980B9902F097FB303223AB414607
:10560000CA540A2200230A980B9902F08DFB0A90D3
:105610000B9143465A1E9046E9D201940FE0C046D2
:105620002CBC000098BC0000FF0FA5D40023302242
:10563000019C23A95A5401330C2BFAD101941EA9C1
:1056400033A8FFF7CBF980464B46002B26DAD94327
:1056500033AB5B5C342B21D901220023A9468C4655
:1056600001998846940F99002143900012184B41EC
:1056700092185B416446651EAC46F3D24D464446E3
:1056800001941A901B911E981F9912184B411E925B
:105690001F931EA933A8FFF7A1F98046089B434436
:1056A0000C93159B002B12D033AA4346013BD31811
:1056B000934209D9019C1178187810701970013241
:1056C000013B9A42F7D30194089B05330C93089B46
:1056D000002B01D1B30602D50C9B01330C930C2394
:1056E0009946119B002B6ED023ABDB7A302B00D078
:1056F000F7E2253B019C5A1E23A9515C302900D0BA
:10570000F1E2131EF7D1F1E24346013B33AAD25C2A
:10571000302A07D010E05A1E33A9515C302909D134
:10572000130000E0019C002BF5D198460194012163
:10573000494225E0984601944346591E012B1FD14A
:1057400033AB1B78302B1BD14B46002B1BDD23AB1F
:105750001B78302B1AD11B3B1EAA944663444A4641
:10576000D24301214942019C0139914206D00133C3
:10577000581E00783028F7D0019401E00194110000
:105780000B1D0DDB04E00121494201E001214942EA
:10579000089B8B4204DD40464844431C0C9312E0B6
:1057A00040464844431D0C930DE0414633A805F0A4
:1057B000C7FA404605F0CCFA804622239E430C905F
:1057C0000023089399460A9603E00C9200230F9356
:1057D00008930A9B5A0600D5F4E1DB0600D5F4E1F4
:1057E00008E013990498B84708230A9A1A401092BF
:1057F0001ED182E208230A9A1A40109200D17CE25C
:1058000016E0099B0C9A9B1A5E1E002B08DD019C7A
:1058100000E0019C05990498B847013EFAD2019432
:1058200000231093139B002B02D013990498B847C0
:105830000F9B002B04D14346002B00D0E4E0FAE09C
:10584000159B002BF7D04346013B13934346012B96
:1058500020D133AB1B78302B1CD14B46002B00DC06
:10586000C6E123AB1B78302B00D0BBE10023022222
:105870005242019C4846D61A0133984200D1B9E100
:1058800023A9595C3029F6D001948146ADE101335A
:105890000F9304E033AB1978139E00230F93119BF1
:1058A000002B23D0331D21DB089BB3421EDD434672
:1058B000002B07DD33ACE61821780498B847013493
:1058C000B442F9D14B46002B00DD99E10A9B9B06BF
:1058D00000D59CE1CAE023ABE15C0498B847A6423E
:1058E00000D1C3E001340C2CF5D1BFE00498B847D7
:1058F000089B002B02DC0A9B9B0602D52E210498F4
:10590000B847139B002B19DD089B5A1E002B14DD92
:1059100033A98946013341465B1A08930A9616005B
:10592000019B98464C4661780498B847089BB3425F
:1059300009D10A9E4346019300E00892089B5A1E33
:10594000002B07DC1BE00134013EECD20A9E4346EB
:10595000019314E01300A8463500019A91460F9C6C
:105960001E0030210B2C02DC23AB195D013404989E
:10597000B847013EF5D22E0045464B46019302231F
:10598000019C9C43652C01D0452100E065212B241E
:10599000002E01DA764202340498B84721000498B8
:1059A000B847092E02DC30210498B8470023A846E6
:1059B000B9461D0000E03D006F1C23AB5C190A21B5
:1059C000300002F00FF9303121700A21300002F06E
:1059D00023F8061EEFD12A0045464B46B9461F0064
:1059E00090464B46002B41D023AC4444853644AB13
:1059F000F61AA846049D21782800B847013C3319BF
:105A0000002BF8D1454631E044AE4644453E45239F
:105A100044AA9B1A9846019B9946049C4346A84673
:105A20001D0031782000B847013EAB19002BF8D19A
:105A300045464B4601932023019C9C43462C15D19F
:105A400002330A9A134211D02E210498B847089CB9
:105A5000002C0BD0002630210B2E02DC23AB995DED
:105A600001360498B847013C002CF4D1109B002B60
:105A70000ED0099B0C9A981A441E002808DD05993F
:105A80000498B847013CFAD202E0A94B9B46454630
:105A90006B1C08935346595D002901D0FEF7DAFFCD
:105AA00000210498B8473BE125210498B847089B9A
:105AB00053449846013EFFF764F8089BEE1A002E07
:105AC000F2DCFFF76CF8089BEE1A002E01DDFFF701
:105AD00051F8FFF767F8129B1B78002B01D0FFF7F6
