:020000040800F2
:1000000000800020C1000008FD000008FD0000087D
:10001000FD000008FD000008FD00000800000000D1
:10002000000000000000000000000000FD000008CB
:10003000FD00000800000000FD000008A12E0008DF
:10004000FD000008FD000008FD00000800000000A1
:1000500000000000FD000008F54000081D410008F8
:10006000FD00000800000000493500088D2F000841
:10007000FD000008000000002D2D0008552D00088F
:100080007D2D0008FD00000800000000FD000008B4
:10009000FD0000080000000000000000000000005B
:1000A00000000000000000000000000019320008FD
:1000B000FD000008FD000008FD000008FD0000082C
:1000C00009490A4A0A4B9A42BEBF51F8040B42F84A
:1000D000040BF8E70749084A00209142BCBF41F8E9
:1000E000040BFAE700F0B2F9D498000800000020F1
:1000F000C8040020C80400201C0F0020FEE700BF39
:10010000194B1B681BB1184A1368013B1360174B4E
:100110001B681BB1154A1368013B1360144A13682E
:100120000133136013490A6801320A60B3F57A7F1C
:1001300019D1114A1168114B1960002313600C4A40
:1001400013600F4A13680133136013F0010F05D0D9
:100150000C4A136843F4006313607047094A13683C
:1001600023F4006313607047C80400203C0A002099
:10017000CC040020A80D0020F8040020D0040020AA
:100180000005002000000C402DE9F04389B010224A
:100190000DEB0201012003F065FF002840F38D8084
:1001A00004AE06EB0008464C002704F1010916F8DE
:1001B000015B642D0AD12378C3B96423237067706F
:1001C000204608F047FA13281FD873E0A5F1300342
:1001D000DBB2092B01D92E2D08D1204608F03AFABE
:1001E00000280ADD25542044477006E02770204689
:1001F00008F030FA13285CD85CE0204608F02AFAB0
:10020000132857D92378642B53D163792E2B50D1DF
:10021000237A2E2B4DD1E37A2E2B4AD1A37B2E2B82
:1002200047D1637C2E2B44D1484608F0B5F8ADF891
:100230000E00A01D08F0B0F88DF80D0004F10900C3
:1002400008F0AAF88DF80C0004F10C0008F0A4F8EE
:100250008DF80B0004F10F0008F09EF88DF80A00ED
:1002600004F1120008F098F880B2ADF80800BDF86B
:100270000E2040F2E2739A421BD99DF80D30013BEB
:10028000DBB20B2B15D89DF80C30013BDBB21E2BDB
:100290000FD89DF80B30172B0BD89DF80A303B2B4D
:1002A00007D83B2805D801A902A805F035F902F0C6
:1002B0009FFF2770B0457FF47AAF09B0BDE8F083A7
:1002C000D804002008B5002002F050FE10B1054807
:1002D00005F09CF8002002F051FE10B1024805F034
:1002E00095F808BDF0870008FC87000830B5ADF52B
:1002F0004D7D4A4B1B68DB4313F4F84303D10022C6
:10030000474B1A6087E0464A1268934203D1454A38
:100310001268002A7FD1C821424A1160404A136006
:10032000B3F5805F39D006D8B3F5806F0AD0B3F546
:10033000006F29D06FE0B3F5005F36D0B3F5804F82
:1003400041D068E002F0DCFA0446012003F07AFCB8
:100350000546002003F044F8334B1B680093034626
:100360002A462146314805F051F8314A13680133D5
:10037000136013F0010F2F4A136814BF43F4805326
:1003800023F48053136046E06FF001012A4806F021
:100390008DFA002001F0CCFE3DE00221264806F057
:1003A00085FA002001F0C4FE35E0002104A801F028
:1003B000C9FB002168A801F03FFD68AA04A91F48F5
:1003C00005F024F827E01E4805F020F81D4B1868BA
:1003D00000F0B8FC2022002168A808F08FF8012363
:1003E000009368AB3A226821002001F091FB9DF850
:1003F000A1319DF8A0219DF8A51103919DF8A411AC
:1004000002919DF8A31101919DF8A211009101465E
:100410000D4804F0FBFF0DF54D7D30BD00800B4015
:10042000D4040020C8040020D0040020088800085C
:10043000FC04002000000C40280E00204C8800081E
:1004400078880008380A00208088000808B500F085
:1004500019F8044CFFF74AFF01F07EFF23680133CF
:100460002360F7E7F804002000B583B08DF807108B
:1004700029B101220DF10701104603F015FE03B06A
:100480005DF804FB30B589B00121444802F0E4F87E
:1004900000231A464FF4F841022002F0AFFA20235D
:1004A00000224FF4F841032002F0A8FA3C4802F081
:1004B00079FC3C4802F0AEFB0121002002F098FBE1
:1004C000394B1A681B689B1A312B05D8364900BF77
:1004D0000B689B1A312BFAD9002002F041FB3348FC
:1004E00002F0BCFD02F00CFA05F036F9304A314B4F
:1004F0001A60314803F040FC0121084603F022FC59
:100500002E4802F0E7FE2E4803F02EF82D4802F0A8
:10051000CFFC0121002002F097FC0121002002F015
:1005200015FD0121002002F04BFF0121002003F006
:1005300085F80121002002F04BFE012005F030F982
:100540004FF0C04005F0F2F94FF43E711E4801F043
:10055000FFF91E4D0024069440F2431305930494C2
:100560006FF07F43039308230293152301930094B4
:10057000234622460421284606F020FA144B6B63DA
:1005800040F21A43AB63012001F0D2FD114A136817
:1005900043F480631360204609B030BD00B4C40446
:1005A000A8880008808A0008A80D0020708A00082A
:1005B0006904000844000020548A0008B888000834
:1005C0008C8A0008688A0008CC880008280E002061
:1005D0003405002000000C4000B583B08022426149
:1005E00003689B785B008DF8043040238DF805305C
:1005F0008DF80620032201A9002002F011FF032834
:1006000008BF002003B05DF804FB00BF30B583B025
:100610000546446903689B785B008DF804304023ED
:100620008DF805308DF80640032201A9002002F064
:10063000F7FE032813D1E3B2C4F3072434B1053B1A
:100640009BB27F2B07D80024802304E00533FF2BC7
:1006500084BF0124FF2343EA04246C61002003B01B
:1006600030BD00BF10B582B0144603689B785B00B4
:10067000DBB28DF8043001F0030141F040018DF848
:10068000051042698DF8062043F001038DF8003013
:10069000032201A9002002F0C3FE03280BD102228D
:1006A0006946002002F002FF022804D19DF80130C3
:1006B0002370002001E00023237002B010BD00BFB2
:1006C00010B582B004460DF107020021FFF7CAFF02
:1006D00010BB0DF1060201212046FFF7C3FFE0B970
:1006E0000DF1050202212046FFF7BCFFB0B901AAB7
:1006F00003212046FFF7B6FF88B99DF807109DF843
:10070000062042EA0122E2609DF805109DF80420CF
:1007100042EA0122226102E001E000E0FFE702B0CC
:1007200010BD00BF38B504460D463822002107F041
:10073000E5FE2560044BA362044BE362044B236394
:10074000044B636338BD00BFD90500080D060008DF
:10075000C10600089107000808B5407B07F0D8F9EA
:1007600008BD00BF08B5407C07F0D2F908BD00BF46
:1007700008B5007CC0F1FF00642303FB00F0001209
:1007800007F0CAF9014907F0CFFA08BD000020417F
:100790002DE9F04387B004460D46C668B6F1FF3F29
:1007A00007D101F04DF902461749284604F014FE1E
:1007B00026E0FFF7D1FF80462046FFF7D3FF07462C
:1007C0002046FFF7D5FF0446404606F08DFD8046E3
:1007D0008946204606F088FDCDE90401384606F03A
:1007E00083FDCDE90201F0B207F092F906F07CFD3D
:1007F000CDE9000142464B460449284604F0ECFD91
:10080000284607B0BDE8F083948A0008AC8A000847
:100810000020704700B583B003689B785B008DF8BB
:10082000043010238DF80530022201A9002002F0C7
:10083000F7FD022808BF002003B05DF804FB00BFED
:1008400010B582B0044603689B785B0043F0010357
:1008500002A901F8043D0222002002F027FE02282E
:100860000DD19DF804209DF8053043EA0223E36092
:100870004FF6FF7293420CBF6FF00200002002B0EF
:1008800010BD00BF10B50C46C368B3F1FF3F07D1E0
:1008900001F0D6F802460A49204604F09DFD0DE01D
:1008A000184607F035F9074907F03EFA06F01CFD37
:1008B00002460B460449204604F08EFD204610BD3A
:1008C000E88A00089A99993FEC8A000838B50446EE
:1008D0000D463822002107F011FE2560044BA3626B
:1008E000044BE362044B2363044B636338BD00BFD6
:1008F00015080008110800084108000885080008CC
:100900000020704770B58CB0054602685378052BFF
:1009100028BF0523284951F82340967873008DF8A5
:100920002830F5238DF8293063788DF82A30F423A8
:100930008DF82B3023788DF82C3005220AA9002061
:1009400002F06EFD052834D10223009302ABF4229D
:100950003146002001F0DCF802282AD19DF8082059
:1009600023789A4220D19DF8092063789A421ED1BB
:100970001823009302AB88223146002001F0C8F80A
:10098000182816D12B689C7804F001020B4C0C4BF4
:10099000002A18BF1C4602AD0FCD0FC495E8030016
:1009A00084E80300002004E06FF0020001E06FF033
:1009B00002000CB070BD00BF008B0008FC090020D5
:1009C000140A002030B585B0044603689B785B00AC
:1009D000DBB28DF80C3043F001038DF80430F723BF
:1009E0008DF80D30022203A9002002F019FD022823
:1009F00031D1062201A9002002F058FD06282AD193
:100A00009DF806009DF809109DF807209DF8083014
:100A10001B0243EA02420A439DF804509DF8053048
:100A20001B0243EA054303431B09E36012092261E9
:100A3000014311F00F0F09D1B3F5002F09D0B2F522
:100A4000002F0CBF6FF00200002004E06FF00200E6
:100A500001E06FF0020005B030BD00BF38B50446BC
:100A60000D463822002107F049FD2560044BA362A2
:100A7000044BE362044B2363044B636338BD00BF44
:100A80000509000801090008C5090008DD0C000877
:100A900010B40288C2EB21135200C2EBE101B0F99D
:100AA000022002FB01F103FB03F31B13B0F9044026
:100AB00004FB03F3981300EBE12010BC704700BF68
:100AC0002DE9F84F064617461C46FFF7E1FF24B113
:100AD00000EB800380331B122360C117B0F5FA309E
:100AE00041F1FF3100FB01F3A0FB004505EB43059D
:100AF000B6F90820D31702FB01FE00FB03EEA2FBB0
:100B0000002373444FEA033B4BEA125B4FEA023A7D
:100B1000B6F90A20D31702FB05FE04FB03EEA2FB85
:100B2000042373444FEA122848EA03684FEA232952
:100B30001AEB080A4BEB090B1AF1000A4BF5004BB4
:100B4000F288AAFB028902FB0B994FEA69024FEA7D
:100B5000E97352EA030E00F08B80B6F910A04FEA59
:100B6000EA7B0AFB05FE04FB0BEEAAFB0445754479
:100B7000B6F90E804FEAE87908FB01FE00FB09EEAA
:100B8000A8FB000171444FEA414B4BEAD03B4FEACE
:100B9000404A1AEB040A4BEB050BC7F58017F9170F
:100BA0004FEAC17949EA57094FEAC778B6F90C40CC
:100BB0000020E10010EB0A0041EB0B01B8EB000054
:100BC00069EB0101041841EB010524184D414FEA7E
:100BD000851949EA94694FEA841814EB080445EB37
:100BE0000905AF0047EA94774FEA840E1EEB000434
:100BF00047EB0105AF0047EA94774FEA840E10EB0C
:100C00000E00794107F0E8F9450B45EAC1454C1360
:100C1000B6F91620D31702FB04F705FB0377A2FBF6
:100C200005233B4402FB04F405FB0344A2FB05231C
:100C30002344540E44EAC3145D1624184D41B6F9FA
:100C40001420D31702FB01F100FB0313A2FB0001E8
:100C50001944C20C42EA4132CB14A4185D41230A64
:100C600043EA0563B6F9124020011844BDE8F88F45
:100C70000020BDE8F88F00BF70B582B00D46036854
:100C80009C7804F0010401ABC26801691048114E60
:100C9000002C18BF3046FFF713FF0446000A06F089
:100CA00037FF0646E0B206F033FF4FF06E5106F014
:100CB00087FF314606F07CFE044635B1019806F008
:100CC0002BFF054907F030F82860204602B070BDC0
:100CD000FC090020140A00200000C842F0B587B0CB
:100CE0000C46C368B3F1FF3F07D100F0A9FE0246EE
:100CF0001149204604F070FB1AE005A9FFF7BCFF7C
:100D0000054606F0F1FA06460F46059806F0ECFA9D
:100D1000CDE902010949284606F052FF06F0E4FA3F
:100D2000CDE9000132463B460549204604F054FB1C
:100D3000204607B0F0BD00BF1C8B0008F3CAF53B8E
:100D40002C8B00080023024A1360024A136070478C
:100D50002C0A0020300A002018B1C268B2F1FF3F0F
:100D600006D100231F4A13601F4A136000207047FA
:100D700030B583B001A9FFF77FFF1C4906F020FFC3
:100D800007F0E4F80546174B1C68204606F0C4FE41
:100D9000002107F0A9F840B1124B1D60019807F03F
:100DA000D5F8114B186000201AE00F4B1A68104B51
:100DB00003FB02F20F4B83FB02131344D217C2EB67
:100DC000232303F51C3303F58073601B00FB03F042
:100DD0002C4490FBF4F006F09FFE074906F0A4FFB8
:100DE00003B030BD2C0A0020300A0020D89E193EE6
:100DF00000710200F1000FF0000020410020704758
:100E00000020704770B584B004460523009302AB00
:100E100000225C21104600F07BFE052819D19DF8C8
:100E200008509DF809109DF80A009DF80B206B18DA
:100E3000034413449DF80C60DBB29E4207D141EAA3
:100E40000521E16042EA00222261002001E06FF00A
:100E5000020004B070BD00BF38B504460D4638220C
:100E6000002107F04BFB2560044BA362044BE362B7
:100E7000044B2363044B636338BD00BFFD0D0008C2
:100E8000010E0008050E0008E90E000838B5C46818
:100E9000E0B206F03DFE064906F092FE0546200A45
:100EA00006F036FE0146284606F082FD38BD00BF3A
:100EB000CDCCCC3D38B5046904F07F0006F028FEA7
:100EC000084906F07DFE0546200A06F021FE01468F
:100ED000284606F06DFD14F0800F18BF00F10040A9
:100EE00038BD00BFCDCCCC3DF0B583B004460D4637
:100EF000C368B3F1FF3F07D100F0A2FD02460F49DE
:100F0000284604F069FA16E0FFF7D4FF06462046AB
:100F1000FFF7BCFF0446304606F0E6F906460F46EA
:100F2000204606F0E1F9CDE9000132463B4604498E
:100F3000284604F051FA284603B0F0BDE88A0008BC
:100F4000508B000838B50546002002F079FB0446B6
:100F500060B9552102F0ECFB29680822023100201B
:100F600002F070FC4421002002F0E2FB204638BD74
:100F700010B582B00446002002F062FBF0B94E23A7
:100F80008DF804301E238DF805300F238DF80630C0
:100F90007F238DF80730552102F0CAFB2168082213
:100FA0000231002002F04EFC04220DEB0201002071
:100FB00002F048FC2046FFF7C5FFFFE702B010BD76
:100FC00010B584B00446002002F03AFB50BB552116
:100FD00002F0AEFB216808220231002002F032FC50
:100FE000BE21002002F0A4FB092201A9002002F08A
:100FF0003BFC092101A804F0E5FAA0B99DF80630F0
:101000001E2B13D19DF807300F2B12D19DF80830FD
:101010007F2B11D19DF805209DF8043043EA02236F
:10102000E3600BE00AE06FF0020007E06FF00200FF
:1010300004E06FF0020001E06FF0020004B010BDA8
:1010400038B504460D463822002107F057FA2560CE
:10105000044BA362044BE362044B2363044B6363BE
:1010600038BD00BF710F0008450F0008C10F000810
:10107000D110000838B5C46814F4004F1DBF644295
:10108000A4B201250025C4F3061006F041FD14F0BA
:10109000080F03D04FF07C5106F08AFC14F0040FC7
:1010A00003D04FF07A5106F083FC14F0020F03D006
:1010B0004FF0785106F07CFC14F0010F03D04FF094
:1010C000765106F075FC0DB100F1004038BD00BF4F
:1010D00010B50C46C368B3F1FF3F07D100F0D4FC54
:1010E00002460849204604F077F909E0FFF7C2FFFD
:1010F00006F0FAF802460B460349204604F06CF964
:10110000204610BDE88A0008608B00080020704768
:10111000002070470020704710B50C46C368B3F13B
:10112000FF3F07D100F08CFC02460649204604F040
:1011300053F905E0002200230349204604F04CF94E
:10114000204610BDE88A0008688B000838B50446C0
:101150000D463822002107F0D1F92560044BA36227
:10116000044BE362044B2363044B636338BD00BF4D
:101170000D110008111100081511000819110008BF
:101180000020704730B585B00D4603689C78130A7F
:101190008DF80C308DF80D200223009303AB0A4626
:1011A0002146002000F096FC02281AD10223009369
:1011B00002AB2A462146002000F0AAFC022810D1EA
:1011C0009DF80C209DF808309A4208D19DF80D201A
:1011D0009DF809309A4218BF6FF0020001E06FF0ED
:1011E000020005B030BD00BF10B5044642F667628C
:1011F0000021FFF7C7FF022808D14FF4CC72052168
:101200002046FFF7BFFF022808BF002010BD00BF27
:1012100030B589B0054603689C780223009307AB7C
:1012200001222146002000F073FC022850D1022246
:10123000009206AB2146002000F06AFC022847D14C
:101240000223009305AB03222146002000F060FC3E
:1012500002283DD10223009304AB04222146002042
:1012600000F056FC022833D10223009303AB052281
:101270002146002000F04CFC022829D19DF80C20CA
:101280009DF80D3043EA02231BB2B3F5CC7F1DD18C
:101290009DF81C209DF81D3043EA0223EB609DF869
:1012A00018209DF8193043EA02232B619DF8142081
:1012B0009DF8153043EA02236B619DF810209DF8DC
:1012C000113043EA0223AB61002001E06FF002001D
:1012D00009B030BD38B504460D463822002107F06C
:1012E0000DF92560044BA362044BE362044B2363B6
:1012F000044B636338BD00BFE91100088111000889
:10130000111200088D13000808B5C06810F4004FD2
:1013100009D0404280B206F0FBFB00F100400549D5
:1013200006F04EFC08BD06F0F3FB024906F048FC4F
:1013300008BD00BF0AD7233C08B5036913F0010FAD
:1013400003D04FF0FF3242618261D80806F0E0FB23
:10135000014906F035FC08BD6F12833B08B5806972
:1013600010F4004F09D0404280B206F0D1FB00F1EA
:101370000040054906F024FC08BD06F0C9FB0249FF
:1013800006F01EFC08BD00BF6F12833AF0B595B0A1
:1013900004460D46C368B3F1FF3F07D100F050FB90
:1013A00002462249284604F017F83BE0036913F08F
:1013B000010F03D01E4B0C93049317E0FFF7CEFFF1
:1013C00005F092FF02460B461A490CA804F004F8F7
:1013D000606906F09DFB184906F0F2FB05F084FFFA
:1013E00002460B46154904A803F0F6FF2046FFF716
:1013F000A3FF06462046FFF787FF0446304605F068
:1014000073FF06460F4604AB03930CAB02932046D2
:1014100005F06AFFCDE9000132463B4608492846FF
:1014200003F0DAFF284615B0F0BD00BF808B00083E
:101430002D2D2D00948B00080BD7A33C9C8B00080E
:10144000A48B00080020704710B584B003689C7816
:1014500008238DF80F301D238DF80C3000208DF8F7
:101460000D001B238DF808308DF809000122009231
:101470000DF10F03214600F02DFB012813D10223AB
:10148000009303AB03222146002000F023FB022837
:1014900009D10222009202AB2146002000F01AFB83
:1014A000022808BF002004B010BD00BF30B587B0CF
:1014B000054603689C780223009305AB0022214671
:1014C000104600F025FB022849D10223009304AB0B
:1014D00003222146002000F01BFB02283FD10222FC
:1014E000009203AB2146002000F012FB022836D107
:1014F000012200920DF117032146002000F008FBA5
:1015000001282CD19DF8153013F01F0F1CD19DF828
:1015100010109DF8112042EA0122B2F5E85F16D1C1
:101520009DF80C109DF80D2042EA0122B2F5D85F1B
:1015300010D19DF81720082A0FD19DF8142043EAF6
:101540000223EB6000200AE06FF0020007E06FF07A
:10155000020004E06FF0020001E06FF0020007B04B
:1015600030BD00BF38B504460D463822002106F0D4
:10157000C5FF2560044BA362044BE362044B236365
:10158000044B636338BD00BF4914000845140008CC
:10159000AD140008E515000838B5C46814F4004F10
:1015A0001DBF6442A4B201250025C4F3072006F044
:1015B000AFFA14F0800F03D04FF07C5106F0F8F929
:1015C00014F0400F03D04FF07A5106F0F1F914F007
:1015D000200F03D04FF0785106F0EAF90DB100F179
:1015E000004038BD10B50C46C368B3F1FF3F07D1CA
:1015F00000F026FA02460849204603F0EDFE09E015
:10160000FFF7CAFF05F070FE02460B46034920466D
:1016100003F0E2FE204610BDE88A0008608B000857
:101620000020704710B586B00446036899780E23F1
:10163000009302AB3B22002000F06AFA0E2831D161
:101640009DF808209DF8093043EA0223E3609DF8E5
:101650000A209DF80B3043EA022323619DF80C20F9
:101660009DF80D3043EA022363619DF80E209DF83A
:101670000F3043EA0223A3619DF810209DF811303A
:1016800043EA0223E3619DF812209DF8133043EAF8
:10169000022323629DF814209DF8153043EA0223AB
:1016A0006362002006B010BD10B586B003689C7858
:1016B00001228DF80F2003218DF814108DF81510DC
:1016C0005B780B402949C95C8DF81610284951F800
:1016D0002310284B196003685B78C3F38103264904
:1016E000C95C8DF81710254951F82310244B196057
:1016F00000920DF10F036B222146002000F0EAF961
:10170000012830D10423009305AB19222146002083
:1017100000F0E0F9042826D1012300930DF10E0317
:101720006B222146002000F0F3F901281BD104238D
:10173000009304AB19222146002000F0E9F90428A7
:1017400011D19DF80E209DF80F309A4209D1042244
:1017500005A904A806F02AFE002818BF6FF00200B1
:1017600001E06FF0020006B010BD00BFFC8B000866
:10177000D88B00083C000020C48B0008C88B0008F0
:101780003000002038B504460D463822002106F00E
:10179000B5FE2560044BA362044BE362044B236354
:1017A000044B636338BD00BFA9160008211600086A
:1017B00025160008E91800082DE9F04781460F4674
:1017C000454B1E68C368DFF81C81B8F80000181A82
:1017D00000B206F0A1F9314606F0A6FA0546D9F89E
:1017E0001030B8F80200181A00B206F095F9314628
:1017F00006F09AFA0446D9F81430B8F80400181A1A
:1018000000B206F089F9314606F08EFA82460146AA
:1018100006F0D6F906462946284606F0D1F9804654
:101820003146404606F0C4F805F05EFD05F0B2FA18
:1018300080468946204605F057FD42464B4605F056
:10184000D1FE05F005F920A3D3E9002305F0A0FDA2
:1018500006F058F880460021504606F04FFB10B9BC
:10186000C7F800800FE00021204606F047FB28B1B2
:1018700041461A4806F09AF8386004E04146184894
:1018800006F094F838602146204606F099F9314672
:1018900006F08EF805F028FD05F07CFA80468946B2
:1018A000284605F021FD42464B4605F09BFE05F01B
:1018B000CFF807A3D3E9002305F06AFD06F022F86C
:1018C0007860BDE8F08700BF00000020DCA54C4038
:1018D00000000020DCA54CC030000020000034C314
:1018E0000000344334000020D0B584B00C46C368F7
:1018F000B3F1FF3F07D100F0A3F802460D4920469F
:1019000003F06AFD12E002A9FFF756FF029805F006
:10191000EBFC06460F46039805F0E6FCCDE9000116
:1019200032463B460449204603F056FD204604B0AB
:10193000D0BD00BFE88A0008E88B000800F108036A
:1019400024304FF0FF3243F8042F8342FBD170471D
:101950002DE9F84F81468B46344D05F544772C46EA
:101960004FF03808002642463146204606F0C6FDB4
:101970003834A742F7D100232D4A13602D4A136053
:10198000B9F1000F43D009F11C0409F5D279274EB3
:10199000DFF89C809246A4F11C0114F81C3C013B2A
:1019A000082B31D8DFE803F005090F13171B1F239D
:1019B00027003046FEF78AFF20E03046FFF74EF85A
:1019C000CAF800601AE03046FFF746FA16E03046E3
:1019D000FFF736FB12E03046FFF7B8FB0EE030466B
:1019E000FFF778FC0AE03046FFF7BCFD06E0304622
:1019F000FFF7C8FE02E03046FEF794FE3836D8F80E
:101A000000300133C8F800301C34A145C3D128464A
:101A1000FFF794FF3835BD42F9D1074BC3F800B04A
:101A20000022064B1A60BDE8F88F00BF480A00206C
:101A3000340A0020380A002040000020580D002001
:101A4000B0F908300333032B10D8DFE803F00D1191
:101A5000020408487047C068074A064BB0F1FF3FD0
:101A60000CBF18461046704704487047044870473A
:101A700004487047548C0008008C00085C8C0008F7
:101A8000608C0008588C0008B0F908300333032B31
:101A900010D8DFE803F00D02110408487047C06851
:101AA000074A084BB0F1FF3F0CBF1846104670477D
:101AB000054870470548704705487047588C00082E
:101AC000008C0008548C00085C8C0008608C0008B6
:101AD000648C000870B5A0B00646249C7E2CA8BF7C
:101AE0007E2449008DF800108DF801202246194609
:101AF0000DF1020006F08CFCA51C2A466946304612
:101B000001F08EFC854208BF204620B070BD00BFAA
:101B100030B583B005461C46490041F001032370EF
:101B20008DF804108DF80520022201A901F078FC3F
:101B3000022804D1069A2146284601F0B7FC03B0DA
:101B400030BD00BF2DE9F04FADB00E900F46002321
:101B500003700325784C0E2210A9002001F096FE98
:101B60000646002800F03C816423236000BF236800
:101B70001BB100BF2368002BFBD1013DEBD13BE142
:101B80006E4B6F49002F08BF0B466E490E9803F04D
:101B900023FC304641E12C46731E422B00F2878025
:101BA000DFE803F088228525282B852E3134373A4B
:101BB00085853D4085438546858585858549854C58
:101BC0004F85525558855B5E856164676A85856D72
:101BD00070858573858585858585768585798585F7
:101BE000858585857C7F8200574B0D9364E0574B3C
:101BF0000D9361E0564B0D935EE0564B0D935BE009
:101C0000554B0D9358E0554B0D9355E0544B0D93A8
:101C100052E0544B0D934FE0534B0D934CE0534B1C
:101C20000D9349E0524B0D9346E0524B0D9343E028
:101C3000514B0D9340E0514B0D933DE0504B0D93B4
:101C40003AE0504B0D9337E04F4B0D9334E04F4B40
:101C50000D9331E04E4B0D932EE04E4B0D932BE048
:101C60004D4B0D9328E04D4B0D9325E04C4B0D93C0
:101C700022E04C4B0D931FE04B4B0D931CE04B4B64
:101C80000D9319E04A4B0D9316E04A4B0D9313E068
:101C9000494B0D9310E0494B0D930DE0484B0D93CC
:101CA0000AE0484B0D9307E0474B0D9304E0474B88
:101CB0000D9301E0464B0D930E9F384606F0CAFC8B
:101CC0003B4603440A930B9661780C91A678E7781B
:101CD00094F8048094F8059094F806A094F807B05E
:101CE0000821204603F06EFC3A4A3B4B00280CBF0B
:101CF000184610460F9A089207900D9A0692CDF852
:101D000014B0CDF810A0CDF80C90CDF80880019754
:101D100000960C9B0B9A31490A9803F05DFB267ADA
:101D200036B108352CABAB427FF435AF002074E000
:101D3000002072E0002070E03C0A0020BC8C00080B
:101D4000B88C0008408E0008CC8C0008D48C0008A9
:101D5000E48C0008EC8C0008F48C0008FC8C000873
:101D60000C8D0008148D0008248D00082C8D0008AF
:101D70003C8D0008448D0008548D0008648D0008D7
:101D80006C8D0008788D0008808D0008888D000813
:101D9000908D0008988D0008A88D0008B88D000867
:101DA000C08D0008148C0008C88D0008D08D000874
:101DB000D88D0008E88D0008F08D0008F88D000827
:101DC000008E0008188E0008248E0008308E00084F
:101DD000C48C0008388E0008F8870008488E000878
:101DE0009DF84060002EA5D00D4B0E4A002F18BF65
:101DF0001A460F9210ADCEE616F1020F09D0B6F1D9
:101E0000FF3F08D0084A094B16F1030F08BF1A46D6
:101E1000B6E6074AB4E6074AB2E62DB0BDE8F08F51
:101E2000BC8C0008B88C0008A88C0008948C0008B2
:101E30007C8C0008688C00082DE9F04F85B0814645
:101E4000002505708B46A94BA94AA9420CBF9246B2
:101E50009A465FFA85F86B0043F001038DF80C3069
:101E60000324012700263A4603A9304601F01EFB51
:101E7000012857D0013CF6D130E1484606F0EAFB94
:101E80009A4B9B4ABBF1000F18BF1A469949484428
:101E900003F0A2FA6FF0010025E1974C22E0974C85
:101EA00020E0974C1EE0974C1CE0A8F14803DBB201
:101EB000072B10D9A8F12003DBB2072B0DD9A8F10D
:101EC0003803DBB2072B0AD88F4C904BB8F13E0F8A
:101ED00008BF1C4606E08E4C04E08E4C02E08E4C9F
:101EE00000E08E4C484606F0B5FBCDF800A0234636
:101EF00042468B49484403F06FFA013515F0800FD4
:101F0000A7D099F800305BB9784B794ABBF1000F44
:101F100018BF1A468349484603F05EFA0020E2E003
:101F20000020E0E0A8F11003672BBED801A252F810
:101F300023F000BFD9200008AB1E0008AB1E00082C
:101F4000AB1E0008AB1E0008AB1E0008AB1E00084D
:101F5000AB1E0008AB1E0008AB1E0008AB1E00083D
:101F6000AB1E0008AB1E0008AB1E0008D520000801
:101F7000AB1E0008AB1E0008AB1E0008AB1E00081D
:101F8000E31E0008AB1E0008AB1E0008AB1E0008D5
:101F9000AB1E0008AB1E0008AB1E0008AB1E0008FD
:101FA000AB1E0008AB1E0008AB1E0008AB1E0008ED
:101FB000AB1E0008AB1E0008AB1E0008AB1E0008DD
:101FC000AB1E0008AB1E0008AB1E0008AB1E0008CD
:101FD000AB1E0008AB1E0008AB1E0008AB1E0008BD
:101FE000AB1E0008AB1E0008AB1E0008AB1E0008AD
:101FF000AB1E0008A71E0008A71E0008AB1E0008A5
:10200000AB1E0008A71E0008A71E0008AB1E000894
:10201000AB1E0008AB1E0008AB1E0008AB1E00087C
:10202000AB1E0008AB1E0008AB1E0008AB1E00086C
:10203000AB1E0008AB1E0008AB1E0008AB1E00085C
:10204000AB1E0008AB1E0008AB1E0008AB1E00084C
:10205000AB1E0008AB1E0008AB1E0008AB1E00083C
:10206000AB1E00089B1E0008AB1E0008AB1E00083C
:10207000AB1E0008AB1E0008AB1E0008AB1E00081C
:10208000AB1E0008AB1E0008AB1E0008AB1E00080C
:10209000AB1E00089F1E00089F1E0008AB1E000814
:1020A000AB1E0008AB1E0008AB1E0008AB1E0008EC
:1020B000AB1E0008AB1E0008AB1E0008AB1E0008DC
:1020C000AB1E0008AB1E0008AB1E0008A31E0008D4
:1020D000A31E0008144C05E7144C03E710F1020F8F
:1020E0007FF40BAFC9E605B0BDE8F08FBC8C0008EB
:1020F000B88C0008C48E0008748E0008848E000816
:102100000C8C0008248C0008B88E0008A48E0008EF
:10211000948E00088C8E0008308E0008048C000815
:10212000DC8E0008E88E00081C8C00084C8C00082F
:102130002DE9F04F91B00790794BD3F834B0794B3B
:10214000186803F079FF784A13680133136003F0CD
:102150000103002B14BF3A232023069300238BF89E
:102160000030724B1B68002B00F08880704F4FF0DE
:10217000000A3D467B6B002B69D0584606F06AFA90
:102180000BEB000305933C680A34204606F062FA24
:10219000864600283ADD08A800210A4640F2014898
:1021A00040F25149A35C13F0800F01D1013227E0C6
:1021B000A618767806EB03239EB2B31003F4F863F7
:1021C00006F03F0633439EB2464513D04E4513D02A
:1021D000A6F5826C1FFA8CFCBCF11F0F02D8503B95
:1021E000DBB20CE0A6F58666B6B21F2E06D8503BD1
:1021F000DBB204E0A82302E0B82300E02E23023281
:10220000013100F8013B9645CCDC00E0002110AB29
:102210001944002301F8203C069B08AA454905986B
:1022200003F0DAF8584606F015FA6B6B0BEB000179
:1022300028469847584606F00DFAEB88002B14BF45
:10224000212220223C49584403F0C6F80EE05846AB
:1022500006F000FAFB88002B14BF212320230093F3
:10226000FB6852463549584403F0B6F80AF1010AB2
:1022700038372E4B1B6853453FF67BAF584606F068
:10228000E9F90BEB00042E4B1868FEF765FD05F02D
:102290002BF802460B462B49204603F09DF800F030
:1022A000B1FF0EA903F0D2F8584606F0D3F958440E
:1022B0009DF83C209DF83D30BDF83E10B1F5FA6F19
:1022C0008CBFA1F5FA61A1F26C719DF83A400394BC
:1022D000069C02949DF83B40019400911A4903F03A
:1022E0007BF8584606F0B6F9184B1B68184A19498E
:1022F000584403F071F8079B1BB1094804F04EFBEA
:1023000002E0074804F00AFB064C0549206804F087
:10231000FFF8206803F0A6FD11B0BDE8F08F00BF04
:10232000280E002000000020400A0020340A00206F
:10233000480A0020188F0008288F0008208F000806
:10234000380A00202C8F0008388F0008D0040020A5
:10235000548F00085C8F0008674B1B68032B00F04C
:102360009280042B40F0A380644B1B68644A12687F
:102370009B1A022B40F29A8070B5624B1C68624B2C
:102380001B689C4274D2631C5E4A1360C4EBC40594
:102390005E4B03EBC5052B7913F0010F3CD02B6B83
:1023A00023B128469847002840F08C80C4EBC40332
:1023B000564A02EBC303DB6A002B00F08A802846F2
:1023C0009847C4EBC403514A02EBC3031881A0B180
:1023D0002846FFF7B3FA4D4BE200111B03EBC10196
:1023E000087920F0010008710B46494A116842F251
:1023F0001072B2FBF1F2DA8040E0C4EBC403434A4E
:1024000002EBC303DB88002B38D0C4EBC40402EB1F
:10241000C404013BE38031E0C4EBC4033B4A02EB5C
:10242000C3039B6A002B5CD0284698470646C4EB42
:10243000C403364A02EBC30318812846FFF77EFA2D
:1024400066B1C4EBC404314B03EBC404304B1A68CF
:1024500042F21073B3FBF2F3E3800FE02B4BE20088
:10246000111B03EBC1010B7943F001030B7105E074
:102470000020FFF75DFE03221F4B1A601F4B1A68F6
:102480001F4B1A6070BD1D4B1B681D4A12689B1ABA
:102490001F4A1268934209D900221A4B1A6004227B
:1024A000154B1A60154B1A68154B1A6070470022BD
:1024B000144B1A600322104B1A60104B1A68104B11
:1024C0001A607047C4EBC403104A02EBC3031881BF
:1024D0007EE7C4EBC4030D4A02EBC30300221A815A
:1024E0008BE7C4EBC403094A02EBC30300221A8141
:1024F0002846FFF723FAB1E7580D0020A80D002069
:10250000440A00205C0D0020340A0020480A002004
:1025100040000020042834D8DFE800F0030F1B2718
:102520000300194BDB6B13F4800F1DBF164BD86BE8
:10253000C0F3C0500020C0B27047144B9B6813F02A
:10254000010F1DBF114B1868C0F380000020C0B2FE
:1025500070470D4BDB6B13F0010F1DBF0A4BD86B9F
:10256000C0F340300020C0B27047074BDB6B13F460
:10257000004F1DBF044BD86BC0F340500020C0B2C9
:1025800070470020704700BF00800D4000000240EF
:1025900011BB042858D8DFE800F0030A1118030023
:1025A0002B4AD36B23F48003D36301207047294A5D
:1025B000936823F00103936001207047244AD36B92
:1025C00023F00103D36301207047214AD36B23F426
:1025D0000043D36301207047042837D8DFE800F0B8
:1025E000030E1E2903001A4AD36B43F48003D363FE
:1025F000D36B13F4000FFBD001207047154B9A6882
:1026000042F001029A609A6822F002029A601A4629
:10261000136813F0040FFBD0012070470C4AD36BF2
:1026200043F00103D363D36B13F4005FFBD00120AD
:102630007047074AD36B43F40043D363D36B13F45F
:10264000001FFBD00120704700207047002070471A
:1026500000800D40000002402DE9F04F83B0A04BF8
:102660001960042900F2DC80DFE811F00C000C0096
:10267000E0000500E7004FF007080023019349F64A
:10268000404AE0E0974F874228BF07463846964EBB
:102690004FF0000C4FF00708CDF804C0E246DFF819
:1026A00058E2DFF858B289461CE0DA1DD1B226FAAA
:1026B00003F272450AD8BA422CBFD41BBC1A84421A
:1026C00003D2884601959246204614B10133092B66
:1026D000EBD158B10CF1010C06F5F40606F5905655
:1026E0005E4503D000235FFA8CF5DEE749467F4B59
:1026F0009A4540F2A8801420D1E06BA3D3E90023CF
:102700003046394605F0B6F858BB69A3D3E9002333
:102710003046394605F0AEF828BB67A3D3E900235D
:102720003046394605F0A6F8F8B965A3D3E9002389
:102730003046394605F09EF8C8B963A3D3E90023B3
:102740003046394605F096F898B961A3D3E90023DD
:102750003046394605F08EF8002814BF06230723BB
:102760000AE0012308E0022306E0032304E0042337
:1027700002E0052300E00023DB005D4A136002F560
:102780000042D36823F00303D36001212046FFF702
:10279000FFFE002846D0042C46D8DFE804F0031AD8
:1027A0000C130300042C19D1524AD36823F440734C
:1027B000D360002073E04F4AD36843F40073D360C2
:1027C00000206CE04B4AD36843F44073D360002090
:1027D00065E0484AD36843F00203D360454B5A682A
:1027E00022F470625A605A68019942EA01225A60E2
:1027F0005A6842F004025A601A46136813F0020F36
:10280000FBD03C4BDA6822F0F002DA60DA6842EA88
:102810000812DA60DA6842F48272DA6000203EE080
:1028200014203CE014203AE0152038E04FF007086F
:10283000002301934FF4004A05E04FF007080023FE
:102840000193DFF8A4A00C462A4BDA6942F0080293
:10285000DA61DA6942F01002DA61DA6942F02002E4
:10286000DA61DA6942F40062DA61DA6942F48052CC
:10287000DA61DA6942F40052DA61DA6942F0006240
:10288000DA61504604F00EFD06460F4612A3D3E966
:10289000002304F0EFFF00287FF46DAF2DE703B0B5
:1028A000BDE8F08FAFF300800000000084D78741BF
:1028B00000000000A3E191410000000084D797418F
:1028C0000000000065CD9D4100000000A3E1A14192
:1028D0000000008093DCA4410000000084D7774111
:1028E000600D002000F36F0600127A007F778E06DD
:1028F000008001400000024080778E0600321B08F5
:1029000038B53B4BDB68C3F30123022B0AD0032B02
:1029100011D0CBB90020FFF7FDFD0028354808BFD6
:10292000002038BD0220FFF7F5FD002814BF4FF44A
:102930000040002038BD0320FFF7ECFD002849F6D9
:10294000404008BF002038BD294BDB6803F003037B
:10295000032B23D8DFE803F0020A121A0020FFF746
:10296000D9FD0028234808BF002018E00020FFF709
:10297000D1FD0028204808BF002010E00120FFF70B
:10298000C9FD00281B4808BF002008E00120FFF710
:10299000C1FD0028184808BF002000E00020144BAB
:1029A000DB6813F0040F0CD0114B5B6813F0040FBD
:1029B00006D00F4B5B68C3F3032303FB000000E06A
:1029C00000200B4BDC68C4F30314062C98BF0724CB
:1029D00005F09EF80546073C0120A04005F09CF854
:1029E0000146284605F0A0F905F0D6FA38BD00BF2B
:1029F0000000024000127A0000093D00052800F2A4
:102A000093802DE9F04F87B04A4C54F820C04A4ECD
:102A1000F4694A4D285C00F01F050120A8402043BE
:102A2000F061DCF800B0DCF804000190DCF808602C
:102A3000DCF80C000290DCF810000390DCF81400C5
:102A40000490DCF81840DCF81C00059089B203F013
:102A5000030AC3F301198E4600254FF003081EF048
:102A6000010F0AD008FA05F0C04306400AFA05F73C
:102A70003E43204009FA05F404434FEA5E0E023556
:102A8000202DECD103F00F00042802980CBF8843DE
:102A9000084313F0F00F0CD1CF43019D3D4013F4D8
:102AA000005F02D0059F0F430DE0059A3A4017469C
:102AB00009E0019D0D43059F27EA01078BEA020209
:102AC0000A408BEA020B13F4807F039A14BF42EA98
:102AD000014E22EA014E13F4007F14BF4EEA010EAC
:102AE0002EEA010E13F4806F049A14BF42EA0142E9
:102AF00022EA014203F4C053B3F5006F0CBF114347
:102B000022EA0101CCF800B0CCF80450CCF80860FF
:102B1000CCF80C00CCF810E0CCF81410CCF818402D
:102B2000CCF81C70002001E01620704707B0BDE80B
:102B3000F08F00BF648F0008000002407C8F000807
:102B400006494B6D00F00300012202FA00F023F069
:102B5000070303439BB24B65704700BF00000F4063
:102B600008B5054AD36943F08043D3610120FFF7DC
:102B7000E7FF002008BD00BF00000240B0B3F8B579
:102B80000446FFF7BDFE0023A3602668B646012574
:102B90004FF6FD77B0FBFEF35A1E023BBB4203D853
:102BA000626000202073F8BD0122D1B205FA02F361
:102BB00006FB03F3B0FBF3F303F1FF3C023BBB4224
:102BC00004D8C4F804C021730020F8BD0131C9B293
:102BD0000132082AE9D1A5600135B644B5F1011FDB
:102BE000D8D1C4F804C021731420F8BD1420704754
:102BF00000F00300064B53F8203021B1DA6842F0B0
:102C00000102DA607047DA6822F00102DA60704788
:102C1000848F000830B585B0002874D00278022A6D
:102C200073D80546436804A840F8103DFFF7A6FF97
:102C3000044600286BD12B7803F00303364A52F880
:102C4000233028686968AA68186059609A60334818
:102C5000C2692B7803F003033149CB5C03F01F01F9
:102C600001238B401343C36100212878FFF7C0FF85
:102C70002B78032B2BD0AA6842B10E3303F01F032D
:102C8000012202FA03F3274A136008E00E3303F02F
:102C90001F03012202FA03F3224AC2F880301F4BBD
:102CA0005A6A2978C800FF21814022EA01025A624B
:102CB0005A6A9DF80C102878C00081400A435A6275
:102CC0005A6A28784FF0807181400A435A622B7803
:102CD00003F00303144A52F823300022DA60BDF8EF
:102CE00008205A60AA6822B19A6D42F001029A65E2
:102CF00003E09A6D22F001029A6500221A60BDF885
:102D000004209A6004E0172402E0172400E0142451
:102D1000204605B030BD00BF948F0008000002407F
:102D2000908F000800E100E0848F000808B5074B91
:102D30005B6D13F0010F08D0044A536D23F00103BB
:102D40005365034B9B6803B1984708BD00000740DB
:102D5000640D002008B5074B5B6D13F0010F08D020
:102D6000044A536D23F001035365034B9B6803B181
:102D7000984708BD00800740700D002008B5074B3C
:102D80005B6D13F0010F08D0044A536D23F001036B
:102D90005365034B9B6803B1984708BD000008408A
:102DA0007C0D0020002848D070B50546244E3446DE
:102DB00000686968AA68EB680FC411B94FF47A72A9
:102DC0007260204B1A6822F003021A6000229A6097
:102DD000AB68032B0BD101210320FFF7D9FB194A64
:102DE000136823F00403136049F6404006E0154AD7
:102DF000136843F004031360FFF782FD104B5B6818
:102E0000B0FBF3F0013805D06FF07F43984228BF44
:102E1000184600E001200B4B5860EB6833B1094ABB
:102E2000136843F002031360002070BD054A136865
:102E300023F002031360002070BD1720704700BF0D
:102E4000880D002010E000E029B1064A136843F025
:102E5000010313607047034A136823F001031360F2
:102E6000704700BF10E000E00C4B1A6822F001022E
:102E70001A6000229A6021F07F4159601A6842F07E
:102E800001021A601B6813F4803F05D1034A00BF9A
:102E9000136813F4803FFAD0704700BF10E000E0E1
:102EA00008B5024BDB6803B1984708BD880D0020C8
:102EB00000283FD010B404464268204B1A60204AD4
:102EC000D36943F40063D36100221E4B1A60437838
:102ED00003F00103D802A278E378132A04D9222A46
:102EE00028BF2222114600E01421112B04D91E2BE9
:102EF00028BF1E231A4600E01222A1F114039B00F2
:102F000003F4FF63123A520802F4FF7213430343BF
:102F1000626832B143F440734FF400610A4A1160B1
:102F200004E04FF40061084AC2F88010054A1360BB
:102F3000002001E01720704710BC7047180F0020D8
:102F4000000002400080054000E100E029B1064A8F
:102F5000136843F0010313607047034A136823F0BA
:102F600001031360704700BF00800540024B1868E2
:102F7000C0F3C010704700BF00800540024B1868C6
:102F8000C0F38010704700BF0080054010B50B4BA8
:102F90001C6814F4207F05D0094B1B6803B19847C7
:102FA00024F4207414F4A07F05D0054B1B6803B1F2
:102FB000984724F4A074014B1C6010BD00800540AC
:102FC000180F002070B400283AD001464368012B46
:102FD00009D9032B24D0012B88BF4FF4004322D8FA
:102FE0004FF4004400E01B4C07238B600D68B4FBDA
:102FF000F5F3CB60013B184A934223D826E0D31F58
:1030000005FA03F3B4FBF3F3581EB04201D8CB60CA
:103010001CE001328A60102AF1D1CB60142016E046
:1030200049F64043FFE707228A600868B3FBF0F0E7
:10303000C8600138084B98428CBF1420002006E07D
:10304000142004E008228A60034ED8E7002070BCF8
:10305000704700BF00127A00FEFF0F00F0B585B088
:10306000002800F0A680044643680093836801931B
:103070006846FFF7A7FF0546002840F09C80504FA8
:103080003E4620686168A268E3680FC64D4BDA6966
:1030900042F00062DA614C4AD16B21F01001D16339
:1030A000D16B21F00C01D1639A6922F440729A61CC
:1030B000BB68012B0CD013B3032B38D101210320A3
:1030C000FFF766FA404AD36B23F00C03D36337E073
:1030D0003C4CA36923F00F03A361A269029B134335
:1030E000A36101210846FFF753FAA36943F48073F3
:1030F000A361354AD36B43F00C03D36320E0314C1A
:10310000A36923F0F003A361A369029A43EA0213BF
:10311000A36101210020FFF73BFAA36943F4007388
:10312000A361294AD36B43F00803D36308E001216C
:103130000220FFF72DFA244AD36B43F00403D36334
:10314000214BDA6B22F4FF52DA63DA6B1C4989787F
:1031500042EA4112DA631A46136D13F0400FFBD1B5
:10316000194B039A9A641A46136D13F0400FFBD162
:10317000154A136D43F002031365136D13F0400FEE
:10318000FBD10F4BDB684BB10F4A136D43F01003BB
:1031900013654FF000620D4B1A600DE00A4A136D83
:1031A00023F0100313654FF00062084BC3F8802032
:1031B00002E0172500E01425284605B0F0BD00BF49
:1031C000980D00200000024000800D4000E100E06A
:1031D00029B1064AD36B43F01003D3637047034A07
:1031E000D36B23F01003D363704700BF00800D4002
:1031F000034A136D13F0400FFBD1014B1864704765
:1032000000800D40034B1A6C186C824218BF186C7A
:10321000704700BF00800D4008B50A4B1B6D13F0CE
:10322000020F0DD0074A136D13F0400FFBD1054A72
:10323000136D43F002031365034BDB6803B198473A
:1032400008BD00BF00800D40980D00200E4B1A688D
:10325000C8320E4B1B6913F0020F0DD00A4B1B68CE
:103260009A4209D90949084800BF0B6913F0020FB7
:1032700002D003689A42F7D8034B186882424FF095
:10328000FF3088BF00207047A80D002000000540D7
:103290000E4B1A68C8320E4B1B6913F0400F0DD04D
:1032A0000A4B1B689A4209D90949084800BF0B69B3
:1032B00013F0400F02D003689A42F7D8034B186806
:1032C00082424FF0FF3088BF00207047A80D0020D9
:1032D0000000054038B50446334D00686168A268B7
:1032E000E3680FC520692860236913B1012B08D05A
:1032F00035E040F63213032211460220FFF77EFB31
:103300002FE040F633134FF4404211460420FFF7FC
:1033100075FB26E04FF6FF70984228BF184600E084
:103320000120C2B2214B1A60C0F3072058606368C5
:103330001F4A93428CBF20230023E26832B143F03E
:1033400040034FF480611B4A116004E04FF4806138
:10335000184AC2F88010154A9360002038BD192021
:1033600038BD154AD36943F48063D3610F4B002203
:103370009A619A60FFF7C4FA04F0CAFB05466068D8
:1033800004F0C6FB0D4904F01BFC4FF07E5104F025
:103390000DFB0146284604F0C7FC04F0FDFD034682
:1033A0000028BDD0B6E700BFAC0D002000000540EE
:1033B000801A060000E100E0000002400000A0408A
:1033C00029B1064A936843F0800393607047034A2B
:1033D000936823F080039360704700BF00000540AE
:1033E00070B5FFF78DFA0C4B5E681D6804F090FB1A
:1033F000044645EA062004F08BFB0146204604F013
:1034000093FC4FF07E5104F0D3FA044904F08CFC95
:1034100004F0C2FD70BD00BF000005400000A040E8
:103420002DE9F0410D461646FFF732FF002837D14F
:103430002B7803F0FE031C4A536190239361FFF73E
:1034400005FFD0B9184B1B6913F0800F18D1012E5E
:1034500019DD0127144C4FF0100815F8013F636186
:10346000C4F81880FFF7F2FE78B9236913F0800FD3
:103470000ED10137BE42F0D10CE06FF0010609E039
:103480004FF0FF3606E0012604E06FF0010601E090
:103490004FF0FF364022044B9A613046BDE8F08180
:1034A0006FF00100BDE8F081000005402DE9F0411A
:1034B0000E461546FFF7ECFE002837D1337843F06F
:1034C0000103204A536190239361FFF7BFFEE8B9DF
:1034D0001C4B1B6913F0800F1BD1002D1CDD013E1E
:1034E0000024184F4FF020080134A54206D12822AD
:1034F000144B9A61FFF7AAFE00B30FE0C7F81880DB
:10350000FFF7A4FEB0B16FF0010509E06FF001050F
:1035100006E04FF0FF3503E0002501E06FF0010504
:103520004022084B9A612846BDE8F0816FF0010007
:10353000BDE8F081FB6806F8013FD5E7014BDB6889
:103540007370EDE70000054008B5054A936943F044
:1035500001039361034BDB6803B1984708BD00BFCB
:1035600000000540AC0D0020002848D0F8B5438885
:103570001C0A052C45D8DBB20F2B44D8234E244A15
:1035800052F824203260234D012202FA03F32B600B
:10359000FFF7B6F9204BA3FB00239B0CD900CF1AF1
:1035A0001E4A17604FF4FA7202FB03F21C480260D5
:1035B0005A001C4802601A441B4802605A01D01885
:1035C0004000DFF874E0CEF80000D21A520017482D
:1035D00002601944164A116003EBC703154A1360D1
:1035E0004FF41263002229682046FFF707FA326879
:1035F0005368296823EA010353600020F8BD1720AF
:1036000070471720F8BD1720F8BD00BFE00D00205F
:10361000A08F0008E40D002083DE1B43D40D0020A2
:10362000C80D0020DC0D0020C40D0020C00D0020BE
:10363000CC0D0020D00D0020D80D0020704700BF19
:103640002DE9F84F354D2A685368354C216823EA37
:1036500001035360334B19680020FFF705FC2B680A
:1036600059682068014359601A6822EA00021A600A
:103670002D4B19680020FFF7F7FB2A685368216873
:1036800023EA01035360FA244FF00009CB46CA46EF
:103690004D46DFF89880214F214ED8F800100020C9
:1036A000FFF7E2FB3B681A6833681340012D0CD02A
:1036B00015B1022D11D020E0BBB10AF1020ABAF116
:1036C000080F94BF0025012517E08BB90BF1020B01
:1036D000BBF1330F28BF02250FE063B109F10209E6
:1036E000B9F1650F28BF032507E04FF0000A04E099
:1036F0004FF0000B01E04FF00009013CCDD1032D4C
:1037000008D0BAF1000F0CBF6FF001004FF0FF308E
:10371000BDE8F88F0020BDE8F88F00BFE00D002065
:10372000E40D0020D40D0020C80D0020DC0D002089
:103730002DE9F0410D4608241B4F1C4EDFF87C801C
:103740003B6859683068014359601A6822EA0002F0
:103750001A6015F0010F10D0154B19680020FFF703
:1037600083FB3A685368316823EA01035360114BC5
:1037700019680020FFF778FB0FE0D8F80010002050
:10378000FFF772FB3A685368316823EA010353601C
:10379000094B19680020FFF767FB6D08013CCFD18A
:1037A0000120BDE8F08100BFE00D0020E40D002005
:1037B000C40D0020D80D0020D40D0020C00D002025
:1037C0002DE9F04108250024DFF87480184F2646C3
:1037D0006408D8F8003059683868014359601A689D
:1037E00022EA00021A60134B19683046FFF73CFBCF
:1037F000D8F800205368396823EA010353600E4B60
:1038000019683046FFF730FBD8F800301A683B687B
:103810001A421CBF64F07F04E4B2084B19683046BA
:10382000FFF722FB013DD3D12046BDE8F08100BF68
:10383000E40D0020C40D0020CC0D0020D00D002090
:10384000E00D0020F8B5171E0ADD06460C46CD191E
:1038500014F8011B3046FFF76BFFAC42F8D100E0D3
:1038600000273846F8BD00BFF8B5171E0ADD06462A
:103870000C46CD193046FFF7A3FF04F8010BAC420C
:10388000F8D100E000273846F8BD00BF2DE9F04F21
:103890008DB00846049114460592D200002104F030
:1038A0002DFE00230893099306930793002C00F341
:1038B000AA800023039309E102F0070304FA03F34B
:1038C000DFB2D010DB43DBB20CA901EB000E1EF817
:1038D000181C19400EF8181C1EF810EC17EA0E0FF1
:1038E0000DD002E07F23072080270CAA1044394323
:1038F00000F8181C0EEA030300F8103C03E0013A3C
:10390000B2F1FF3FD8D100200A900B90FFF798FE4C
:103910000390002840F0DA80F021FFF709FF002330
:10392000019398461C4633685968286801435960DA
:103930001A6822EA00021A60DFF8A8B1DBF800106A
:103940002046FFF791FA32685368296823EA010399
:103950005360DFF898A1DAF800102046FFF784FAE8
:1039600033681F682B681F40DFF88491D9F8001076
:103970002046FFF779FA336859682868014359608F
:103980001A6822EA00021A60DBF800102046FFF7EE
:103990006BFA32685368296823EA01035360DAF846
:1039A00000102046FFF760FA3368D3F800B0D5F86E
:1039B00000A0D9F800102046FFF756FA002F55D185
:1039C0001BEA0A0F32D108F0070201239340DBB251
:1039D0004FEAE8020CA9114411F8181C0B4245D11A
:1039E00001990131019108A8815C0B4383541DE0CA
:1039F00008F10108B8F1400F95D159E0059B029AF2
:103A0000934204D162E000230293324E324D9DF87E
:103A10001F1001F07F018DF81F109DF827E01EF0A8
:103A2000800F7FF45FAF3E22012445E70AA94FEAE9
:103A3000E8028B5C5B088B54336859682868014343
:103A400059601A6822EA00021A60244B196820465D
:103A5000FFF70AFA32685368296823EA01035360C2
:103A60001F4B19682046FFF7FFF9C1E70AA94FEA83
:103A7000E8028B5C5B0863F07F038B543368596802
:103A80002868014359601A6822EA00021A60154B3F
:103A900019682046FFF7E8F932685368296823EA75
:103AA00001035360104B19682046FFF7DDF99FE7CB
:103AB000049F029C07EBC4020AAB03CB47F8340017
:103AC0005160631C0293019B002B97D103980DB0AA
:103AD000BDE8F08FE00D0020E40D0020C00D0020B7
:103AE000D40D0020C40D0020D80D0020CC0D0020E6
:103AF000D00D0020002955D0F8B50D4610B1012891
:103B000006D051E02A4A936A23F08073936204E05E
:103B1000274A936A23F000739362044600F001027F
:103B2000244B53F82260A86804F036FA7062AF683C
:103B3000384604F031FA03F0EBFF0146384603F053
:103B400035FF4FF0854104F03BF84FF07C5103F016
:103B50002FFF04F021FAB062F36ADBB2F36214B112
:103B6000012C0FD022E0124B9A6A22F0FF029A62D7
:103B7000996A6A680A439A629A6A42F080729A6203
:103B80000020F8BD0A4B9A6A22F47F429A629A6A30
:103B9000696842EA01229A629A6A42F000729A6265
:103BA0000020F8BD182070471620F8BD0020F8BD91
:103BB00000000240B88F000800283DD02DE9F84FE2
:103BC0008146FEF79DFE8046082401271B4E4FF0DC
:103BD0007E5ADFF86CB0013C404603F099FF054681
:103BE00007FA04F003F098FF0146284604F09CF819
:103BF0000546314604F096F9C8B1D9F80000000135
:103C000003F086FF0146284604F08EF8054651462B
:103C100004F088F958B15946284604F079F930B1D2
:103C2000C9F80440C9F808500020BDE8F88F002CFE
:103C3000D1D11420BDE8F88F1420704700247449B6
:103C400000FF7F472DE9F047034610B101280AD055
:103C50005AE0324A926A12F0807F58D02F4A946A12
:103C600004F0070408E02D4A926A12F0007F51D058
:103C70002A4A946AC4F3022403F00103284A52F842
:103C80002350FEF73DFED5F824A0AD6A03F040FFB7
:103C900003F02AFB06460F4605F03F0003F038FF0D
:103CA00003F022FB00221F4B03F0BEF900221E4B43
:103CB00003F06EFB804689461FFA8AF003F028FF66
:103CC00003F012FB02460B464046494603F0AEF9AC
:103CD000804689460120A04003F01EFF4FF083413B
:103CE00003F06EFF03F000FB02460B4640464946D8
:103CF00003F04EFB02460B463046394603F072FC99
:103D000003F0E0FDBDE8F0870020BDE8F08700206B
:103D1000BDE8F0870020BDE8F08700BF000002404A
:103D2000B88F00080000E03F0000903F00F0010065
:103D3000034B53F82020936913F0080FFBD1704711
:103D4000B88F000810B500F001020A4B53F822406A
:103D500031B1236B43F4407343F00103236310BD7F
:103D6000FFF7E4FF236B23F4407323F00103236385
:103D700010BD00BFB88F0008002800F042812DE977
:103D8000F04184B00446037823B1012B40F03C811C
:103D9000AE4E00E0AE4E354620686168A268E3682A
:103DA0000FC5206928607268AA4B9A4288BF736069
:103DB000736804A840F80C3DFFF7FEFE002840F0B1
:103DC0002581337813B1012B44D068E0338A012B6D
:103DD0001AD14FF4917300224FF440611046FEF760
:103DE0000DFE4FF4817300224FF470411046FEF730
:103DF00005FE738A013B042B51D8DFE813F03D0028
:103E00000B01100015001B00738A013B042B46D8E0
:103E1000DFE813F02700050105000A0010004FF449
:103E200080788021032703E14FF400584FF480513C
:103E30000427FDE040F20313002280210320FEF757
:103E4000DDFD40F2331300224FF400510420FEF751
:103E5000D5FDEFE0738A012B08D0022B00F0E4803F
:103E60001DE04FF020084021012703E04FF0020839
:103E700001210327022504E04FF0200840210127FB
:103E8000022545F4807300223846FEF7B7FD45F45D
:103E90009873002241463846FEF7B0FDCAE0192368
:103EA000D0E06D4AD36943F04003D36104E06A4A2D
:103EB000D36943F08003D361307800F00102674B8F
:103EC00053F822500021FFF73DFF01A93078FFF79A
:103ED00011FE0346002840F09B80EA6A296BA06827
:103EE00010F4007F12BF02F0EF02D2B242F01002D3
:103EF00010F4806F14BF42F0010222F0010222F0A0
:103F000060027078062804D0072805D0052806D15D
:103F100007E042F0200204E042F0400201E042F0FB
:103F2000600222F08602B06800F00704013C032C16
:103F30000ED8DFE804F00205080B42F0060207E0A5
:103F400042F0020204E042F0820201E042F0860206
:103F500000F01804082C0CBF42F0080222F00802FE
:103F600021F002018904890C00F0E004402C06D005
:103F7000602C07D0202C07D141F4804104E041F4AB
:103F8000004101E041F4404110F4807F14BF41F052
:103F9000800121F08001D2B2EA628AB22A636A6BA0
:103FA00022F03F026A636A6B42F010026A636A6B36
:103FB00042F002026A63F26882B1AA6B42F05002D8
:103FC000AA63327812B1012A04D03BE04021244A8E
:103FD000116037E08021224A116033E0AA6B22F0A1
:103FE0005002AA63327812B1012A05D02AE040219A
:103FF0001B4AC2F8801025E08021194AC2F88010BF
:1040000020E017231846704716231BE0182319E0F9
:10401000182317E04FF080084021002708E04FF0F8
:1040200080084021002703E04FF002080121052706
:10403000032526E73378002B3FF433AF012B3FF401
:1040400036AF39E7184604B0BDE8F081FC0D00201A
:10405000E80D002040420F0000000240B88F000829
:1040600000E100E000F001000E4B53F820309869A9
:1040700010F0100F10D1002A10DD10B4013900200B
:1040800001301C6801F8014F9C6914F0100F07D132
:104090008242F5D1104603E00020704700207047AF
:1040A00010BC7047B88F000870B400F00100104BCE
:1040B00053F8204000200FE0A36913F0800FFBD0DD
:1040C00010E0013013F8015B2560824202DDB0424E
:1040D000F7D100E006463046904207DAA36913F0B4
:1040E000800FE9D00B1800F11006EAE770BC7047AA
:1040F000B88F000808B5074B1B6C13F0500F08D0A1
:10410000044A536C43F050035364034BDB6803B120
:10411000984708BD00000340E80D002008B5074B94
:104120001B6C13F0500F08D0044A536C43F050033B
:104130005364034BDB6803B1984708BD008003401C
:10414000FC0D00202DE9F843D1E90045471E00266B
:104150004FF00A084FF00009013642464B46204610
:10416000294603F089FF303207F8012F42464B46BB
:104170002046294603F080FF04460D4654EA050315
:1041800001D0402EE8D13046BDE8F88303685A1CC0
:1041900002601970704700BF704700BF0000000048
:1041A0002DE9F04FC7B08146019108930792002A8C
:1041B00040F0D18700210198C84701F009B92529AD
:1041C00004D00198C847C34600F0C8BF4FF0000EA6
:1041D0008DF814E18DF8D4E08DF894E0C3463F23C8
:1041E00006937646CDF810E0012300931D465FE06C
:1041F0000BF1010B07F1440313F8014B14B1A24278
:10420000FAD161E007F1580111F8013B6BB19A4214
:10421000FAD125F0030545F00405012E48DC46AB34
:10422000334403F8042C013642E015F0040F3FD16B
:104230002E2A04D125F0010545F0020538E0A2F14F
:104240003003DBB2092B20D815F0010F07D0302A3C
:1042500005D1069B3F2B08BF3023069328E025F0AD
:10426000010315F0020F08D046AD049C291901F88E
:10427000842C621C04921D461AE046A9714401F880
:10428000442C0EF1010E1D4612E015F0010F0FD067
:104290002B2A06D02D2A07D0232A09D145F0200544
:1042A00006E045F0100503E045F0080520230693DD
:1042B00010F8012F002A00F05B87252A01F02280E8
:1042C000202A95D101F025B80095252C00F05C87B7
:1042D000202C1CD100F05EBF25210198C847079B08
:1042E0009844013D4446019E14F8011B3046C847DE
:1042F000C4F101032B4418EB030FF5D100F02EBFDE
:1043000025210198C8470BF1010B00F027BF0023BE
:1043100046AA324402F8043C46AA96440EF8443CAD
:1043200004990A4402F8843C9DF8D43023B135A89E
:1043300004F032F8099001E000230993069B3F2B1B
:1043400008BF20230693702C05D1009B43F0200367
:104350000093782491E0732C03D0632C40F08D807F
:1043600030E0089A02F1040A13681946002B08BFCE
:1043700039461291009B13F0020F00F012879DF84E
:104380009430002B00F00D8725A804F005F80646B0
:10439000129B1B78002B00F00B87411E10B900F018
:1043A0000ABF9F49129B0026009D013613F8012F7A
:1043B000002A00F0FF86C6F10102CA42F5D100953D
:1043C00000F0F9BE089A02F1040A13780493009BE6
:1043D00013F008080BD020230693012632E0009B3F
:1043E00013F008081AD1002304931E4605E0202389
:1043F0000693012601E000230493099B9B1B5D1E8D
:10440000002B06DD06990198C847013DB5F1FF3F35
:10441000F8D1732C14D14FF0000800E00026BEB193
:1044200000963446129D15F8011B0198C847013CBF
:10443000F9D1129B009A13441293CDF820A009E001
:104440004FF0000804990198C847CDF820A001E07A
:10445000CDF820A0B8F1000F00F08086099B9E1BCC
:10446000741E002E40F37A8606990198C847013CD5
:10447000B4F1FF3FF8D100F071BE07F16002009D7A
:1044800012F8013BFBB1A342FAD10095672C09D089
:10449000472C14BF002301230F9304F0DF03452BA7
:1044A00002D103E001230F930F9B00E00123DBB255
:1044B0001393692C00F03B87204600210022002343
:1044C000CDE90A2368E00095692C05D0B4F1640CAD
:1044D00018BF4FF0010C01E04FF0000C012E40F32B
:1044E0007E869DF814316C2B14D19DF815316C2B00
:1044F00040F0698700F065BE9DF814316C2B09D13E
:10450000089B1D1D1A681046D117CDE90A01012E1E
:1045100033DC1DE0089B1D1D1A681046D117CDE93C
:104520000A01012E14DD089500219DF814E1BEF169
:10453000680F2AD19DF815E1BEF1680F40F054864E
:10454000DDE90A2302F0FF020023CDE90A231CE083
:10455000002E15DD9DF81461682E14D108950021F8
:104560001CF0FF0FBDF82800024619BF82B20023DD
:1045700012B2D317CDE90A2307E00895002104E021
:104580000895002101E008950021692C00F0318692
:1045900000230F9313931846752C00F03A86642C71
:1045A0002BD100F029BE0C9B43F040030C93DDE9B6
:1045B0000A23524263EB4303CDE90A23099B013BE3
:1045C000099306E0009B13F0100F02D0099B013BFA
:1045D000099319B9DDE90A23002301E0DDE90A2383
:1045E00046A961E9242335A8FFF7ACFD06460A90E9
:1045F00000230E939A4600F068BC04F0DF06582EA4
:1046000010D06F2C40F09280002914BF16230B238A
:104610009E4607231E46032107F11C0A12E000BF35
:10462000FFFF0700002914BF102308239E46782CA3
:104630004FF00F031E464FF0040114BF07F11C0A90
:1046400007F1080A009B23F050030C93DDE90A23CD
:104650000DF1D308002075460A940446CDF8389031
:10466000B14600E03446661C09EA02001AF8000070
:1046700008F8010FC1F1200CA1F1200022FA01FE7F
:1046800003FA0CFC4EEA0C0E23FA00F023FA01FCAC
:104690004EEA0002634652EA030001D0AE42E1DB7B
:1046A000A6460A9CDDF83890009B13F0200F00F01E
:1046B0000884069B302B22D1099B9B1B6F2C06D1B3
:1046C000991E013B002B06DC2023069321E0D91E16
:1046D000023B002B16DD354646AB9A19453A302091
:1046E00002F8010FAB1A0B4435AE3344002BF7DC54
:1046F000764602360029A8BF7618202306936F2C31
:1047000002D106E02023069346AB334403F8444C21
:104710000136731C1A460A9346AB1E44302306F832
:10472000443C164600230E939A46CEE3002800F040
:10473000158500220023CDE92023009B13F0020FF2
:1047400017D09DF89430002B00F0FC8525A803F0CD
:1047500023FE82460F9B23B1002808BF4FF0010AB9
:1047600012E0BAF1000F0FD1009B23F00203009377
:104770000AE0412E06D0009B43F0020300934FF065
:10478000060A01E04FF00D0A089B073323F00703E8
:1047900003F108020892D3E90023104619460022CB
:1047A00003F00043CDE90C23CDE90A01024621F0D4
:1047B00000430020B149994208BF9042C0F0A28155
:1047C0008B4208BF824200F0A281DDE90A01C1F3F9
:1047D0000A53002B00F0CB85A3F2FF3C4FF0FF32D1
:1047E000A74B1040194002460B46CDE90223412E4B
:1047F00040F0F18001220023CDE90A2305E00022E8
:104800000023CDE90A23DFF87CC2DDE9022313434C
:1048100009D1009B03F00203002B08BF4FF0000AF0
:104820004FF0000C0AE0BCF1000F07DACCF10003F6
:104830001A46DB17CDE922232D2604E06246D31762
:10484000CDE922232B26612C40F0FE8400F0EBBC46
:1048500046AB1A4402F8441CBAF10C0F5EDCCAF1F4
:104860000D024FEA820CACF10401C1F1200EACF153
:104870002400DDE902231646CE40149603FA0EFE0C
:10488000149E46EA0E06149623FA00F0149E064380
:10489000149623FA01F11591DDE9140100F00F00DF
:1048A0000021002908BF082820D3BAF1000F16D034
:1048B0000121ACF1200ECCF1200001FA0EF621FA14
:1048C00000F00643179601FA0CF11691DDE9162364
:1048D000DDE9020112184B41CDE9022306E0DDE9D2
:1048E0000A23013243F10003CDE90A23CCF1200E63
:1048F000ACF12001DDE9022322FA0CF003FA0EFEEE
:1049000040EA0E0023FA01F123FA0CF6014302916A
:104910000396BAF1000F00F3D78434E0AAF10E0039
:10492000BAF10D0F00F0D08408F1FF3135AB194416
:10493000024642441A444FF0300E009D43460C9EFE
:1049400001F801EF8A42FBD100950C96013303EB8D
:104950000008DEE70131029800F00F00305C08F833
:10496000010F02980009039A40EA02704FEA121EF2
:104970000290CDF80CE0614500F077848B42E9D1DC
:104980000095984606E0BAF1000F03D1009B13F0A2
:10499000200F06D046AA42442E2102F8441C08F1FA
:1049A000010846AA42440A99303102F8441C612C9D
:1049B0000CBF7821582146AA424402F8431C08F152
:1049C00003061346302203F8422C0A96009B0C93F0
:1049D00001230E9379E2DDE90256320342EA1552D1
:1049E000290302910392BCF1000F08D10122002398
:1049F000CDE9202307F1380601230E938BE0BCF1AB
:104A0000000F41DA012300200021CDE92001CCF183
:104A10000001C1F12006A1F12000029ACA401092C3
:104A2000039A02FA06F6109A32431092DDE9025612
:104A300026FA00F0109A024310923246CA401192B0
:104A4000DA076FEA0C03C3F12000A3F1200102FA98
:104A500000F022FA01F10843189022FA03F31993A7
:104A6000DDE91823DDE9100102430B43CDE9022300
:104A700007F1380601230E934DE000BF0000F07FE0
:104A8000FFFF0F0002FCFFFFDDE9020149084FEACA
:104A90003000024641F000431946CDE92023DCF105
:104AA0003F0216D4C2F1200EA2F12006CDE9040186
:104AB000D040059B03FA0EFE40EA0E0023FA06F6EC
:104AC0003043D3402090219307F1380601220E9203
:104AD00003E007F1300600220E92ACF12000CCF189
:104AE0002002039901FA0CFE029901FA00F04EEA45
:104AF000000E21FA02F201FA0CF002904EEA0203D3
:104B0000039308E007F13C0600230E9303E007F14E
:104B1000300600230E93DDE90C23134307D0009BDE
:104B200043F040030093099B013B099306E0009B7F
:104B300013F0100F02D0099B013B09930E9B002B31
:104B400000F0A881139B9BB1DDE9200150EA01032D
:104B500010D0D046009D00E0B04608F1FF360A2292
:104B6000002303F089FA50EA0103F5D1009502E031
:104B7000D04600E0D046DDE90223134300F0BF80B9
:104B8000A94901F5A07000220023CDF810B0009EC5
:104B9000A646DDE90245002C75F1000C07DAD1E9E3
:104BA00000BC1BEB020B4CEB030C5A46634624196A
:104BB0006D4108318142EED1DDF810B0CDE90245FA
:104BC000009611461A46CDE91A12744628AE04968C
:104BD0000A910C92009D0A2200230A980C9903F076
:104BE0004BFA3032049B03F8012D04930A22002370
:104BF0000A980C9903F040FA0A900C9125AA049B9C
:104C00009A42E8D10095139BDBB1DDE920231343E1
:104C100017D108F101029DF89430302B0DD108F125
:104C20000D0325A9904608F10108984507D011F811
:104C3000012F302AF7D0009503E0904601E000955F
:104C40009846B8F10B0F63D846AB434413F8843C45
:104C5000342B5DD9C8F10B01B8F10C0F1ED0012225
:104C60000023CDF810B0009D8E4612EB020B43EBF3
:104C7000030C634699005B4641EA9B7198001BEB6D
:104C800000024CEB01030EF1FF3EBEF1FF3FECD101
:104C9000DDF810B00095CDE91C0101E001220023F0
:104CA000DDE91A0180185941CDE904015CA3D3E97B
:104CB00000238B4208BF82420AD2DDE92023501C28
:104CC00043F10001CDE9200100220023CDE90423B6
:104CD000009D0A220023DDE9040103F0CDF9303202
:104CE00006F8012D0A220023DDE9040103F0C4F9CE
:104CF000CDE9040125ABB342EBD1009508E025AB2B
:104D000028A93022009D03F8012B9942FBD1009580
:104D100020A935A8FFF716FA0646B8F1000F2CDADD
:104D20006FEA080846AB434413F8443C342B24D9BB
:104D300001200021DDF800E0051841EB0106B30079
:104D400043EA9573AA00A81846EB030108F1FF385F
:104D5000B8F1FF3FF0D1CDF800E0CDE91E23DDE949
:104D60002023151843EB01062A46334646A961E97C
:104D7000262335A8FFF7E6F90646139B93B135AA1B
:104D8000731E1344934209D9009D1178187802F8D4
:104D9000010B03F801199A42F7D300950AF10503B4
:104DA0000A9302E006EB0A030A93BAF1000F03D15B
:104DB000009B13F0200F02D00A9B01330A930F9B34
:104DC000002B79D09DF89F30302B40F0ED820DF113
:104DD0009F020B23009D591E12F8010D302840F050
:104DE000E5820B460029F6D1D0E2721E46AB134491
:104DF00013F8443C302B1AD146AB3344453B16469E
:104E0000009D05E0721E13F8011D30290ED11646D3
:104E1000002EF7D100954FF0FF3326E0AFF300806E
:104E2000FF0FA5D4E8000000309000080095731E25
:104E3000012E1AD19DF8D420302A16D104990029C8
:104E400017DD9DF89430302B16D125AA0139114475
:104E50004FF0FF33009D013B8A4205D012F8010F4D
:104E60003028F8D0009500E0009513F1040F0CDB1A
:104E700004E04FF0FF3301E04FF0FF339A4504DDCB
:104E8000049BF31801330A9318E0049BF3180533CD
:104E90000A9313E0314635A803F07EFB304603F059
:104EA000D9FB0646009B23F0220300930A904FF0A3
:104EB000000ACDF810A001E00C230493009B0C9392
:104EC00003E00A9600230E939A460C9A12F0400FC4
:104ED00040F0CF8112F0100F40F0CE8108E0414643
:104EE0000198C8470C9B13F00803009322D160E29D
:104EF0000C9B13F00803009300F05B821AE0099BFF
:104F00000A9A9B1A5D1E002B02DC08E04FF0000895
:104F100006990198C847013DB5F1FF3FF8D1B8F1B6
:104F2000000F05D00023009341460198C84701E0D7
:104F3000002300930E9B1BB9002E40F0D380DCE0D1
:104F4000139B002BF8D006F1FF38012E1ED19DF8DF
:104F5000D430302B1AD1049B002B40F3A2819DF852
:104F60009430302B40F0958125AA00236FF0010189
:104F7000CD1A01330498984200F0958112F8010F80
:104F80003028F5D088E101330E9304E09DF8D41069
:104F9000454600230E930F9B2BB315F1040F22DB24
:104FA000AA4520DD002E0ADD0DF1D30446AB9D1984
:104FB000453D14F8011F0198C847A542F9D1049B4B
:104FC000002B00F374810C9B13F0200F40F07881CC
:104FD000B1E014F8011B0198C847A64200F0AB806D
:104FE000A542F6D1A7E00198C847BAF1000F03DC4B
:104FF0000C9B13F0200F02D02E210198C847B8F166
:10500000000F13DD0AF1FF38BAF1000F0DDD35ABEB
:105010001A460AF10103C6EB030A164616F8011FE9
:105020000198C847C24507D100E0C2460AF1FF36E1
:10503000BAF1000F06DC1AE008F1FF38B8F1FF3FC3
:10504000ECD114E04FF03008DDF838A0BAF10B0FC6
:1050500006DC46AB534413F8841C0AF1010A00E055
:1050600041460198C847013EB6F1FF3FEED104F03A
:10507000FD04652C0CBF65214521002DBABF6D4292
:105080002D242B24019E3046C84721463046C84770
:10509000092D02DC30210198C8470DF19300002250
:1050A00000E00A46511CBC4B83FB0534EB17C3EBF5
:1050B000A40303EB8304A5EB4405303500F8015F3E
:1050C0001D46002BEDD1002935D046AB1A44A2F184
:1050D000830425AD019E14F8011D3046C847AC423B
:1050E000F9D128E035AB1E441D46DDF8048016F8E2
:1050F000011D4046C847AE42F9D104F0DF04462CFA
:1051000019D10C9B13F0220F15D02E210198C847FE
:10511000BAF1000F0FD05446002530260B2D05DCC8
:1051200046AB2B4413F8841C013500E0314601984E
:10513000C847013CF2D1009B83B1099B0A9A9B1A94
:105140005C1E002B0ADD06990198C847013CB4F1AA
:10515000FF3FF8D102E04FF0000B904F0BF1010838
:10516000079A02EB0B0012F80B1000297FF427A816
:1051700000210198C8472BE125210198C847079BCA
:105180009844013DFFF7AEB8C8EB0B05002DF3DCEA
:10519000FFF7B6B8C8EB0B05002D3FF79DA8FFF74A
:1051A000B2B8129B1B78002B7FF4FBA8FFF717B94E
:1051B000002600E00095009B13F008083FF41BA9AF
:1051C000AEE0089B073323F0070303F108020892BF
:1051D000D3E90023CDE90A230121FFF7A6B9002E68
:1051E0003FF78AA9FFF796B9002E3FF7B9A9FFF755
:1051F000CCB900230F931393009B23F020030C934F
:10520000DDE90A23002A73F10003BFF6DBA9FFF7EB
:10521000CAB9009B23F020030C93FFF7D3B94FF0DA
:10522000010AFFF7B1BA22A935A8FEF78BFF421C8D
:1052300046AB034403F8446C00F1020807F108038D
:105240000C937021FFF704BB22A935A8FEF77AFF63
:10525000421C46AB034403F8446C00F1020807F11A
:105260001C030C935021FFF7F3BA0095E046FFF7BB
:1052700091BB4FF02D0801E04FF02B08069B302B1F
:105280003FF42DAE0C9B13F0080300933FF437AEB0
:105290004AE600234FF0FF3546AA1A4412F8841C50
:1052A00071E6002300E0049B302100256BE62E21EF
:1052B0000198C84725AC049B23441E4628AD88E6C8
:1052C0002E210198C84736E708F1010146AA424459
:1052D000029800F00F000C9E305C02F8440C029A19
:1052E0001209039842EA0072000902920390C44630
:1052F00035AA4244D0440CF10D0C009D4346904623
:10530000FFF73CBBC8EB0B05002D3EF7E5AFFEF702
:10531000F7BFC8EB0B05002D7EF7F5AFFEF7DCBF3E
:10532000002E7FF47DA8CDF820A0FFF797B8009B52
:1053300023F020030C93002100220023CDE90A234F
:10534000FFF740B90F9B002B7FF469AF4FF0000AC5
:10535000FFF707BADDE902010B0343EA105302032A
:10536000029203930023DFF83CC0FFF74CBB4FF0E1
:10537000FF320B4BDDE90A011040194002460B4693
:10538000CDE90223412E3FF43AAAE3E700950491C8
:10539000002E3FF72AAD4AE567666666C08F0008B3
:1053A000FFFF0F0002FCFFFF0C2300E000950493B9
:1053B0003DE5099B0A9A9B1A5D1E002B3FF7A6AD9F
:1053C00000230093B6E5002E3FF79AA8FFF7A2B896
:1053D000002047B0BDE8F08F0EB410B585B0079A35
:1053E000019012B90270104609E0044608AB009320
:1053F00001A90548FEF7D4FE019B181B013805B032
:10540000BDE8104003B070478D4100080FB400B5EF
:1054100083B0049A0C4B1B6873B122B90021084673
:10542000984700200AE005AB019300210648006878
:10543000FEF7B6FE002001E04FF0FF3003B05DF84C
:1054400004EB04B0704700BF44000020F0B540F208
:10545000B273CB8000244C71264A1746264E15198C
:1054600085420AD801339BB2CB8003F00302002AA5
:1054700014BF3A4632462C46F1E7DFF898E01F4F5A
:105480001F4E4A791EF8023007FB03F34D68354082
:10549000B5F5807F04BF03F5A83303F5C07323443B
:1054A000984203D301324A711C46EAE701324A713D
:1054B000001B144AA2FB0032120CD3B20F4C04FBA7
:1054C0001300114BA3FB0043DB0ACB70DBB20F4C84
:1054D00004FB03000E4BA3FB0043C3F347138B7085
:1054E000C3EB0313A0EB8300088001320A71084666
:1054F000F0BD00BF8033E1010085E2018051010071
:1055000000FF030007452EC2C5B3A291F0F1FFFFD3
:10551000898888887091000870B400230B60C28865
:1055200040F2B2739A4207D812E003F00302002A55
:1055300014BF32462A4605E040F2B27300241D4AE9
:1055400016461D4D14440C600133C2889A42ECD8B3
:105550001A4C01231A4E14E014F8012B0D6806FBB7
:1055600002520A6001334579AB420AD2022B08D1BC
:10557000C58815F0030F04D102F5A83202F5C072F8
:105580000A6042799342E7D3C2788378C3EB03136E
:105590009B004FF4616404FB0233028813440A68E1
:1055A0001A440379013B064800FB0320086070BCE5
:1055B000704700BF8033E1010085E201709100086F
:1055C000805101000246014400200DE012F8013B29
:1055D0005840082310F0010F1ABF400880F08C00DB
:1055E000C0F34700013BF5D18A42EFD1704700BFBD
:1055F00010B4234A136823F080031360214C2368FE
:10560000000C00F4036023F4036303432360136876
:1056100023F004031360A2F58032536843F0FF03C4
:105620005360136823F0FF0319431160164B1B6886
:10563000013BB3F1FF3FFBD1114A136843F08003F4
:105640001360124B1B68013BB3F1FF3FFBD10C4AC7
:10565000136823F0800313600D4B1B68013BB3F10B
:10566000FF3FFBD1064A136843F004031360A2F521
:105670008032536823F0FF03536010BC704700BFB3
:1056800000800B4000800C40100E0020140E002003
:10569000200E002010B5284CA4FB0034A40C8C2054
:1056A00000FB04F002F034FA244902F089FA02F017
:1056B00073FC234B18604FF4E17000FB04F002F020
:1056C00027FA1E4902F07CFA02F066FC1D4B1860B6
:1056D00004EB8400400002F01BFA184902F070FA53
:1056E00002F05AFC184B18604FF4FA5000FB04F01B
:1056F00002F00EFA114902F063FA02F04DFC134B6E
:1057000018604FF47A7000FB04F002F001FA0B49C4
:1057100002F056FA02F040FC0D4B186042F2107095
:1057200000FB04F002F0F4F9044902F049FA02F037
:1057300033FC084B186010BD83DE1B43ACC5273912
:10574000100E0020140E0020200E0020240E002039
:10575000180E00201C0E002010B504464FF40C73E8
:105760000022FF211046FDF749F94FF498730022FB
:1057700084210220FDF742F94FF40C7300224FF40C
:1057800003610420FDF73AF92046FFF783FF034A3F
:10579000136823F40363136010BD00BF00800C4046
:1057A00010B5002814BF3F243E2421460648FFF7C9
:1057B0001FFF21460548FFF71BFF054B1B68013BF8
:1057C000B3F1FF3FFBD110BD00001060000020606E
:1057D000240E00202DE9F84F002A00F094800D4699
:1057E0001F46144640F0B8013F2D50D803EB050882
:1057F000B8F1400F50D9CEB231464748FFF7F8FE16
:1058000031464648FFF7F4FE454BD3F800904B462F
:10581000013BB3F1FF3FFBD145F04001C9B23E4827
:10582000FFF7E6FE40213D48FFF7E2FE4B46013B15
:10583000B3F1FF3FFBD1C5F1400BA8F14008DA46B8
:10584000C345B8BFC246BAF1000F1CDD00273E4673
:10585000A3443F2D04D8A15D3248FFF7C9FE0135AE
:105860003F2F07D8B04505DD1BF806102E48FFF77F
:10587000BFFE01374B46013BB3F1FF3FFBD1013681
:10588000B245E6D100E0002740377D1B40E0403DB7
:10589000DFF89490214E02E0DFF888901E4EC9B2E6
:1058A0003046FFF7A5FE1E4BD3F800804346013B70
:1058B000B3F1FF3FFBD145F04001C9B23046FFF7DD
:1058C00097FE4346013BB3F1FF3FFBD10FE0013CA4
:1058D000C5F140050026013614F8011F4846FFF7C0
:1058E00087FE4346013BB3F1FF3FFBD106E0002FAB
:1058F0000BDD3F2D88BF00250AD8E8E7B74206D068
:10590000B542E8D104E0002502E0002500E03D4674
:105910002846BDE8F88F00BF00001060000020603E
:10592000240E002000001068000020682DE9F84FC8
:105930004FF00009DFF8B8B04FF0400A294F69F086
:105940004704E4B221462848FFF752FE2146274883
:10595000FFF74EFEDBF800603346013BB3F1FF3F3B
:10596000FBD151462048FFF743FE51461F48FFF741
:105970003FFE3346013BB3F1FF3FFBD109F1010983
:1059800040240025DFF86C8029463846FFF730FEBA
:1059900029464046FFF72CFE3346013BB3F1FF3F5B
:1059A000FBD1013CF0D1B9F1080FC8D1B8210E48A4
:1059B000FFF71EFEB8210D48FFF71AFE3346013BE4
:1059C000B3F1FF3FFBD140210748FFF711FE402113
:1059D0000648FFF70DFE013EB6F1FF3FFBD1BDE8E3
:1059E000F88F00BF00001068000010600000206009
:1059F000240E0020000020682DE9F04FCDB004688F
:105A0000002C00F0C5806388102B00F2C18007468F
:105A10004FF4807200210CA802F070FD63881946D3
:105A20000A93B4F800A00B93802393FBFAF2B7F922
:105A30001C309342A8BF13469BB2184605934023DF
:105A400093FBF1F2B7F91E309342A8BF13469AB206
:105A5000002B40F39D80431E9BB203FB0AA301B2BF
:105A60000029D8BF0023099300230693079313B29C
:105A70000893069A0492B7F91C30BD6902FB0355DE
:105A8000BDF91430002B33DD00242646079B03F0BC
:105A9000070BDDF810904B462246B7F91C10386909
:105AA00000F0EAF880464B462246B7F91C10F86829
:105AB00000F0E2F88146786820B1297800F0BAF960
:105AC000C0B200E02878CDF80C90CDF808803B6893
:105AD0000193CDF800B0334680220CA900F0D8F82D
